:020000040000FA
:060000000201070222804C
:03002B000226CEDC
:030033000226EFB3
:030053000222F690
:03007B0002268BCF
:1000830002212FE5C754F84401F5C7790122000086
:100093000080FB120086B900030200F1E4792178A5
:1000A30008B800028004F709D8FCE479297802B87B
:1000B30000028004F709D8FCE49002817868790E85
:1000C3008002F0A3D8FCD9FA7AE87B0F9001377845
:1000D3001979028015E493A3AD82AE838A828B8360
:1000E300F0A3AA82AB838D828E83D8E9D9E7758288
:1000F300EE7583D8740312011975829175830074A8
:100103000012011975D00075813F751881751902A8
:10011300759F00020096C09FF59FE473D09F22D085
:1001230083D082C09FE493C0E0740193C0E0740263
:1001330093F59F22630375039F036903FF0000B4D4
:10014300000028002800283075A000A000A000A00F
:100153000000080008E001F000100010001000107B
:10016300001000100050005000500010001000D08C
:10017300070000000000000F0001000500307507B4
:10018300001000010081FF00000000FF02020208CE
:10019300025000A0000000E80302528F010000B5E6
:1001A3008E024C8F010000401002448F010000B00A
:1001B30002024C8F010000411002468F010000C66D
:1001C30002024C8F010000421002488F010000C858
:1001D30002024C8F0100004310024A8F080000C93D
:1001E30002024C8F010000441002588F01000045A9
:1001F30010FFFFFF370B370B370B370B370B370B63
:10020300370B370B370B370B370B370B370B830D8D
:10021300A10D7D0DFFFF01E803053F10020A000059
:10022300211200003312FFFF0101484944204164B9
:100233007652656D6F7465FF00D7138B146B159B36
:10024300159B150000000101FF00FF00120122B4FD
:10025300CB03120122CACB03120122F9CB031201F1
:10026300222FCC0312012246CC031201227DCC03A0
:10027300120122D0CC03120122E7CC03120122FE89
:10028300CC0312012275FF021201228CFF0212011C
:1002930022DAFF02120122AE7300120122B27400AD
:1002A300120122DF74001201222A75001201225F5B
:1002B300750012012261750012012284750012017A
:1002C300229376001201225777001201223D780013
:1002D300120122C97800120122CC780012012254A3
:1002E3007900120122BB7900120122577A00120110
:1002F30022E17A00120122307B001201223D7B00B1
:10030300120122407B00120122A07B001201222F46
:100313007C00120122327C00120122D87C001201DF
:1003230022E87C00120122187D00120122257D00A3
:10033300120122287D00120122A97D0012012297B9
:100343007E00120122497F00120122EBF501120106
:1003530022E3F60112012217F70112012299F70194
:10036300120122B9F70112012201F80112012254EC
:10037300F801120122B8F80112012245F901120114
:1003830022FFF9011201220EFD0112012299FE0141
:10039300120122BCFE0112012217A803120122B48A
:1003A300A90312012218AA0312012277AA03120138
:1003B3002285AA03120122AEAA03120122BE8B03D5
:1003C300120122E68B03120122148C031201224B29
:1003D3008C03120122A98C03120122F48C03120153
:1003E300223F8D031201227F8D03120122C58D034B
:1003F300120122F38D03120122B08E03120122BADD
:100403008E03120122C78E03120122FA8E031201F8
:1004130022C68F03120122D28F03120122EA8F0315
:10042300120122F48F031201227290031201228E11
:10043300D3031201229CD303120122B4D30312016A
:1004430022CCD303120122E4D303120122A2E70137
:100453001201224EE801120122C9E801120122EA27
:10046300E90112012226EA01120122CFEA01120157
:1004730022B6EB011201221AED0112012271ED01E4
:10048300120122F2ED01120122E2EE011201222FEA
:10049300EF01120122B5EF01120122E7EF01120170
:1004A30022FBF1011201223DF2011201225BF20152
:1004B300120122FDF201120122C5F301120122D21F
:1004C300F5011201225BAF0312012271AF03120186
:1004D3002297AF03120122B3B003120122BDB0036E
:1004E300120122F2B103120122EAB2031201221A0B
:1004F300CA0312012251CB0312012237A5011201B3
:1005030022B0A501120122C0A501120122A6A60153
:10051300120122E3A60112012233A7011201223E96
:10052300A70112012228A801120122DEA80112014B
:1005330022C5AA011201227EAC011201225AAD0189
:100543001201220EAE011201224BB101120122F956
:10055300B10112012268B301120122E8B4011201B0
:10056300228FB501120122D8B5011201220FB60163
:10057300120122ACB60112012237B7011201220087
:1005830080021201227180021201229E8002120156
:1005930022F580021201229E8102120122A582020B
:1005A3001201226F8302120122CF8402120122124E
:1005B3008502120122B78502120122DD8502120192
:1005C30022EB8702120122F08702120122F589022F
:1005D300120122428A02120122B58A02120122E882
:1005E3008A021201228A8B02120122338C02120127
:1005F300226B8C021201226E8C02120122B68C0233
:10060300120122F88C021201224F8D021201228A5A
:10061300C2031201229DC203120122ABC2031201C3
:1006230022C1C20312012208C3031201221CC40304
:10063300120122A9C403120122F4C403120122E409
:10064300EF0212012203F0021201225BF0021201F7
:100653002293F002120122BDF0021201227FF50261
:1006630012012214F60212012268F6021201228FED
:10067300F6021201220080031201220A80031201F2
:1006830022AE8003120122F180031201220C8103A6
:100693001201229C8103120122C48103120122FC54
:1006A3008103120122338203120122718203120198
:1006B30022AB8203120122CF820312012298830309
:1006C300120122AE8303120122C18303120122D637
:1006D30083031201225C8403120122968403120114
:1006E300221185031201225D8503120122888503ED
:1006F300120122D18503120122FB85031201222656
:10070300860312012289CF03120122AAC901120111
:1007130022D8C90112012233CB0112012213CC01C9
:1007230012012232CC01120122AFCC01120122F2BA
:10073300CC011201226DCE01120122DCCE01120185
:100743002207D1011201228BD3011201223CD401D1
:1007530012012232D501120122D2D501120122D077
:10076300D6011201222AD801120122B5D8011201A1
:100773002216CD031201227FCD03120122D3CD0312
:1007830012012202CE0312012223CE031201228977
:100793009F03120122F69F031201223DA0031201BF
:1007A3002255A10312012251A20312012234A303F1
:1007B300120122B8F602120122FAF602120122D322
:1007C300F702120122CDF802120122AFF90212013F
:1007D3002218FA0212012234FB02120122A0FB02A8
:1007E300120122A3FB02120122CCFB0212012246B8
:1007F300FC02120122EBFC0212012200FD02120193
:100803002246FD021201225FFD0212012262FD0255
:10081300120122F4B20312012230B3031201226E39
:10082300B30312012238B403120122A7B403120145
:1008330022E2B40312012220B50312012250B503B0
:1008430012012277B503120122E5B5031201222713
:10085300B6031201223B44001201222A4600120170
:1008630022ED4800120122294900120122564900B3
:10087300120122434A00120122864A00120122CDAC
:100883004A00120122DF4A001201221F4B0012010B
:10089300224C4B00120122974B00120122CE4B0037
:1008A300120122FA4B001201224C4C00120122D9F0
:1008B3004C00120122684F00120122605000120105
:1008C30022465200120122965200120122C75700FB
:1008D30012012217580012012255580012012279E1
:1008E3005A001201222E5C00120122795D001201CE
:1008F30022E4BF0312012256C003120122ACC0033B
:10090300120122F0C00312012210C1031201225D61
:10091300C103120122A5C103120122F8C10312016E
:100923002249C2031201224EC902120122CDC90279
:100933001201228FCF021201229ED002120122063F
:10094300D2021201229DD202120122D827001201E3
:10095300222128001201224E2800120122812800A0
:100963001201229128001201229D2800120122AEB9
:100973002800120122952900120122F329001201F5
:1009830022282A001201226B2B00120122BE2B0007
:100993001201220F2C001201227A2C001201221EB6
:1009A3002D00120122D02D001201222E2E00120141
:1009B300229E2E00120122F12E0012012234300059
:1009C3001201229A31001201227132001201228295
:1009D3003200120122BE3200120122CE3200120175
:1009E30022EE3200120122F13200120122BF330043
:1009F300120122903400120122313500120122E744
:100A0300350012012214360012012267360012014A
:100A130022CF36001201222337001201225C370055
:100A2300120122D837001201228038001201224B12
:100A33003900120122ED3900120122623A0012013B
:100A430022C53A00120122233B00120122543B002B
:100A5300120122FB3B00120122E23D00120122316E
:100A63003E00120122783E00120122FE3E001201D6
:100A730022863F00120122CD3F00120122F23F00E5
:100A83001201223D40001201226D4000120122B5E5
:100A930040001201222F4100120122734100120172
:100AA30022844200120122334300120122944300A4
:100AB300120122F043001201220944001201228490
:100AC300BF02120122D7BF02120122E3BF021201A9
:100AD30022B8C002120122DFC0021201221AC1028F
:100AE30012012286C102120122C2C102120122FB9B
:100AF300C10212012213C20212012268C2021201B0
:100B03002281C202120122CAC202120122DDC202E2
:100B1300120122F7C2021201220DC3021201224066
:100B2300C40212012287C50212012289C6021201E0
:100B33002283C702120122F77F00120122FA9003D7
:100B4300120122699403120122A295031201225970
:100B5300A902120122CFAB02120122D5AB0212016C
:100B6300223DAE02120122A4B002120122C09A0356
:100B7300120122569B031201220D9C0312012237FC
:100B83009C031201222A9E03120122529F03120187
:100B930022AA5D00120122DE5D00120122036A0017
:100BA300120122576B00120122626C00120122E231
:100BB3006D00120122C46E00120122FE6E001201AA
:100BC30022216F00120122636F00120122AD6F0018
:100BD300120122B76F001201226170001201223A42
:100BE30071001201228E7100120122F071001201B4
:100BF30022437200120122727200120122AF7200AC
:100C030012012214B80112012280BB0112012286B3
:100C1300BB011201220CC10112012285C50112017F
:100C2300225BC901120122CEB90312012244BA0385
:100C33001201225ABA031201229BBA03120122D5CE
:100C4300BA031201224EBB0312012289BB03120114
:100C530022FCBB031201223ABC0312012243BC0350
:100C63001201224FBC031201226BBC031201229614
:100C7300BC03120122ACBC03120122F0BC0312011B
:100C8300220DE90212012220E9021201223AE902AD
:100C930012012263E902120122A6E902120122E5EE
:100CA300E90212012223EA0212012288EA02120156
:100CB300229DEA02120122A8EA02120122B5EA02E7
:100CC300120122CCEA02120122DAEA02120122E91B
:100CD300EA02120122FEEA0212012213EB021201BE
:100CE300221EEB021201222AEB0212012237EB022F
:100CF3001201224AEB0212012255EB021201227A5F
:100D0300EB0212012221EC0212012236EC02120143
:100D1300224BEC0212012265EC0212012280EC024A
:100D23001201229DEC02120122A8EC02120122649C
:100D3300ED0212012250EE0212012275EE0212019F
:100D43002280EE0212012295EE02120122A9EE0286
:100D53001201220AEF0212012210EF0212012216DF
:100D6300EF021201221CEF0212012234EF021201E0
:100D73002267EF021201222EB50212012250B502A0
:100D830012012230B60212012207B90212012233E4
:100D9300BA0212012257BB0212012209BC0212013C
:100DA30022AABC02120122418E02120122C58E0226
:100DB300120122748F02120122D39002120122F433
:100DC3009202120122E093021201221594021201EF
:100DD30022379402120122E69402120122DE9602C5
:100DE300120122079702120122999702120122CBC4
:100DF3009702120122D897021201222F98021201A0
:100E030022559802120122C29A02120122C59B02A4
:100E13001201221D9C0212012236D9011201224025
:100E2300DA0112012227DB0112012231DB01120157
:100E33002253DB011201225FDB01120122F8DC01E4
:100E430012012227DD0112012243DE011201229C3D
:100E5300DE0112012202E001120122E1E00112018E
:100E6300223DE101120122AAE101120122E5E10181
:100E730012012224E201120122DDE401120122F710
:100E8300E40112012283E50112012291E50112011D
:100E930022EAE501120122F8E5011201226BE601C3
:100EA300120122CFE60112012219E701120122D811
:100EB300C603120122FDC6031201226FC7031201EA
:100EC30022BDDA02120122C6DA02120122CFDA02AD
:100ED300120122A6DB0212012257DD021201228D2A
:100EE300DD02120122C7DD02120122FDDD02120121
:100EF3002237DE021201226BDE0212012297DE028A
:100F0300120122E0DE021201221ADF021201226321
:100F1300DF02120122BBDF02120122F0DF02120103
:100F2300224BE00212012285E002120122D6E002E6
:100F33001201220CE10212012246E102120122698E
:100F4300E1021201227DD403120122A9D40312016A
:100F53002204D5031201220ED5031201221ED5034A
:100F63001201224E86031201225886031201229691
:100F73008603120122DF860312012219870312015D
:100F8300226F87031201229087031201229987039C
:100F9300120122E487031201220D88031201221792
:100FA3008803120122838803120122198903120183
:100FB300226389031201229389031201221C8A03EB
:100FC3001201225C8A03120122948A03120122A6CF
:100FD3008A03120122C58A03120122CE8A03120157
:100FE30022948B03120122A6D10312012294D80367
:100FF30012012286FD02120122BCFD02120122F21D
:10100300FD021201223BFF021201226BD7031201E0
:101013002281D7031201228BD703120122F6A303E5
:101023001201220BA403120122BEA403120122FE09
:10103300A40312012217A5031201224BA5031201D7
:101043002298A503120122CCA5031201220EA603A6
:101053001201220AA8031201229DD203120122C601
:10106300D203120122EFD20312012207D30312018A
:101073002249D303120122ED95031201222C960378
:10108300120122B59603120122CA960312012215F8
:10109300970312012254970312012263970312014B
:1010A30022BC97031201220B9803120122619803B9
:1010B3001201225699031201224B9A03120122882C
:1010C3009A03120122D5D7031201225D8F01120167
:1010D30022D39101120122AC92011201221F940129
:1010E3001201221C9501120122A595011201222948
:1010F30096011201224E9601120122E39901120177
:1011030022579A01120122439B011201227D9B0166
:10111300120122BD9B01120122689D011201229935
:101123009D01120122EC9D01120122359E01120143
:1011330022A39E01120122D59E01120122ED9E01DE
:1011430012012202A00112012212A0011201223077
:10115300A10112012252A10112012288A10112014F
:101163002231A301120122AAA301120122E9A30140
:1011730012012200A501120122E7FF0112012244FC
:10118300D90312012283D903120122E67F0012013F
:1011930022C9D503120122D9D503120122F1D503A5
:1011A30012012259D603120122A2D00312012227CF
:1011B300D1031201228DD10312012228D50312017A
:1011C300222BD50312012264D503120122B7D503C2
:1011D300120122C2AB03120122D6AB031201224F2A
:1011E300AC0312012224AD03120122F6AE03120155
:1011F300226B9C02120122F29D02120122DF9E0247
:10120300120122899F0212012213A0021201221647
:10121300A00212012219A00212012252A3021201FA
:1012230022A1A30212012253A6021201228AA602BC
:10123300120122A2A602120122DDA7021201224FED
:10124300A8021201228CA80212012229A90212016A
:10125300227DC803120122CDC80312012256C903FD
:10126300120122BCC90312012220BD031201224A2A
:10127300BD0312012210BE03120122EBBE031201B1
:101283002272BF03120122C7D20212012284D302A7
:10129300120122BFD302120122E7D3021201224913
:1012A300D40212012295D402120122F5D4021201B2
:1012B3002288D50212012287D60212012216D802F1
:1012C30012012299D80212012200D9021201221717
:1012D300D90212012221DA021201225FDA0212017B
:1012E300221EC50312012268C50312012278C50319
:1012F300120122D1C50312012238C603120122733F
:10130300C60312012270CE03120122DDCE031201A5
:1013130022EECE0312012237CF031201226DCF0337
:101323001201226FB603120122C5B603120122E491
:10133300B60312012239B9031201226DB903120156
:101343002298B90312012263D60312012278D6032D
:10135300120122FCD60312012227D70312012251C4
:10136300D70312012253D70312012255D7031201C7
:101373002266D70312012268D70312012235D8034C
:10138300120122ABD90312012209E202120122E463
:10139300E202120122CFE302120122E0E302120170
:1013A30022F1E3021201223BE402120122D6E502FA
:1013B30012012234E70212012264E70212012231F0
:1013C300E80212012291E802120122BA7F001201FF
:1013D300228DD90312010002000000205104B4162B
:1013E30000010102030109025400030100A01909CD
:1013F3000400000103010100092111010001223F42
:10140300000705810308000A090401000103000025
:1014130000092111010001226D00070582030C0060
:101423000A0904030001030102000921110100015B
:10143300223400070584030F000A0403090424036C
:1014430054006500780061007300200049006E00BD
:1014530073007400720075006D0065006E00740007
:1014630073001E0355005300420020004300430055
:1014730032003500340030002000480049004400A9
:10148300080330003000310005010906A101950869
:101493007501050719E029E715002501810295016A
:1014A3007508810195057501050819012905910242
:1014B30095017503910195067508050719002965BE
:1014C300150025658100C0050C0901A1010902A1D0
:1014D3000205091901290A1501250A7504950181D7
:1014E30000C0050C098615FF25017502950181468B
:1014F30009E909EA150075019502810209E209303B
:101503000983098109CD094009B209B309B409B5B1
:1015130009B609B71501250C7504950181000980E9
:10152300A10205091901290315012503750281008B
:10153300C08103C005010902A1010901A100050938
:10154300190129031500250175019503810275050C
:101553009501810105010930093109381581257F7C
:10156300750895038106C0C0220000008B143F005C
:1015730022000001CA146D00220000033715340055
:1015830021000000FB1309002100000114140900CD
:10159300210000032D140900F21300000B140000B6
:1015A30024140000E066701008A3E066700A08A324
:1015B300E066700408A3E06622C3E7960809E7968D
:1015C3000809E7960809E79622C3E09608A3E09680
:1015D30008A3E09608A3E09622C008C3E096F508A6
:1015E30008A3E096420808A3E096420808A3E09601
:1015F30045087001D3D00822BB0102E722C082C094
:101603008389828A83BB0003E08002E493D083D082
:101613008222BB000EC082C0838A838982F0D0837A
:10162300D08222BB0101F722080808EAC0E0EBC020
:10163300E086F0E7A4FA180986F0E7A42AFA180965
:1016430086F0E7A42AFA180986F0E7A42AFA19868D
:10165300F0E7A4FBE5F02AFA190886F0E7A42BFBD0
:10166300E5F03AFA190886F0E7A42BFBE5F03AFA1D
:1016730018180986F0E7A4C5F02BFBE43AFA190819
:10168300E7C5F0C6A426F6E5F03BFBE43AFA188674
:10169300F0E7A4F6E5F00826F6E43B08F6E43A089A
:1016A300F6D0E0FBD0E0FA22E4CFC0E0E4CEC0E025
:1016B300E4CDC0E0E4CCC0E075F020E626F608E611
:1016C30033F608E633F608E633F6181818EC33FC5D
:1016D300ED33FDEE33FEEF33FFC3EC9709ED9709CE
:1016E300EE9709EF97191919400FFFEC97FC09EDD5
:1016F30097FD09EE97FE191906D5F0BFECF709ED32
:10170300F709EEF709EFF7191919D0E0FCD0E0FD5E
:10171300D0E0FED0E0FF226016080808C6C313C657
:1017230018C613C618C613C618C613C6D5E0EA22D0
:101733007009080808226016181818C6C333C608AB
:10174300C633C608C633C608C633C6D5E0EA22E6A2
:1017530027F60809E637F60809E637F60809E637F3
:10176300F622E026F608A3E036F608A3E036F608EC
:10177300A3E036F622E026F008A3E036F008A3E063
:1017830036F008A3E036F022C3E697F60809E69799
:10179300F60809E697F60809E697F622C3E096F0FD
:1017A30008A3E096F008A3E096F008A3E096F022E1
:1017B300E657F60809E657F60809E657F60809E674
:1017C30057F622E056F608A3E056F608A3E056F6CD
:1017D30008A3E056F622E056F008A3E056F008A36B
:1017E300E056F008A3E056F022E066F608A3E066B0
:1017F300F608A3E066F608A3E066F622E0F608A37F
:10180300E0F608A3E0F608A3E0F622E6F008A3E674
:10181300F008A3E6F008A3E6F022E0FAA3E0FBA3B6
:10182300E0FCA3E0FD22EAF0A3EBF0A3ECF0A3EDD0
:10183300F022E0F8A3E0F9A3E0FAA3E0FB22E8F04A
:10184300A3E9F0A3EAF0A3EBF022CAC0E0E6F0A319
:1018530008DAFAD0E0FA22CAC0E0E0A3C582CCC518
:1018630082C583CDC583F0A3C582CCC582C583CD94
:10187300C583DAE6D0E0CA22C3E498F8E499F91202
:1018830018BC8026C3E49AFAE49BFBE920E7E9123B
:1018930018BCE498F8E499F922C3E498F8E499F9B8
:1018A3001218BCE498F8E499F9C3E49AFAE49BFBB0
:1018B30022EB20E7CFE920E7E0B90010BB0008E8FE
:1018C3008AF084F8AAF022E4FBC8FA22EB70227BA8
:1018D30010C833C8C933C9335007C39AC3DBF28076
:1018E300069A50012ADBEAC833F4C8C933F4C9FAAB
:1018F3002275F008E4C833C8C933C933C99AC99BF0
:101903005004C92AC93BD5F0ECFBC833F4C8E4C979
:10191300FA22600D08C6A2E713C618C613C6D5E09F
:10192300F322600C08C6C313C618C613C6D5E0F469
:1019330022700422600D18C6C333C608C633C6D549
:10194300E0F41822251810AF08F518400C1519807B
:1019530008F51840021519D2AF2200C0D02518107F
:10196300AF08F518500C05198008F5185002051931
:10197300D2AFD0D0222518F58210AF08F518400C4D
:1019830015198008F51840021519D2AF851983225D
:101993002518F582E43519F583222518F8E435195D
:1019A300F9222518FAE43519FB222518FCE4351928
:1019B300FD22E4732518C582C0E0E51934FFC58311
:1019C300C0E0E518C3958224F810AF088583198514
:1019D30082188008858319858218D2AFCEF0A3E5DB
:1019E30020F0A37808E608F0A3DEFAEFF0A3E58180
:1019F30024FAF8E608F0A3E608F0A3E608F0A30843
:101A030008E608F0A3E608F0A315811581D0E0FEEF
:101A1300D0E0F8158115811581E8C0E0EEC0E02221
:101A23002518C582C0E0E51934FFC583C0E0E51879
:101A3300C3958224F910AF0885831985821880081D
:101A4300858319858218D2AFCEF0A3E520F0A37861
:101A530008E608F0A3DEFAEFF0A3E58124FBF8E63D
:101A630008F0A3E608F0A30808E608F0A3E608F0E8
:101A7300A315811581D0E0FED0E0F815811581E82A
:101A8300C0E0EEC0E022851983851882E0A3FEE062
:101A9300A3F5207808E0A3F608DFFAE0A3FFE0A3AC
:101AA300C0E0E0A3C0E0E0A3C0E0E0A3C0E0E0A3A7
:101AB300C0E010AF088582188583198008858218D5
:101AC300858319D2AFD083D08202011F8519838504
:101AD3001882E0A3FEE0A3F5207808E0A3F608DF70
:101AE300FAE0A3FFE0A3C0E0E0A3C0E0E0A3C0E00E
:101AF300E0A3C0E010AF08858218858319800885AC
:101B03008218858319D2AFD083D08222C0D0251802
:101B1300C582C0E0E51934FFC583C0E0E518C3956D
:101B23008224F310AF088583198582188008858382
:101B330019858218D2AFC8F0A3E9F0A3EAF0A3EBAA
:101B4300F0A37908E709F0A3D8FAECF0A3EDF0A32A
:101B5300EEF0A3EFF0A3D0E0F0A3D0E0F0A3D0E049
:101B6300F0A3E520F0A3E5F0F0A3228519838518FF
:101B730082E0C0E0A3E0F9A3E0FAA3E0FBA37808C6
:101B8300E0F608A3DFFAE0FCA3E0FDA3E0FEA3E098
:101B9300FFA3E0C0E0A3E0C0E0A3E0F5D0A3E0F53D
:101BA30020A3E0A3F5F010AF088583198582188080
:101BB30008858319858218D2AFD082D083D0E0F80C
:101BC300D0E0327404800A740380067402800274C5
:101BD30001C0E0F404121978D0E012184D22740405
:101BE30080087403800474028000CCC0E0EDC0E080
:101BF300E518C39CCCAD1950011D10AF068C188D90
:101C03001980068C188D19D2AF12185AD0E0FDD066
:101C1300E0FC22D083D082E9C0E0E493A3C386F042
:101C2300C5F095F0F908E493A386F0C5F095F0703C
:101C33000BE493A3C3994005E9048002A3E475F080
:101C430002A42582F582E5F03583F583D0E0F9E43B
:101C530093A3C0E0E493C0E022D083D082ECC0E041
:101C6300EDC0E0E493A3FCE493A3FDED4C600D12FF
:101C73001CA8EC24FFFCED34FFFD80EFE493A3FCF0
:101C8300E493A3FDED4C600D121CE7EC24FFFCED87
:101C930034FFFD80EFD0E0FDD0E0FCE493A3C0E08F
:101CA300E493C0E022C0E0C3E493960874019396E2
:101CB30018400FE493667008087401936618700067
:101CC3007019A3A3C3E49396087401939618A3A36E
:101CD300400DD0E0D0E0D0E0021C98A3A3A3A3A3BF
:101CE300A3D0E022C0E0C0F088F0E4936670080857
:101CF30074019366187000A8F0A3A3700BD0F0D002
:0F1D0300E0D0E0D0E0021C98A3A3D0F0D0E02203
:101D140074F5121A23EAFEEBFFEE2434F8EF3400D4
:101D2400F988088909EE2435121E40F8EE2437128A
:101D34001E40F50AEC850AF0A4FCAAF0850AF0ED31
:101D4400A42AFDE82CF8E43DF97A257B001218BC9E
:101D5400EA850882850983F074075AF87401B8008B
:101D6400028004C333D8FCFBEA131313541FF8EEA8
:101D740028F8EF3400F9E8245DF582E9121E435B8C
:101D84006003EA801CEE2436121E40F5F0EA84A8B3
:101D9400F0EE28F8EF3400F9E82438F582E9121E51
:101DA40043F97F04021ACF74F5121A23EAFEEBFFFB
:101DB400EE2434121E40C0E0EE2435F582EF3400E8
:101DC400F583D0E0F08E828F83A3A3A3A3A3E0FACC
:101DD400A3E0FB8E828F83A3A3A3A3A3A3A3E0FC0E
:101DE400A3E0FDECC39AF50AED9BF50BEE247FF519
:101DF40008EF3400F509850882F583E06401702B4F
:101E0400EE2480F582EF3400F583121BE9121E499B
:101E1400740212195DE960137C867D07EEFAEFFB0C
:101E2400120A4D850882850983E4F0AC0AAD0BEEF5
:101E3400FAEFFB121D14122677021DA6F582EF3469
:101E440000F583E022C082C083851882851983E06F
:101E5400F8A3E0F9C3EA9CEB9D5010C3EC98ED990C
:101E6400401BC3EA98EB995014800EC3EA98EB998F
:101E74004007C3EC98ED994004790180027900D0C1
:101E840083D08222EAC39CFAEB9DFB2274ED121AE2
:101E940023900440E064086005E06407702C9061BE
:101EA400C8E0602690046EE0F874FF68601CE87572
:101EB400F005A4C8AAF02AF9747028FE740439FF46
:101EC4008E828F83A3A3A3E070057900022039EEEC
:101ED4002468F510EF3400F511906060E0851082FD
:101EE400851183F0750819750908750A00750B00CA
:101EF400E5D914F50EE5D95403F50F601CEE2482E0
:101F0400F50CEF3400F50D7403650F6058E50E60B1
:101F140013EE2467121E40700B793DEEFAEFFB12AC
:101F24000A7780A6900814E064016026850C8285F7
:101F34000D83E06004780480027800850E0AE50AC7
:101F4400C398FA95E0FB1208678A0A8B0BEA450BE3
:101F54007006120D59021ECE850C82850D83E07029
:101F6400048A088B0978008016E5D9C0E08812E558
:101F7400082512F582E5093400F583D0E0F008E87D
:101F8400C3950E40E4850C82850D83E0602874FCC3
:101F9400250EF50E7808121BCEAC0EA90FEEFAEF43
:101FA400FB120B31740212195DE9700AAA0AAB0B19
:101FB400121257021F1D7403650F6058850E0C75AD
:101FC4000D00780C121BCEAC08AD09AA0AAB0B129B
:101FD4000AF5740212195D851082851183E0F87484
:101FE40080687005750C7F8002880CE50CF5087814
:101FF40008121BD2E50FF5087808121BD2A90EAC03
:102004000AAD0B90046EE0FA7B001207057402120D
:10201400195D801C900440E06408AC08AD097009A7
:10202400EEFAEFFB120B618007EEFAEFFB120C15D0
:10203400120D6579017F0C021ACF74F3121A2374FE
:10204400FC121947EAFEEBFF8908A2AFE433F50955
:10205400C2AFEE2463F50AEF3400F50B8010AA0A30
:10206400AB0B120AAD12125790078DE004F0850AEB
:1020740082850B83E0F8A3E0F9E849602FE82402A5
:10208400FAE93400FBEA2402F50CEB3400F50D7890
:102094000C121BCE8A828B83E0FCA3E0F9EEFAEFEC
:1020A400FB120AA1740212195DE960B290078DE077
:1020B400605790078EE0F890078DE0C398500C7439
:1020C400026508704490078FE0603E8E828F83A380
:1020D400A3A3A3E085188285198312211D7402121B
:1020E4001993E812211D90078CE028F0740212194C
:1020F40093AC82AD83851882851983AA82AB8379D8
:102104000112071190078DE4F0E509A2E092AF7483
:102114000412195D7F06021ACFF0A3E4F090078D34
:10212400E0F822008521878522C622C0E074EF12E0
:102134001B0FA2AFE433FEC2AF759B00906182E037
:10214400A2E05012E591A2E0500C7591FE74016575
:10215400217003121E90E0A2E55051E591A2E550D2
:102164004B7591DF900440E064076005E0640870FB
:1021740023740165217035790190046EE0FA75F0DD
:1021840005A4CAA8F028FB74702AFA74043BFB1255
:10219400203E8018E0640D7013900462E004F06443
:1021A400287002E4F07A00E0F9120D6B906182E08D
:1021B400A2E64003022256E591A2E640030222561B
:1021C4007591BF900440E064057008120C57120C1E
:1021D400638003120C5D752100120CDBE99004414D
:1021E400F07900120CBD12096F7A017B0090043F54
:1021F400E0F9120FBD907803E0644270559008181E
:10220400E014F0704DC2AF12220E00782AD0E0F62E
:1022140018D0E0F6E59F540770057509FF80037533
:10222400097FC4C0E07829E6F50808E65509F509F0
:10223400740B7808121925D0E02508F8906270E034
:10224400A2E740F8E8C333906272F0906270E0D283
:10225400E0F0906181E0A2E35009E5E9A2E35003D4
:1022640075E9F7A3E0A2E75009E591A2E7500375E9
:10227400917FEEA2E092AF7F04021B6EC0E0C0D05B
:10228400C082C083906183E0A2E05009E5BFA2E070
:10229400500375BFFEE0A2E15009E5BFA2E150037F
:1022A40075BFFDE0A2E25009E5BFA2E2500375BF8D
:1022B400FBE0A2E35009E5BFA2E3500375BFF7E0DA
:1022C400A2E45009E5BFA2E4500375BFEFE0A2E524
:1022D4005009E5BFA2E5500375BFDFE0A2E650094F
:1022E400E5BFA2E6500375BFBFD083D082D0D0D063
:1022F400E032C0E074F2121B0FE5A7A2E4500FE530
:10230400A1A2E4500953A7EF75A1EF12234AE5A750
:10231400A2E5500CE5A1A2E5500653A7DF75A1DFA5
:10232400E5A7A2E15009E5A1A2E1500375A1FDE5ED
:10233400A7A2E2500CE5A1A2E2500653A7FB75A1A7
:10234400FB7F01021B6E74F8121A2375210190049D
:1023540040E0640670077A007B00120C3FA2AFE4F1
:1023640033FED2AF900446E0640170187A207B00FB
:1023740090043FE0F91210417A207B0090043FE082
:10238400F9120FC3906182E0D2E6F0900815E06084
:102394002185C6228016900445E064017008E5C6D4
:1023A40054F84405F5C653BEFC1221287401652176
:1023B40060E4EEA2E092AF7F01021ACF8E238F2455
:1023C400858228858327851882851983E0CEA3E03A
:1023D400CF852882852783EBC9EAC8EDCBECCA7583
:1023E400F010C3E833C8E933C9EA33CAEB33CBC3CB
:1023F400EA9EF526EB9FF525B35004AB25AA26ECFF
:1024040033CCED33CDD5F0DAAE23AF242274F11200
:102414001A238A088B098C0A8D0B908F1278081264
:1024240017C6740F121993780C1217FF908F127835
:102434000C1217C67808790C1215BC908F02501034
:102444007808790C12178B78081215DC4014800E6A
:10245400780C790812178B780C1215DC500479016A
:10246400800279007F08021ACF74ED121A238A08B9
:102474008B098C0A8D0B908F1278081217C674136F
:10248400121993780C1217FF908F12780C1217C63A
:10249400780C79081215BC40117808790C12178B46
:1024A400AA08AB09AC0AAD0B8022751000751100A7
:1024B4007512007513017810790C12178B78107946
:1024C40008121752AA10AB11AC12AD137F0C021AEA
:1024D400CF908F1278081217FF8A828B83780812A4
:1024E40017D97F04021ACF74F5121A238C828D83B4
:1024F40078081217FF8A828B83780812179F122597
:102504003FC3E098F0A3E099122531401E908F3E1E
:1025140078081217FF8A828B8378081217788E82C4
:102524008F83E02420F0A3E0344EF080A4F08E8268
:102534008F83C3E09420A3E0944E22EA2404F8EBB2
:102544003400F9E8FEE9FF8C828D83A3A3A3A3E002
:10255400F8A3E0F98E828F832274F5121A23E9FE20
:102564009007A1E0FAA3E0FBEEC333F8E433F97477
:102574007D28F582748E39F583E02AF508A3E03BC3
:10258400F5097808121BCE908F2E12181D1223C045
:10259400740212195D8A088B098C0A8D0B741078E9
:1025A4000812171AAA08AB097F04021ACF74F11291
:1025B4001A238A0C8B0D8C0E8D0F740F121993E055
:1025C400FAA3E0FB7411121993E0F508A3E0F509EE
:1025D4007808121BCEEA2401F508EB3400F509E46F
:1025E400F50AF50B780C790812162B908F0E7808E3
:1025F4001217FF780C790812162BAA0CAB0DAC0E2F
:10260400AD0F1223C0740212195D8B09EA450960EB
:10261400047A0180027A00EC2AFCED3400FD741384
:10262400121993E0F8A3E0F9E8FEE9FFECF8EDF9FC
:102634007A717B021218BC88088909E4F50AF50B43
:102644008E828F83780812180EECF8EDF97A717B7C
:10265400021218BC8A088B09740578081219348E82
:10266400828F83A3A3A3A3E508F0A3E509F07F0861
:10267400021ACFC082C083E9906000F0D083D08278
:1026840022C2AF02000022C0E074F2121B0FA2AFFC
:10269400E433FED2AFE58AA2E25007900EDBE0D22B
:1026A400E0F0E58AA2E35007900EDBE0D2E1F0759A
:1026B4008A00C2EB7A107B00900ED7E0F9120FBDAE
:1026C400EEA2E092AF7F01021B6EC0E0C0D0E8C072
:1026D400E0E9C0E0E5A8D2AFC2C7A2E7A2E792AFA3
:1026E400D0E0F9D0E0F8D0D0D0E032C0E074ED1200
:1026F4001B0FA2AFE433FCD2AF7480659E70FA90D6
:10270400620F7403F0E0A2E750FB906206E0F50A62
:102714007406550A7006E58BA2E55045E50AA2E267
:102724005033900FDFE0F8A3E0E890620B1227C269
:1027340074047808121925E5089062071227C274F8
:10274400097808121925E508543E906209F0906250
:1027540001E0D2E0F0E50AD2E1F50A900FE1E4806D
:1027640017E50AA2E0501290620FE0C2E1F0E0A285
:10277400E740FB900FE17401F0906202E0F50C90E9
:102784006204E0F508750D007404780C121934E540
:102794000A450CFA75090074097808121934EAF824
:1027A400E50D4509F9900FDDE048F0A3E049F07527
:1027B4008B00C2E8ECA2E092AF7F06021B6EF090A1
:0A27C4000FDFE0F508A3E0F509229D
:1027D000FFFFFFFFFFFFFFFFC082C0839061907487
:1027E00004F0A37448F0A3E4F09061807440F0908A
:1027F00061BC7407F09061877469F09061B67416DB
:10280000F07900120975790212097B9027D0E493C0
:10281000F46006E493F91209517905120D4D022C6A
:1028200008C082C083E9540FF9906185E0696012A5
:10283000E5C654804449F5C6E59E547F644970F866
:10284000E9F053C680E59E547F70FA022C0874F7B5
:102850001219B7E5A8FE53A87E12095DC2BA539AB1
:10286000FEC289759B00C2C212096375A91175B9B0
:1028700005120969D2BA439A0174805E42A80237F0
:1028800057C082C083906181E4F0A3F0A3F0022CD2
:102890000875E90075910075BF0002011FC082C074
:1028A00083906181E4F0A374C0F0A3E480DFC08270
:1028B000C08374F81219479004421243DB7003027C
:1028C000298D900442E05440602379088518828560
:1028D0001983AA82AB83120ACB851882851983AA31
:1028E00082AB831206ED900442E054BFF0E05480C6
:1028F0006010790C7A397B08120ACB900442E054BC
:102900007FF0E0A2E0500F79001209751206F390F3
:102910000442E054FEF0E05402600F7901120975A0
:102920001206F3900442E054FDF0E05404600F7985
:102930000012097B1206F9900442E054FBF0E054C7
:1029400008600F790112097B1206F9900442E054E5
:10295000F7F0E05410600F790212097B1206F9902B
:102960000442E054EFF0E05420600F790312097B39
:102970001206F9900442E054DFF0A3E05401600D28
:102980001209871206FF900443E054FEF074081207
:10299000195D022C08C082C083E9600514602A809A
:1029A0004F90619A7433F0A37455F09061A0743A1B
:1029B000F0900813E064017009C2919004447467B8
:1029C000802D9004447461802690619A743FF0A336
:1029D000745AF09061A0747FF0900813E064017065
:1029E00009D29190044474718005900444746AF093
:1029F000022C08C082C083E9600B14600D146017BC
:102A000014600C80209027D480159027D5801090DA
:102A10000813E0640170059027D680039027D7E45F
:102A200093906186F0022C0874EE1219B774F412B8
:102A30001947851882851983AC82AD8375838E759D
:102A400082D6740412185A9027D493F46003022B90
:102A500052907808E0C394025003022B327404129F
:102A60001993AC82AD8375838E7582AD740812188C
:102A70005AFC7EFF7FFF8E0C7D008C8285820E804B
:102A80000F74086D606D74096D6068740A6D606321
:102A90008D0875090074027808121934122B5C1223
:102AA00017FFA909E50AC9F88810741878081217E1
:102AB0001AE5104508FAE9FBE50EC333F8E433F9EB
:102AC0007404121993E58228F582E5833912360ED3
:102AD000C3E89AE99B4008E8C39AF8E99B8006EAB4
:102AE000C398F8EB99F9C3E89EE99F5006E8FEE920
:102AF000FF8D0C0DEDC39413408774FF6E7003744B
:102B0000FF6F6024850C0874027808121934122BA8
:102B10005C1217FF851882851983E582250EF582E0
:102B2000E583123B1FE508F00CECC394045003024C
:102B30002A727508017509007808121BCE740212FA
:102B40001993AC82AD837AF57B091211AF7402122E
:102B5000195D740C12195D7F0A021A8974482508E0
:102B6000F58274783509F583780822C082C0839095
:102B70006186E0F89027D7E4936870099027D6E43F
:102B800093906186F09061AE7468F0A3746AF090DF
:102B9000624574FBF0A304F053F4FD43FE02900879
:102BA000137401F09061A0E0643A7004790080022F
:102BB0007901120975022C08F07F04021A89C0827B
:102BC000C0839007F1E0640170139007F7E0F87498
:102BD00001686027E87006A3E06401601E900808A1
:102BE000E06401700890080EE06401600E90079B9D
:102BF000E06401700A9007A0E06004790C8002791B
:102C0000008005E0F9122677D083D08202011FC030
:102C100082C08375E1F190079EE0604B1460091457
:102C2000604F14604714704E120999900794E0F9B0
:102C30007A957B07120C9F908EE612181D120CEDF0
:102C4000908F1612181D120CAB90079FE0F9120C12
:102C5000B77901120D41900792122EE574C9F0A3C5
:102C60007409F0790080A112099F80BF1209A58024
:102C7000BA1209AB80B5791280EB74F41219B775EA
:102C8000D90D90077FE0A2E0E4331313F8122D7CF6
:102C9000484401F5D97800122D8640FB7800880859
:102CA00074801240617407122D9040F275E1959086
:102CB000077FE0F97A807B07120CA59010A8742793
:102CC000F0A37409122D9612300B7445F0A3740909
:102CD00012301E90079EE06401900792700B122D37
:102CE000181217FF908EDA8009122D181217FF9014
:102CF0008EDE7808121765908F1278081217C612A8
:102D00002DC4123DBA12180E900792122FF27413AE
:102D1000122E997402022BB8123EF378082274F630
:102D20001219B7122D72FA8AD97800122D8640FB3B
:102D300078008006122E0D123454E8C39940F51223
:102D40002E87122D8640FB7800800812405D7407A4
:102D5000123454E8C39940F375E1959010A8743388
:102D6000F0A37409122D96122DA07412122E99023E
:102D700036C79007A4E0F9740729F5D9900794E0C5
:102D8000C4333354C022880874952508F58274072B
:102D90001236B394062212317E742DF0A3740922E8
:102DA000123011F0A37445F0A37409123022122DD1
:102DB000C4123BF274FFF0A3F0A3F0A3F0900792CB
:102DC000122FF622900792122FEC240EF582E822A1
:102DD00074F61219B7122D724402F5D97800122D2B
:102DE0008640FB78008006122E0D123454E8C399F9
:102DF00040F575E1959010A8122E18F0A3122E1828
:102E0000122DA37414122E9974040236C988087402
:102E1000A52508F582740722743F122E25122E254F
:102E2000F0A3740922F0A37409F0A3743F2274F68E
:102E30001219B7122D72FA74064AF5D97800122DBC
:102E40008640FB78008006122E0D123454E8C39998
:102E500040F5122E87122D8640FB78008008124024
:102E60005D7407123454E8C39940F375E1959010EE
:102E7000A87439F0A37409123177122DA0741512B9
:102E80002E9974030236C99007C4E0F9740729F536
:102E9000D974044AF5D9780022F090044022C08207
:102EA000C0839007FB7425F09007F97401F0A3E448
:102EB000F07A01FB120CC99007E7122EE574D5F0E9
:102EC000A37409F09007F8E0640170169007F7E02A
:102ED00070107901120D29120CF9120D23790012CC
:102EE0000D35022C08122FEC2416F582E8123BF265
:102EF0002274F61219B774FA1219479007F0E064B9
:102F00000170081209B19007F0E4F075E1F1900743
:102F1000E7122FEC2415F582E8123B1F7401F090A4
:102F200007F2E064017053908EC4C08285188285D8
:102F30001983AC82AD8375838ED082740612185AC1
:102F400075D90D9007E9122D7F4403F5D9780088D3
:102F50000874EA1240617407122D9040F2780088DC
:102F600008851882851983E582124061E583122D58
:102F70009040EC75E195790180027900120CCF90B8
:102F800010A8746DF0A3740BF0A37473F0A3740B0A
:102F900012300212300212300B123017F0A3747983
:102FA000F0A3740B12301E9007E9E0F97AEA7B0770
:102FB000120C9F9007FBE0F91226777901120CD5CD
:102FC000908EE612181D120CED908F1612181D121D
:102FD0000CAB7900120D419007E7122FF274161214
:102FE0002E997405F00412195D0236CAE0F8A3E0C8
:102FF000C822122FF622122FEC2414F582E8123B7D
:10300000F622F0A3746DF0A3740B22123011F0A31A
:103010002212301522F0A37437F0A3740B22123061
:103020002222F09010B6123017123182123017128D
:103030003015F02274F41219B78908A808123ED886
:10304000900800E0F97A017B08120C9F90080EE0CE
:10305000701A7900120D0B90077FE07004790080E0
:103060000279017A807B07120CA580057901120D87
:103070000B75E1F175D923900800122D7F4405F5F9
:10308000D97800880A7401250AF5827408122D90F7
:1030900040F175D90075D90075D90075D90075D979
:1030A0000075D9007A00124327242212351840F601
:1030B0007A001243272426F582E912374B0AEAC325
:1030C000940340EEEE242B1237487A001243272453
:1030D0002C12351E40F67A00124327242E12351E7C
:1030E00040F67A00124327243012351E40F67A004B
:1030F000124327243212351E40F67A008A0AEE2542
:103100000AF8EF123BE212352A940540EFEE24371D
:10311000F582EF123E28541FF8EE242AF582EF12B2
:103120003E28C43354E048F5D975E1959010A87451
:103130003DF0A3740BF0A37443F0A3740B1231772A
:10314000F0A37449F0A3740B12301E90080DE0F93F
:10315000122677908EE612181D120CED908F161223
:10316000181D120CAB90600DE4F07901120D419026
:1031700004407406022BB812317E1230172212312D
:10318000822212318F7437F0A3740B12318F22F028
:10319000A37437F0A3740BF0A32274EC1219B79048
:1031A00007FE123EEF78101217FF90080FE0FAF8B2
:1031B00075F005A4C8ACF02CF9749E28F58274044F
:1031C00039F583E0FEA3E0FFEEC333FEEF33FF8E5D
:1031D0000CF50D750E00750F008510088511098519
:1031E000120A85130B908EDE780812176578081284
:1031F0001BC685100885110985120A85130B7808EE
:10320000790C1217527810790C1216ABE4F50EF502
:103210000F7808790C12178B8A0C750D00740378DF
:103220000C1219347808790C121752908F12780802
:103230001217C6AA08AB09AC0AAD0B12246D7404B0
:1032400012195D8A088B09A808A909C3EE98EF999D
:103250005006E82EF8E93FF9E890600EF0E9A3F097
:10326000EEA3F0EFA3F090600D74C1F07F0C021A92
:1032700089C082C0839007921232E5123B1FE4029C
:10328000288B74F71219B790046EE012402239F9B6
:10329000E82405FAE9124273A3A3A3A3A3A3A3A35B
:1032A000A3ECF0A3ED123E6CA3E024FFF8A3E034FE
:1032B000FFF98A828B83E8F0A3E9F0023757C082D6
:1032C000C0839007E71232DE9007FB022C03C08216
:1032D000C0839007FE1232DE90080D022C031232DA
:1032E000E512386222122FEC2406F582E822020150
:1032F0001F74F21219B712345BF50AEF12394060ED
:1033000004780480027800E8240EF8EAC398500399
:103310000233B875080C900819E4F0EE2476F582B3
:10332000EF123E2890081AF07902EE2477FCEF3471
:1033300000FD7A1B7B08120AB97902EE2479FCEFB2
:103340003400FD120AB97902EE247BFCEF3400FD53
:10335000120AB97902EE247DFCEF3400FD120AB99D
:10336000EE2474123471120AB9850A82850B83E047
:10337000601E7508197509087808121BCE7C0C7937
:1033800003EEFAEFFB120B2B740212195D75081095
:1033900074012508F5D975D90378008009880A7465
:1033A00019250A123450E8C3950840F175E1957962
:1033B00004120CF37901800279007F06021A8974E5
:1033C000F21219B712345BF508EF3400F5098508DD
:1033D00082F583E06004780480027800E8240AF82B
:1033E000EAC3984060750A089008197401F07905DD
:1033F0007C867D077A1A7B08120AB9EE2480123483
:1034000071120AB9850882850983E0601E75081962
:103410007509087808121BCE7C087903EEFAEFFBD9
:10342000120B2B740212195D750A0C1237CC800333
:1034300012344AE8C3950A40F775E1957904120CF5
:10344000F37901800279000233BA880874192508DB
:10345000F5827408123E2CF5D9082212345F22EA54
:10346000FEEBFF9061D0E0F87480C398FAEE2482FE
:1034700022FCEF3400FD8E828F83A3A3A3A3A312AB
:1034800043EA8C828D83E028F0A3E039F0790222B0
:1034900074F61219B7EAFEEBFF9061D0E070747514
:1034A000D91875D90375D9037A008A08EE25081250
:1034B000432C249B1235C140F17A008A08EE25087E
:1034C00012432C24A312351E40F17A008A08EE25FF
:1034D0000812432C24931235C140F17A008A08EE79
:1034E000250812432C248712351840F175E195798F
:1034F00008EE2493FAEF3400FB120ABF7904EE249D
:1035000087FAEF3400FB120ABF7904120CF312356C
:10351000CA800279000236CA123524940422123578
:1035200024940222F582E9123BF6E0F5D90AEAC3B7
:103530002274F61219B7EAFEEBFF9061D0E0707CBE
:1035400075D90E75D90375D9047A008A08EE250855
:1035500012432C248B1235C140F17A008A08EE25E3
:103560000812432C248312351840F175E19579082F
:10357000EE248BFAEF3400FB120ABF7904EE2483A9
:10358000FAEF3400FB120ABF7C008C82AA82C3E4EB
:103590009AF895E0F9EE28F8EF39F9E8248A123E16
:1035A00025C0E0EE2A12432C24AA123B1CD0E0F0E6
:1035B0000CECC3940840D31235CA8002790002365D
:1035C000CA12352494082275E195EE246FF582EF36
:1035D000123BF21243EAEE2471F582EF123BF2E85D
:1035E000F0A3E9F0790122C082C08375D90275D9B0
:1035F0000375D90575E195EA246FF582EB12360C57
:10360000EA2471F582EB1235DC022C083400F583D4
:103610001243EA2274F61219B7EAFEEBFF9008197A
:1036200074061236BD121BCE7C017903120B2B746B
:103630000212195D75D90675D90378001236A340B8
:10364000FB75E195900440E064087017EE246FF577
:1036500082EF12360CEE2471F582EF123B1FE8F078
:10366000A3E9F07901806374F61219B7EAFEEBFF63
:103670009061D0E07029900819740A1236BD121BAF
:10368000CE7C017903120B2B740212195D75D906D9
:1036900075D90378001236A340FB1235C780027932
:1036A000008027880874192508F58274081236B33B
:1036B000940522123BF6E0F5D908E8C322F075081C
:1036C000197509087808227401F07F02021A8974BA
:1036D000F61219B7EAFEEBFF9061D0E07041790174
:1036E000900819740B122E99E06407701975081967
:1036F0007509087808121BCE7C010909120B2B747E
:103700000212195D7905740129F5D975D90378007C
:10371000800312344AE8C39940F81235C780027911
:103720000080A774F71219B7EAFEEBFF75D903758D
:10373000D90375D90DEE24DD12374875E19579046A
:10374000120CF31235CA800FF582EF123E2CF5D918
:1037500022A2E092AF79007F01021A8974F5121952
:10376000B712386A6004780480027800E8240BF805
:10377000EAC3984052750A099008197408F0F912C2
:10378000384B120AB9850882850983E0601E7508E6
:10379000197509087808121BCE7C097903EEFAEF37
:1037A000FB120B2B740212195D750A0D1237CC80B7
:1037B0000312344AE8C3950A40F775E1957904127B
:1037C0000CF31235CA80027900023AC07401250A4E
:1037D000F5D975D90378002274F51219B712386A31
:1037E0006004780480027800E8240BF8EAC398406B
:1037F00055750A099008197409F0790812384B12A6
:103800000AB9850882850983E0601E750819750963
:10381000087808121BCE7C097903EEFAEFFB120B35
:103820002B740212195D750A0D1237CC8003123405
:103830004AE8C3950A40F775E1957904120CF31232
:103840003858790180027900023AC0EE24E4FCEF96
:103850003400FD7A1A7B0822EE241DF582EF12381F
:103860006222123BF6E4F0A3F02212345FF8EF126A
:103870003873223400F9880889098882F583E022A8
:1038800074F31219B78A088B091239D6FAE508249D
:1038900082F50AEB1239406004780480027800E86F
:1038A0002408F8EAC3985003023939750C069008C9
:1038B00019740CF090045DE090081AF07402C0E0F6
:1038C000F97C5E7D047A1B7B08120AB9D0E0F97C92
:1038D000607D04120AB9850A82850B83E0601E753B
:1038E0000A19750B08780A121BCE7C067903AA0800
:1038F000AB09120B2B740212195D750C0A740125A9
:103900000CF5D975D90378008009880A7419250A3D
:10391000123450E8C3950C40F175E1957904120C0E
:10392000F3E508246FF582E50912360CE5082471E9
:10393000F582E5091235DC800279007F05021A89DB
:103940003400F50B850A82F583E02274F61219B76C
:10395000EAFEEBFF1239D6FCEE2482F8EF123A5958
:1039600060047A0480027A00EA2404FAECC39A40E4
:10397000607A02900819EAF0EE24F6F582EF123927
:10398000E0601B7508197509087808121BCE7C02C7
:103990007903EEFA120B2B740212195D7A06740188
:1039A0002AF5D975D9037800800312344AE8C39AFE
:1039B00040F875E195EE2473124066EE247F1240C4
:1039C000661238587904120CF3EE240D1235CD80AE
:1039D0000279000236CA9061D0E0F87480C3982260
:1039E000123E2C90081AF088828983E02274F61225
:1039F00019B71239D6FEEA2482F8EB123A5960045C
:103A00007C0480027C00EC2404FCEEC39C40457CDA
:103A1000029008197407F0EA24F7F582EB1239E0F6
:103A200060177508197509087808121BCE790312FA
:103A30000B2B740212195D7C0674012CF5D975D913
:103A4000037800800312344AE8C39C40F875E1957E
:103A50007901800279000236CA3400F988828983AC
:103A6000E02274F51219B7E9FEA2AFE433F50AC2F9
:103A7000AF7F00EA246EF8EB3400F980010F8882F2
:103A80008983E0F508EFC3950850188F08EA2508E8
:103A9000FCEB3400FDEC246AF582ED123E286E70DA
:103AA000DC8017EA2508FAEB3400FBEA246AF58289
:103AB000EB123B1FEE1239E604F0E50AA2E092AFEA
:103AC0007F03021A8974F61219B7A2AFE433FFC25A
:103AD000AFEA246EF8EB124115E014F07E00801975
:103AE0008E08EA2508F8EB12432E246B123E25C0FF
:103AF000E0E8123B1AD0E0F00E8C828D83E0F8EE05
:103B0000C39840DCEA246DF582EB123B1F74FF1270
:103B10003B43EFA2E092AF0236CA246AF582E91273
:103B20003BF222C082C083E5A8F8C2AFEA246AF55E
:103B300082EB123B1FE9123B43E8A2E7A2E792AFF8
:103B4000022C08F0EA2469123B4B22F582EB123B6F
:103B5000F6E4F02274F21219B78C828D83A3A3A32A
:103B6000A3E0541FF0EA243612410B8E828F83E4C7
:103B7000F0F50C850C8285820AEC250AF8ED1238E6
:103B800073C0E0EA250AF8EB123BE2D0E0F0750DD5
:103B900000850882850983E0F50A750B00E50D783C
:103BA0000A121915E50AA2E05023E50C3333335409
:103BB000F8250DC0E08E828F83E0F8123DC52438D1
:103BC000123B1CD0E0F08E828F83E004F0050DE5FF
:103BD0000DC3940840BB050CE50CC394054094024A
:103BE00033BA3400F9E8245DF582E9123BF222F59C
:103BF00082EB123BF6223400F5832274F41219B7DB
:103C000090046CE064037003023DA87E00EEF8753A
:103C1000F005A4C8AAF02AF9747228F58274043950
:103C2000F583E06003023D9E747028FA740439FB4A
:103C30008A828B83A3A37401124381A3A3A3E4F01C
:103C4000EA2404F8EB12432EFCE9FDEE8C828D830E
:103C5000F0EA2462123DAF2467F582EB123B1F7439
:103C600001123DD7E4F0A3123DD7A3A3123DD22405
:103C70000F123DAF2435F582EB124069F508F509C6
:103C8000F50AF50BEA2418123DB712180EEA241CA7
:103C9000123DC0241D123DCE247F123DC02473125C
:103CA0003DC02468F582EB123B1F7480123B43EA4F
:103CB000246E123DC024EC123DC024ED123DC02400
:103CC000EE123DC024EF123DC024F0123DCE24F28E
:103CD000123DCE24F5123DC02482123DC024D212E2
:103CE0003DC024D3123DC024D4123DB712180EEAB1
:103CF00024D8123DB712180EEA24DE123DC024E08B
:103D0000123DC024DC123DC024E1123DC024E21269
:103D10003DC024F8123DCE24FA123DCE24FC123DC3
:103D2000CE24FEF582EB12385EFE8E08EA2508F8F6
:103D3000EB12432E123B1A74FFF00EEEC3940440B4
:103D4000E97E008E82A882748628F5827407123E6E
:103D500028C0E0123DC5245D123B1CD0E0F00EEE01
:103D6000C3940540DE7E008E82A882745428F582BA
:103D70007404123E28C0E0123DC524E4123B1CD05E
:103D8000E0F00EEEC3940840DE90046CE004F064B2
:103D90000170198C828D83E090046EF0800E0EEE1F
:103DA000C394035003023C0D7A007B00022BB9122E
:103DB0003BEF7401F0EA22F582EB123BF278082225
:103DC000123B4BEA22EA28F8EB3400F9E822123BD6
:103DD000EFE4F0A3F0EA22F08A828B83A3A3A3A3EB
:103DE000A322C082C083EA2403F582EB123E28603E
:103DF00008E4F090046DE014F090046CE014F070AE
:103E00000690046E74FFF08A828B83A3A3E4F09083
:103E1000078BE0700D90046DE0640170057900126D
:103E20000CBD022C08F582E9123E2C22123BF6E072
:103E300022C082C0837B00EBF875F005A4C8AAF00D
:103E40002AF9746C28F87404124033A3A3A3A3E4E2
:103E5000123E6CF00BEBC3940340DC90046CE4F076
:103E6000A3F0A374FFF075E1F1022C08F0888289B9
:103E700083A3A3A3A3A3A32274F51219B775080003
:103E8000750900750A00A80A123ED88E828F83A396
:103E9000A3A3E0602BE5084509601D85088285091C
:103EA00083123EEF121BE1123EEB12181D12241179
:103EB000740412195DE97008EEF8EFF988088909B1
:103EC000050AE50AC3940340BD850882850983A3DA
:103ED000A3A3A3E0F9023AC0E875F005A4C8AAF0CC
:103EE0002AF9747028FE740439FF228E828F83129F
:103EF0003EF322E0F8A3E0F5838882A3A32274F7BF
:103F00001219B778FF79FF7F00EFFC75F005A4CC9C
:103F1000AEF02EFD74702CFC74043DFD8C828D83FC
:103F2000A3A3A3E0603EEC2473F582ED123E28FECD
:103F300074FF68700374FF69700774016E701C80F1
:103F40000D74016E700DEC2479123F795016EC243B
:103F500079800BEC242E123F795009EC242EF58247
:103F6000ED12360C0FEFC39403409EC3EA98EB9911
:103F70004004E8FAE9FB023757F582ED123BF2C341
:103F8000E098A3E0992274F61219B7EAFEEBFFEE6F
:103F90002463F508EF3400F5098016AA08AB09126E
:103FA0000AAD12125790078CE004F090078DE004E0
:103FB000F08508828509831243DB70DFEEFAEFFBA0
:103FC000120A59EEFAEFFB120BB50236CA74F71259
:103FD00019B7EAFEEBFF8E828F83A3A3A3A3E0FAB7
:103FE0007B00120747EEFAEFFB120A71120B9702E1
:103FF0003757C082C0837B00EB124022124033E06F
:104000006014E8246E123E25600CE8246A123E25F6
:104010007004790180090BEBC3940340DB79000243
:104020002C08F875F005A4C8AAF02AF9747028F8CD
:1040300074042239F988828983A3A3A32274F61217
:1040400019B77800880874541240617404124069EA
:1040500008E8C3940840ED9004540236C7880874F9
:10406000C52508F58222F582EF123B4E2274F71225
:1040700019B774FC121947851882851983E4F0A3D7
:10408000F0A3F0A3F0120AC5E9851882851983F020
:10409000120AC57401121993E9F0120AC5740212CA
:1040A0001993E9F085188285198312181D7404127A
:1040B000195D02375774F61219B7EA240D12410B35
:1040C000EC2403F8ED3400F988088909EC2407F89A
:1040D000ED124115123610850882850983E0FAA396
:1040E000E0FB1218BC8E828F83E8F0A3E91243E153
:1040F000850882850983E0FAA3E0FB1218BC8B09CE
:10410000EA450960031241210236CAF8EB3400F98E
:10411000E8FEE9FF223400F9E8FCE9FD8C828D839A
:10412000228E828F83E02401F0A3E03400F0227419
:10413000F61219B7EA242EF582EB123E28FCA3E012
:10414000FDEA246F12410B780079FAECFAEDFB12CC
:1041500018BC8E828F83E8F0A3E9F0780079FAEC3E
:10416000FAEDFB1218BC8B09EA45096003124121E4
:104170000236CA74F01219B7EAFEEBFF7410121976
:104180009378081217FF120C6F8A0C8B0D8C0E8D12
:104190000F908EE2780C121765908F12780C121720
:1041A000C6780C121BC6123EEB12181D1224117495
:1041B0000412195DE9600302425B8E828F83E02462
:1041C00002F8A3E012432EFAE9FB8A828B83780877
:1041D000121778908F1278081217FF8A828B8378D3
:1041E000081217D9EE240BF582EF123B1FC082C0D4
:1041F000838E828F83A3A3A3A3A3E02401F8A3E06B
:104200003400F9D083D082E0687003A3E0697004C1
:1042100079018049EE2407F8EF3400F98882898318
:10422000124125EE24731242627014EE247412427D
:104230006B7003A3E06D70078A828B83124125EEB9
:10424000247F1242627014EE248012426B7003A32A
:10425000E06D70078A828B8312412579007F080206
:104260001A89F582EF123E2C640122FAEF12427392
:10427000E06C223400FB8A828B83E0FCA3E0FD88A3
:104280008289832274F31219B7E9FEECFFEA2462F3
:10429000F582EB12426560030243229061D0E0F5A3
:1042A00008EA2482F582EB123E28F50C60047804BB
:1042B000800278007480C39508FC95E0FDEF28F833
:1042C000E412432E2402F8E93400F9EC98ED99A2A7
:1042D000D265D0334048740D121993E0F50AA3E07B
:1042E000F50BE50C6015780A121BCEEFFCEEF91207
:1042F0000B2B740212195D74042FFF74012FF5D972
:104300008ED97800800C8808E50A124061E50B120E
:104310003454E8C39F40EF75E19579008006790732
:10432000800279FF02393B8A0AEE250AF8EF340051
:10433000F9E82274F71219B7A2AFE433F508C2AF57
:10434000EA2402F8EB3400F98A828B83E0FEA3E0D2
:10435000FFEE4F600E88828983E0FAA3E0F5838A3E
:104360008280048A828B83ECF0A3EDF088828983BB
:10437000124387F0E5080237518C828D83E8F0A361
:10438000E9F08A828B8322ECF0A3EDF08C828D839E
:10439000E4F0A32274F71219B7EAFCEBFD7A007B74
:1043A00000A2AFE433FEC2AF8C828D831243DB6088
:1043B00022E8FAE9FB8A828B83123610124379E4F1
:1043C000F0A31243E1E849700A8C828D83A3A3E431
:1043D000F0A3F0EEA2E092AF0237571243EAE849A9
:1043E00022F08C828D831243EA22E0F8A3E0F922C6
:1043F000C082C083800312441EE9F874FF281904A8
:1044000070F4ECFAEDFB022C08C082C0838003122A
:10441000441EE9F874FF28190470F4022C088C82F9
:104420008D83E08A828B83F08C828D83A3AC82ADF6
:10443000838A828B83A3AA82AB832274F41219B776
:10444000E990043FF0120C81907800E0C4540F54BE
:104450000764037004793F8002797F750806750947
:10446000007808121BCE7C2D7D047AEA7B0712119E
:10447000A9740212195D90042DE0F47049A3E0F4D0
:104480007044A3E0F4703FA3E0F4703AA3E0F4704A
:1044900035A3E0F4703090780EE090042DF0907821
:1044A0000FE090042EF0907810E090042FF09078B8
:1044B00011E0900430F0907812E0900431F09078A0
:1044C00013E0900432F0900433124621125D1F90E5
:1044D000045D7406F0A3740D124F577440F0A3747A
:1044E00001F0900795124621900794E4F090079B05
:1044F000F0A374A0124F577403F0A37407124F5720
:104500007428124F5704F0A3E4F09007C4F090070A
:10451000EA1246219007E9E4F09007F004124F57A1
:1045200012460FE4F0A304F0A3124F57124F55F0B8
:10453000900801124621900800E4F090080704F06A
:10454000A3E412460F124F55F0A37405F090081122
:1045500074FFF0A3E4F0900813F090081504F090B5
:1045600008167490F0A37401F012098112086D12FC
:104570000C2779017A187B08120ACB900818E0758D
:10458000F01484E5F004F0790C7A397B08120ACB38
:10459000120AE97A0090043FE0F9121017907803AC
:1045A000E064427055900818E014F0704DC2AF12EC
:1045B00045B200782AD0E0F618D0E0F6E59F54071F
:1045C00070057509FF800375097FC4C0E07829E68E
:1045D000F50808E65509F509740B7808121925D075
:1045E000E02508F8906270E0A2E740F8E8C3339055
:1045F0006272F0906270E0D2E0F090046AE4F0A39E
:10460000F07A80FB90043FE0F9120FBD024BC91213
:104610004618124618F0A322F0A37480F0A3740287
:104620002274FF124A3AF0A3F02274F41219B7EA86
:10463000FEEBFFEEA2E05040900441E0C39480E026
:10464000500FC333F8E433F974A828F5827410804E
:104650000EF4C333F8E433F974B628F582741039D4
:10466000F58312522A1219B57A0090043FE0F9122C
:104670001017EE64010248935408605990080F1215
:1046800048D57508007808121BD21248AB121925BC
:104690007808121BCEEA2430F582EB125755121B14
:1046A000E91248BC121BCE750880750907780812FC
:1046B0001BCE90077FE0FD7C008A828B83A3A3A39F
:1046C000A3E0FA7B007900120741740912195DEE2C
:1046D0006408024893EE5410604075080078081290
:1046E0001BD2E4F5097808121BCE7808121BCE788D
:1046F00008121BCE7508807509077808121BCE902A
:10470000077FE0FD7C007A007B007902120741748C
:104710000912195DEE6410024893EE540260387578
:1047200008007808121BD2E4F5097808121BCE782D
:1047300008121BCE7808121BCE7508807509077801
:1047400008121BCE12489F793C12074174091219B6
:104750005DEE6402024893EE5404606190046E12B0
:1047600048D5EA242AF582EB125A39F5087808125E
:104770001BD21248AB1219257808121BCEEA24204E
:10478000F582EB125755121BE91248BC121BCE756D
:1047900008807509077808121BCE90077FE0FD7C22
:1047A000018A828B83A3A3A3A3E0FA7B0079001282
:1047B0000741740912195DEE6404024893EE5440F7
:1047C00060387508007808121BD2E4F509780812E1
:1047D0001BCE7808121BCE7808121BCE7508807588
:1047E00009077808121BCE12489F793B12074174C3
:1047F0000912195DEE6440024893EE5480602F90D8
:104800000816124F4F4960217900121011900816B6
:104810001252157808121BC67A007B0190043FE003
:10482000F9121035740412195DEE64808065EF543E
:1048300001600C7901121011EEFAEF64018056EF5D
:104840005402600AC2AF75C9AB75C95B80FEEF54F4
:1048500004600A122685EEFAEF640480389004465C
:10486000E064017033EE5420602E900440E024F99F
:10487000600314701B793F90046EE0FA75F005A494
:10488000CAA8F028FB74702AFA74043BFB120A775A
:10489000EE6420FAEFFB80047A007B00024BC990A3
:1048A000077FE0FD7C017A007B0022EA2432F5825A
:1048B000EB12577012574A7404780822EA242EF536
:1048C00082EB125BF0F508A3E0C313F509E50813CA
:1048D000F508780822E0F875F005A4C8AAF0124897
:1048E000E2222AF9747028FA740439FB2274F61251
:1048F00019B7C3EA9411EB940050047A1080027A3D
:1049000020EA2408FAE43400FB1212518A088B09C9
:10491000A808A909E849600AE82404FAE93400FB78
:1049200080047A007B00024F6374F61219B7EA2400
:1049300005FAEB3400FB1212518A088B09A808A96A
:1049400009E849600AE82405FAE93400FB80047AA2
:10495000007B00024F63C082C083C2AF120C5DE5D2
:10496000E170FC75E10112095775E1F1120C991221
:10497000094B7907120D3B7901120D417902120C96
:10498000C3120CF9120D237900120D357901120DA5
:1049900035908F1612181D120CAB90077FE412464B
:1049A00023A3F090079BF0A3F0A3F090079F740758
:1049B000F090079E7403F09007A4E4F09007A3F032
:1049C0009007C4F09007F1F0900808F0120A5F1207
:1049D0000B91120A837900120D4790078674FF121B
:1049E0004A3A741FF0906012E4F0A3F0906063F014
:1049F000752100900440F090078BF090078C740CA8
:104A0000F090078DE4F090078E04F090078FE4F0AB
:104A100090079004F0900791E4F0900442F0A3F026
:104A2000900445F090044604F090045C7403F09008
:104A30000814E4F0D2AFF9025C1FF0A3F0A3F0A3D6
:104A4000F0A322C082C08390042DE08A828B83125F
:104A500050558A828B83A312504F8A828B83A3A3E3
:104A60001250498A828B83A3A3A31250438A828B5C
:104A700083A3A3A3A3F0900432E08A828B83A3A331
:104A8000A3A3A3025C1CC082C0838A828B83E090B4
:104A90000433124ABCE0900434124ABCA3E09004F0
:104AA00035124ABCA3A3E0900436124AC3E0900436
:104AB00037124AC3A3E0900438025C1CF08A828B50
:104AC00083A322F08A828B83A3A3A3A322C082C0E4
:104AD0008312098DE97005120CF97900025C1F74CC
:104AE000F71219B7EAFEEBFF890812098DE9702C5D
:104AF000E508600A74016508600A7912801E7C006E
:104B0000790080047C007901EEFAEFFB120CFFE9DA
:104B1000F8740368700479078002790002505B74AE
:104B2000F61219B7EA4B600EEC4D600A740A1219BE
:104B300093125C2670047912800F7808121BCE1233
:104B40000AE3740212195D7900024F6374F41219BA
:104B5000B7EAFEEBFF8908900440E064096014E0C6
:104B6000640A600FE0640B600AE0640C6005E064B6
:104B70000D7004790C801E120BBB8B0BEA450B7079
:104B80000BA908EEFAEFFB120ACB8009900442E071
:104B90004440F0790D803274F41219B7EAFEEBFF4D
:104BA000890BEE4F6003E970047912801C750A00CE
:104BB000120AC5850A08EE2508125752E9F0050ABF
:104BC000E50AC3950B40E979007F04021A89C08287
:104BD000C083E9F8740168700B9008147401F079CF
:104BE00000025C1FE87006900814E480F1791280DE
:104BF000F0F582EB125BF064012274F61219B7EA49
:104C0000FEEBFF8C088D09900440E0640C70059069
:104C1000618E80131208D3E9702F125D6374D82E51
:104C2000F58274043FF583E0F9748069700A8508A1
:104C300082850983747F800E900444E0F8E9C3986C
:104C4000850882850983F07900024F6374F7121991
:104C5000B7EAFEEBFF8908740565086028741365E0
:104C600008602274146508601C7415650860167469
:104C70001A6508601074296508600A743B6508604D
:104C800004791280411208D3E9703B125291241D1D
:104C9000F8EB3400F9EA24F6FCEB3400FDEA246971
:104CA000124BF17019EA246AF582EB125A39640248
:104CB0007004793A8010124CC9120A478006124CCF
:104CC000C9120A3B790002505B8C828D83E5081281
:104CD0004F5DE4F0A3F079022274E81219B78A0854
:104CE0008B098C0A8D0B8917EC450B6016E9C39470
:104CF0001C50107418121993E0F50C600B740165C8
:104D00000C60057912024F4A1208D3E96003024F82
:104D10004AA808E875F005A4C8AAF02AFA75F005B3
:104D2000E509A42AF9747028FE740439FF90078CF1
:104D3000E070057907024F4AE50A24FEF50AE50B03
:104D400034FFF50B850A82F583E517F0E50C700456
:104D5000740280027401A3F0E50A24FEFCE50B3422
:104D6000FFFDEE2463FAEF3400FB120AA790078CD4
:104D7000E01412524064086008E064076003024FC8
:104D80004890046EE065087002E5096003024F4830
:104D90007900EEFAEFFB12203E9061D0E070030242
:104DA0004F48900790E064016003024F48EE241DD5
:104DB000125752124F4F497003024F48A2AFE433CB
:104DC000F516C2AF120C758A088B09120C75EA65CC
:104DD000087003EB65097003024F42120BBB8A088F
:104DE0008B09120C6F8A0C8B0D8C0E8D0FE508242D
:104DF00002F514E5093400F5158A108B118C128D1B
:104E000013908F2678101217657810121BC6851420
:104E10008285158312181D122411740412195DE97C
:104E200064016003024F42EE242EF50AEF3400F5D0
:104E30000B850A82F583E0240612578D780C7910D1
:104E4000121752780C121BC685148285158312180E
:104E50001D122411740412195DE964016003024FEC
:104E600042E5082408F510E5093400F511851082A3
:104E7000F583121BE1AA0CAB0DAC0EAD0F12246D25
:104E8000740412195D850A82850B83121BE91223B3
:104E9000C0740212195D8A0C8B0D8C0E8D0F74106C
:104EA000780C12171AA80CA90D8E828F83A3A3A3C6
:104EB000A3A3A3A3A3A312521E8E828F831257BC57
:104EC000EA28FAEB39FB8E828F83A3A31257BC85A5
:104ED0001082851183C082C083850A82850B83E09E
:104EE000F510A3E0F511780C791012162BD083D0B1
:104EF00082780C121765908F12780C1217C68514E1
:104F000082851583E50CF0A3E50DF0A3E50EF0A373
:104F1000E50FF0850882850983A3A3A3A3A3A3E4D7
:104F2000F0A3F0EE2435125A36C0E0EE24341257C6
:104F300052D0E0F0EEFAEFFB121DABAA08AB09125B
:104F40000B9DE516A2E092AF79007F10021A89123C
:104F5000575EF9E8227425F0A3E4F0A322F08882DA
:104F60008983227F02021A8974F71219B7E9FE6059
:104F70000574016E70327409121993E0FF600574B4
:104F8000016F702412520C501FEC24FCF8ED1252E9
:104F9000115015C3EA9CEB9D400E740A121993E060
:104FA000F8600A740168600579120250419007F1B7
:104FB000E064017005790C025041EEA3F0E890071F
:104FC000F7F0EF9007E97027E4F090042DE09007E8
:104FD000EA1250559007EB12504F9007EC125049CF
:104FE0009007ED1250439007EEF0900432802E743B
:104FF00001F0900433E09007EAF0900434E0900769
:10500000EBF0900435E09007ECF0900436E0900768
:10501000EDF0900437E09007EEF0900438E0900750
:10502000EFF09007F31257C1A3ECF0A3EDF0E87096
:10503000047900800774016870057901120D057903
:10504000008018F0900431E022F0900430E022F06B
:1050500090042FE022F090042EE0227F01021A89B2
:1050600074F01219B7E9FEEAFF900440E064097099
:1050700003025170E0640A7003025170E0640B7027
:1050800003025170E0640C7003025170E0640D7013
:10509000030251709007F2E0F86008740168600341
:1050A0000252079007E9E0F86008740168600302A3
:1050B00052079007F312521E12520C40030252077D
:1050C000A3124F4F24FCFCE934FFFDC3EC94FDED2B
:1050D000943F4003025207C3EA98EB9950030252EF
:1050E00007EF600874016F6003025207EE607B14E3
:1050F00060030252079007F1E064016073790212C5
:105100000BAF9007E71257C19007F17401F09007B9
:10511000F0F0EF9007F8125240704A1209B7120CE3
:105120006F8A0C8B0D8C0E8D0F908F06780C1217DA
:1051300065908F12780C1217C69007E712522478E8
:105140000C12180E9007E71252329007F512521502
:10515000780C79081217529007E7125763780C12EF
:10516000180E120B977900025C179007F1E070049B
:10517000792180F3A2AFE433F508C2AF7AE77B0769
:10518000120BB59007F1E4F0120BCDE97046120C4A
:105190005D906182E0C2E6F0E5E170FC75E10175C9
:1051A00091BF7901120D4175E1F1900446E064016F
:1051B00070187A207B0090043FE0F91210417A20A9
:1051C0007B0090043FE0F9120FC37A0090043FE0A7
:1051D000F9121017E508A2E092AF9007F7E0F87413
:1051E00001687006120D23025165A3E0640160039B
:1051F000025165E86003025165120CF9120D237922
:1052000001120D2F0251657912025167EA24FCF850
:10521000EB12577F2212574AE4F50AF50B22E0FA07
:10522000A3E0FB2212522AA3A32212575EF5838821
:10523000822212575EC8240612576DE4F0A3F022B2
:10524000F0900440E02274F71219B7EAFEEBFF90E9
:105250000440E064076004790C80331208D3E970DD
:105260002D12529124DC124BF17010EA24F6F582D3
:10527000EB1257557406F07902800EEA24DDF582B0
:10528000EB1257557406F0790D120A3B7900025063
:105290005B125C0BEA2274E81219B774FB1219470F
:1052A00074031219931257C17401121993ECF0A3ED
:1052B000EDF0E9851882851983F07429121993E0BD
:1052C000FEA3E0FF742B12199312574A900808E0CE
:1052D000640170030254447904120BC1E964017043
:1052E00003025444900440E064097003025444E013
:1052F000640A7003025444E0640B7003025444E0F7
:10530000640C7003025444E0640D7003025444744E
:105310000312199312577540030254DB74011219DA
:105320009312577540030254DB7403121993C08221
:10533000C0837401121993125759D083D082C3E0ED
:1053400098A3E09950030254DB741E121993E0F500
:1053500016A3E0F517851882851983E060096401BA
:1053600060030254DB8009E516451770030254DB25
:10537000741D121993E06007640160030254DB742A
:1053800020121993E06007640160030254DBC3E557
:10539000089EE5099F50030254DB742112199312F1
:1053A000521EEA24FAF8EB125A2D40030254DB7421
:1053B000231219931257597423121993125A5C74B9
:1053C00023121993E024FAF8A3E0125A2D400302A5
:1053D00054DB7423121993C3E09AA3E09B50030299
:1053E00054DB74251219931257597425121993120C
:1053F0005A5C7425121993C3E094F4A3E09401401D
:10540000030254DB7427121993E0F514A3E0F51599
:10541000E51424F6F8E515125A2440030254DB790A
:1054200001120BC1E96401701190079EE0F860144D
:10543000740168600F740468600A7940120BC1E956
:105440006401700579210257427423121993E0FE1A
:10545000A3E0FFEEC333FEEF33FF85140C85150D7B
:105460007403780C121934F50EF50F742512199384
:1054700012578A8E088F09F50AF50B7810790812F1
:10548000162B780C79101215BC5050120A7DE96465
:10549000017005793A02574290046DE0602E7AFF60
:1054A0007BFF120A6B8A0A8B0B7403780A12192588
:1054B000125A3D403DC3EA9508EB95095022A808D1
:1054C000A9091218BC8B09EA45097026851882853E
:1054D0001983E07022E5164517701C7912025742B5
:1054E000EAF8EBF9AA08AB091218BC8B09EA4509DE
:1054F00060DA793B025742120A538A088B09AE08D8
:10550000AF09EE4F70057909025742EE2404F50801
:10551000EF3400F509850882F583E090080FF074F8
:1055200003121993125759900809125A5C74011208
:10553000199312575990080B125A5C8518828519D5
:1055400083E090080EF07A008A82A882125A62E004
:10555000C0E0125BF6245DF582E9125755D0E0F009
:105560000AEAC3940540E1EE245DFCEF3400FDEE51
:10557000FA120A4DEE2436125A36C39402500AEE3D
:10558000FAEFFB120A590254DB851682851783E075
:105590009007801257ADE09007811257A4E0900762
:1055A000821257A4A3E09007831257B6E0900784B5
:1055B0001257B6A3E0900785F07420121993E0907B
:1055C0000800F07420121993E0702590042DE090EB
:1055D000080112505590080212504F9008031250C3
:1055E00049900804125043900805F0900432802B33
:1055F000900433E0900801F0900434E0900802F049
:10560000900435E0900803F0900436E0900804F030
:10561000900437E0900805F0900438E0900806F018
:10562000741D121993E090077FF0120A89EE242668
:105630001257521218291208F7EE2422125752124A
:1056400018297423121993125759EE242EF582EF5C
:10565000125A59EE2432125752E514F0A3E515F010
:105660007425121993125759EE2430F582EF125A0D
:1056700059900810E0C0E0EE242A125752D0E0F012
:10568000EE242B1257527402F0120AC5E975F00C81
:1056900084E5F02405C0E0EE2437125752D0E0F044
:1056A00090080D7425F090046DE0C39402400579D4
:1056B00001120CBD7904120BAF9007FE1257C19076
:1056C0000808740112579B2416F582E81257557486
:1056D000DBF0A3740912579B2414F582E812575586
:1056E00074171252407059120C6F8A108B118C1261
:1056F0008D13908EEA7810121765908F1278101221
:1057000017C69007FE125224781012180E9007FE4A
:1057100012523290080BE0F50CA3E0F50D781079E9
:105720000C1217529007FE125763781012180E854C
:105730000882850983E0F91209BD1209C3120B978B
:105740007900740512195D024F4AE0F508A3E0F5EF
:105750000922F582EF1257702212575EF922E0F803
:10576000A3E02212575EC8240E12576D22F582E87C
:105770003400F58322E024FCF8A3E012577F2234A2
:10578000FFF9C3E894FDE9943F22E02401F510A35A
:10579000E03400F511E4F512F51322F09007FE1243
:1057A000575EC8221257A8221257ADA322F08516C1
:1057B00082851783A3221257A8A3A322A3A3A3A37E
:1057C000A3EAF0A3EBF022C082C083900808E06057
:1057D000087904120BC1E97004790C80379008082D
:1057E000E4F0120BCDE9702A900446E064017018D1
:1057F0007A207B0090043FE0F91210417A207B0070
:1058000090043FE0F9120FC37A0090043FE0F912D0
:1058100010177900025C1FC082C083C3EB940F5045
:1058200009C3EA9403EB9400400479128024EA75DA
:10583000F005A4CAA8F028F875F005EBA428FB74BD
:10584000732AF58274043BF583E0700479028002C8
:105850007900025C1F74E81219B78A088B0990045A
:1058600040E064086005790C025A0BEC24FAF8ED6C
:10587000125A2D40030259667418121993E0F51656
:10588000A3E0F517E51624FAF8E517125A2D4003A0
:10589000025966C3E5169CE5179D500302596674CC
:1058A0001A121993125759741A121993125A5C74D6
:1058B0001A121993C3E094F4A3E09401400302592F
:1058C00066741C121993E0FEA3E0FFEE24F6F8EFD5
:1058D000125A2440030259661208D3E96003025A9F
:1058E0000BE50875F005A4C508A8F028F875F005C3
:1058F000E509A428F50974702508F5147404350920
:10590000F515E514246EF582E515125A39600DE59A
:1059100014246AF582E515125A39600DE5142473D2
:10592000F582E515124BF47005793A025A0BE5162B
:10593000C333FAE51733FB8E0C8F0D7403780C120A
:105940001934F50EF50F741A12199312578A8A0832
:105950008B09F50AF50B7810790812162B780C795B
:10596000101215BC40057912025A0B90046DE0C369
:10597000940240317AFF7BFF120A6B8A0A8B0B7408
:1059800003780A121925125A3D5003025A20C3EA1D
:105990009508EB95095077A808A9091218BC8B093E
:1059A000EA4509707BE5142476F582E51512575512
:1059B0007402F0E5142477F582E515125755E4F0EA
:1059C000A3F0E5142430F582E515125A6DE5142490
:1059D00074125A55E5142479F582E515125755E5E8
:1059E00016F0A3E517F0741A121993125759E5141B
:1059F000247B125A55E514247DF582E515340012F6
:105A00005A4BAA14AB15120A3B7900024F4AEAF826
:105A1000EBF9AA08AB091218BC8B09EA45096085A5
:105A2000793B80E7125D509477E9940C22125D5027
:105A3000947BE9940C22F582EF125BF02290046DC6
:105A4000E0F8C3E50A98E50B940022F583EEF0A395
:105A5000EFF0790022F582E515125770E8F0A3E91E
:105A6000F022748628F582740712577022125BF0B8
:105A70002407F8A3E03400F92274F21219B7EAFE01
:105A8000EBFF8C088D09900440E064086005790CF8
:105A9000025BD6EC45096024740E121993E0F50CF4
:105AA000A3E0F50DE50C450D60127410121993E09A
:105AB000F50AA3E0F50BE50A450B70057912025BC8
:105AC000D61208D3E96003025BD6125D5CFE740453
:105AD0003FFFEE24E3125A3670207A008A82A882B1
:105AE000125BE5C0E0125BF624E4F582E91257553B
:105AF000D0E0F00AEAC3940840E2EE24E4125A36F9
:105B0000A2E040057911025BD67A008A82A882E57C
:105B10000828F582E509125A39C0E0125BF6249B89
:105B2000F582E9125755D0E0F00AEAC3940840DB49
:105B3000850C82850D83E0C0E0EE24A3125752D07D
