:020000040000FA
:0600000002010A02239830
:03002B00021D2D86
:03003300021D4E5D
:0300530002240E76
:03007B00021CEA7A
:10008300022247E5C754F84401F5C779012200006D
:100093000080FB120086B900030200F4E4792178A2
:1000A30008B800028004F709D8FCE479297802B87B
:1000B30000028004F709D8FCE49002817868790E85
:1000C3008002F0A3D8FCD9FA900FE8AA82AB839000
:1000D300013A781879028015E493A3AC82AD838A40
:1000E300828B83F0A3AA82AB838C828D83D8E9D9D8
:1000F300E775824A7583DA740312011C7582917560
:100103008300740012011C75D00075813F7518813E
:10011300751902759F00020096C09FF59FE473D086
:100123009F22D083D082C09FE493C0E0740193C028
:10013300E0740293F59F22FFFF01E803053F1002DD
:100143000A0000090500002105FFFF01484944207A
:1001530041647652656D6F7465FF00D9138D146D1C
:10016300159D159D150000000101FF00FF00CD073F
:10017300DF070908D307FF0000B4000028002800A8
:10018300283075A000A000A000A00000080008E02F
:1001930001F00010001000100010001000100050BB
:1001A300005000500010001000D0070000000000B5
:1001B300000F0001000500307507001000010081E9
:1001C300FF00000000FF02020208025000A000002E
:1001D30000E80302588F010000AD8E02528F010028
:1001E300007710024E8F010000030502528F0100B9
:1001F300007810024C8F010000190502528F010094
:10020300007910024A8F0100001B0502528F010082
:10021300007A1002488F0800001C0502528F01006B
:10022300007B1002468F0100007C10FFFFFFA10F2F
:10023300A10FA10FA10FA10FA10FA10FA10FA10F3B
:10024300A10FA10FA10FA10FED110B12E7111201C5
:10025300254E86031201255886031201259686032F
:10026300120125DF86031201251987031201257365
:1002730087031201259487031201259D8703120129
:1002830025EA87031201251388031201251D88031C
:100293001201258988031201251B89031201256593
:1002A30089031201259B8903120125278A03120161
:1002B30025688A031201259F8A03120125B18A0347
:1002C300120125D08A03120125D98A03120125A11F
:1002D3008B03120125ECD203120125F0D90312017D
:1002E3002572C503120125A8C503120125DEC50326
:1002F30012012529C70312012526D9031201253C22
:10030300D90312012546D90312012513A4031201AF
:100313002528A403120125DBA4031201251BA50331
:1003230012012534A5031201256FA503120125BC73
:10033300A503120125EEA50312012530A603120120
:10034300253BA803120125E3D3031201250CD40393
:100353001201253BD40312012553D4031201259521
:10036300D403120125FE95031201254096031201C1
:1003730025C29603120125D7960312012528970358
:100383001201256D97031201257C9703120125D7CE
:1003930097031201252698031201257C9803120165
:1003A30025719903120125689A03120125A59A0361
:1003B300120125B7D8031201257A5D00120125FB2E
:1003C3005F00120125D360001201256D6200120146
:1003D30025216300120125B463001201253964004D
:1003E3001201255E6400120125136800120125998C
:1003F3006800120125CC6900120125066A0012016A
:10040300253B6A00120125F86B001201252C6C00B4
:10041300120125896C00120125D26C0012012539C5
:100423006D00120125B26D00120125E16D0012016C
:1004330025F96D00120125426F00120125526F004C
:10044300120125707000120125927000120125C857
:100453007000120125777200120125047300120146
:10046300254373001201255C7400120125ED7F0002
:10047300120125A0DA03120125DFDA031201251583
:10048300DB0312012515D70312012525D70312011A
:10049300253DD703120125A5D703120125E97E00C7
:1004A3001201256E7F00120125D47F0012012574ED
:1004B300D60312012577D603120125B0D603120104
:1004C3002503D70312012548A8031201255CA803BD
:1004D300120125D6A803120125BAA90312012591F9
:1004E300AB031201256B9C02120125149E0212011B
:1004F30025599F021201255C9F021201255F9F026D
:10050300120125A0A20212012501A302120125B6A0
:10051300A502120125EDA50212012510A602120162
:100523002522A6021201256DA702120125F0A702BA
:100533001201252CA802120125D1A802120125C2FD
:10054300CA0312012514CB031201259ECB0312010A
:100553002505CC031201256CBD0312012596BD03AD
:1005630012012564BE031201253FBF03120125C6F4
:10057300BF0312012553D4021201251AD502120119
:100583002551D5021201257BD502120125DBD502A7
:1005930012012531D60212012596D6021201252E0B
:1005A300D7021201253DD802120125D4D902120126
:1005B3002561DA02120125C8DA02120125DFDA0207
:1005C300120125F9DB0212012537DC021201256332
:1005D300C703120125ADC703120125BDC7031201CD
:1005E3002516C8031201257DC803120125B8C803C7
:1005F300120125BAD00312012527D1031201253890
:10060300D10312012581D103120125B7D1031201B0
:1006130025B5B6031201250BB7031201252AB7032B
:100623001201257DB903120125B5B903120125DA9B
:10063300B903120125AFD703120125C4D703120151
:100643002548D80312012573D8031201259DD80329
:100653001201259FD803120125A1D803120125B247
:10066300D803120125B4D80312012590D90312012E
:1006730025DFFF02120125E1E302120125BDE40299
:10068300120125ACE502120125BDE502120125CEBA
:10069300E50212012518E602120125B5E70212014F
:1006A3002515E90212012545E90212012513EA0283
:1006B30012012573EA02120125FECD03120125144E
:1006C300CE0312012543CE0312012579CE03120175
:1006D3002590CE03120125C7CE031201251ACF039D
:1006E30012012531CF0312012548CF0312012568DA
:1006F300FF021201257FFF02120125CDFF02120125
:1007030025FDA80212012501AA021201252EAA0223
:1007130012012579AA02120125AEAA02120125B0FF
:10072300AA02120125D3AA02120125E2AB02120189
:1007330025A6AC021201258CAD0212012518AE02CA
:100743001201251BAE02120125A3AE021201250AD6
:10075300AF02120125A6AF0212012530B002120129
:10076300257FB0021201258CB0021201258FB00241
:10077300120125EFB0021201257EB102120125817B
:10078300B10212012527B20212012537B20212016A
:100793002567B20212012574B20212012577B20253
:1007A300120125F8B202120125E6B30212012598BF
:1007B300B402120125DEC002120125D6C1021201C4
:1007C300250AC2021201258CC202120125ACC20203
:1007D300120125F4C20212012547C302120125ABFF
:1007E300C30212012538C402120125F2C402120108
:1007F3002501C8021201258CC902120125AFC902C5
:10080300120125F6AB0312012593AD03120125F75F
:10081300AD0312012556AE0312012564AE03120186
:10082300258DAE03120125CF8B03120125F78B0310
:10083300120125258C031201255C8C03120125BAB4
:100843008C03120125058D03120125508D0312011E
:1008530025908D03120125D68D03120125048E03E5
:10086300120125C18E03120125CB8E03120125D857
:100873008E031201250B8F03120125D78F0312015B
:1008830025E38F03120125FB8F0312012505900336
:10089300120125839003120125DAD403120125E8FE
:1008A300D40312012500D50312012518D503120123
:1008B3002530D503120125CCE70112012578E80183
:1008C300120125F3E80112012514EA011201255052
:1008D300EA01120125F9EA01120125E0EB011201F7
:1008E3002544ED011201259BED011201251CEE01AA
:1008F3001201250CEF0112012559EF01120125DF29
:10090300EF0112012511F00112012525F201120157
:100913002567F20112012585F20112012527F30152
:10092300120125EFF301120125FCF501120125A1A6
:10093300AF03120125B7AF03120125DDAF03120187
:1009430025F9B00312012503B10312012538B203BF
:1009530012012530B30312012564CC031201259B38
:10096300CD0312012561A501120125DAA5011201AA
:1009730025EAA501120125D0A6011201250DA70123
:100983001201255DA70112012568A7011201255255
:10099300A80112012508A901120125EFAA011201DC
:1009A30025A8AC0112012584AD0112012538AE0141
:1009B30012012575B10112012523B20112012592FD
:1009C300B30112012512B501120125B9B5011201B6
:1009D3002502B60112012539B601120125D6B60149
:1009E30012012561B7011201250080021201257150
:1009F30080021201259E8002120125F58002120158
:100A0300259E8102120125A582021201256F830210
:100A1300120125CF8402120125128502120125B786
:100A23008502120125DD8502120125EB87021201E1
:100A330025F08702120125F58902120125428A0257
:100A4300120125B58A02120125E88A021201258ABC
:100A53008B02120125338C021201256B8C021201C9
:100A6300256E8C02120125B68C02120125F88C0228
:100A73001201254F8D02120125DEC203120125F159
:100A8300C203120125FFC20312012515C30312017C
:100A9300255CC30312012570C403120125FDC403A1
:100AA30012012548C503120125C6F102120125E5ED
:100AB300F1021201253DF20212012575F202120123
:100AC300259FF20212012561F702120125F6F702B2
:100AD3001201254AF80212012571F80212012500BC
:100AE30080031201250A8003120125AE800312013F
:100AF30025F180031201250C81031201259C81033A
:100B0300120125C48103120125FC8103120125333F
:100B13008203120125718203120125AB82031201A4
:100B230025CF8203120125988303120125AE830387
:100B3300120125C18303120125D683031201255C0B
:100B430084031201259684031201251185031201E2
:100B5300255D8503120125888503120125D18503AF
:100B6300120125FB8503120125268603120125D3D5
:100B7300D103120125D4C90112012502CA011201B0
:100B8300255DCB011201253DCC011201255CCC0171
:100B9300120125D9CC011201251CCD011201259783
:100BA300CE0112012506CF0112012531D101120117
:100BB30025B5D30112012566D4011201255CD501A7
:100BC300120125FCD501120125FAD6011201255483
:100BD300D801120125DFD80112012560CF031201CC
:100BE30025C9CF031201251DD0031201254CD003C3
:100BF3001201256DD003120125A69F0312012513AF
:100C0300A0031201255AA00312012572A1031201A8
:100C1300256EA20312012551A3031201259AF8029E
:100C2300120125DCF802120125B5F902120125AFE4
:100C3300FA0212012591FB02120125FAFB021201AD
:100C43002516FD0212012582FD0212012585FD02F2
:100C5300120125AEFD0212012528FE02120125CD47
:100C6300FE02120125E2FE0212012528FF021201F3
:100C73002541FF0212012544FF021201253AB30365
:100C830012012576B303120125B4B3031201257EA5
:100C9300B403120125EDB40312012528B503120193
:100CA3002566B50312012596B503120125BDB503CB
:100CB3001201252BB6031201256DB6031201250B74
:100CC3004400120125FA4500120125BD4800120116
:100CD30025F94800120125264900120125134A006F
:100CE300120125564A001201259D4A00120125AF23
:100CF3004A00120125EF4A001201251C4B00120184
:100D030025674B001201259E4B00120125CA4B009B
:100D13001201251C4C00120125A94C001201253893
:100D23004F00120125305000120125165200120106
:100D330025665200120125975700120125E7570037
:100D4300120125255800120125495A00120125FEDA
:100D53005B00120125495D0012012538C003120111
:100D630025AAC00312012500C10312012544C103B2
:100D730012012564C103120125B1C103120125F932
:100D8300C1031201254CC2031201259DC2031201A6
:100D930025DACA0212012559CB021201251BD10201
:100DA3001201252AD20212012592D302120125290A
:100DB300D402120125A82700120125F127001201F0
:100DC300251E280012012551280012012561280043
:100DD3001201256D28001201257E280012012565C8
:100DE3002900120125C32900120125F82900120147
:100DF300253B2B001201258E2B00120125DF2B0032
:100E03001201254A2C00120125EE2C00120125A007
:100E13002D00120125FE2D001201256E2E00120158
:100E230025C12E001201250430001201256A31006C
:100E33001201254132001201255232001201258E82
:100E430032001201259E3200120125BE320012012A
:100E530025C132001201258F3300120125603400B1
:100E6300120125013500120125B73500120125E4D1
:100E730035001201253736001201259F3600120175
:100E830025F336001201252C3700120125A837005F
:100E93001201255038001201251B3900120125BD0E
:100EA3003900120125323A00120125953A00120148
:100EB30025F33A00120125243B00120125CB3B0008
:100EC300120125B23D00120125013E001201254801
:100ED3003E00120125CE3E00120125563F001201AD
:100EE300259D3F00120125C23F001201250D400040
:100EF3001201253D4000120125854000120125FF06
:100F03004000120125434100120125544200120101
:100F130025034300120125644300120125C0430049
:100F2300120125D9430012012515F6011201256886
:100F3300F60112012574F60112012549F701120188
:100F43002570F701120125ABF70112012517F801EE
:100F530012012553F8011201258CF801120125A471
:100F6300F801120125F9F80112012512F901120104
:100F7300255BF9011201256EF90112012588F9019A
:100F83001201259EF901120125D1FA01120125183A
:100F9300FC011201251AFD0112012514FE011201A3
:100FA300259D27001201250B91031201257A940335
:100FB300120125B3950312012509B5021201257FFC
:100FC300B70212012585B702120125EDB9021201FC
:100FD3002554BC02120125DD9A03120125739B03DC
:100FE3001201252A9C03120125549C031201254753
:100FF3009E031201256F9F031201255D8F011201CC
:1010030025918F01120125B69B011201250A9D012D
:10101300120125159E01120125959F0112012577C5
:10102300A001120125B1A001120125D4A0011201D2
:101033002516A10112012560A1011201256AA10152
:1010430012012514A201120125EDA201120125416D
:10105300A301120125A3A301120125F6A301120185
:101063002525A40112012562A4011201253EB80120
:10107300120125AABB01120125B0BB0112012536BD
:10108300C101120125AFC50112012585C901120154
:10109300251ABA0312012590BA03120125A6BA0331
:1010A300120125E7BA0312012521BB031201259A78
:1010B300BB03120125D5BB0312012548BC03120152
:1010C3002586BC031201258FBC031201259BBC039B
:1010D300120125B7BC03120125E2BC03120125F856
:1010E300BC031201253CBD03120125EFEA021201E4
:1010F3002502EB021201251CEB0212012545EB022E
:1011030012012588EB02120125C7EB021201250506
:10111300EC021201256AEC021201257FEC02120196
:10112300258AEC0212012597EC02120125AEEC028E
:10113300120125BCEC02120125CBEC02120125E0C1
:10114300EC02120125F5EC0212012500ED02120159
:10115300250CED0212012519ED021201252CED02D9
:1011630012012537ED021201255CED021201250360
:10117300EE0212012518EE021201252DEE021201D4
:101183002547EE0212012562EE021201257FEE02CF
:101193001201258AEE0212012546EF0212012532C1
:1011A300F00212012557F00212012562F00212012A
:1011B3002577F0021201258BF002120125ECF002D3
:1011C300120125F2F002120125F8F002120125FEA8
:1011D300F00212012516F10212012549F102120152
:1011E30025937400120125B574001201259575002D
:1011F3001201256C7800120125987900120125BC93
:101203007A001201256E7B001201250F7C0012016A
:1012130025418E02120125C58E02120125748F020B
:10122300120125D39002120125F49202120125E046
:10123300930212012515940212012537940212011B
:1012430025E69402120125DE960212012507970274
:10125300120125999702120125CB9702120125D875
:1012630097021201252F98021201255598021201A7
:1012730025C29A02120125C59B021201251D9C025B
:1012830012012560D9011201256ADA0112012551E3
:10129300DB011201255BDB011201257DDB0112015C
:1012A3002589DB0112012522DD0112012551DD0112
:1012B3001201256DDE01120125C6DE011201252C66
:1012C300E0011201250BE10112012567E101120181
:1012D30025D4E1011201250FE2011201254EE2019D
:1012E30012012507E50112012521E501120125ADB2
:1012F300E501120125BBE50112012514E6011201E6
:101303002522E60112012595E601120125F9E601E0
:1013130012012543E7011201251DC90312012542CC
:10132300C903120125B4C90312012595DC02120178
:10133300259EDC02120125A7DC021201257EDD02B7
:101343001201252FDF0212012565DF021201259FFD
:10135300DF02120125D5DF021201250FE00212017F
:101363002543E0021201256FE002120125B8E002D5
:10137300120125F2E0021201253BE102120125933D
:10138300E102120125C8E10212012523E202120142
:10139300255DE202120125AEE202120125E4E2021A
:1013A3001201251EE30212012541E302120125C9A0
:1013B300D503120125F5D50312012550D6031201D9
:1013C300255AD6031201256AD603120125E9DA0349
:1013D300120125DFFF011201000200000020510469
:1013E300B41600010102030109025400030100A025
:1013F3001909040000010301010009211101000181
:10140300223F000705810308000A090401000103C4
:10141300000000092111010001226D00070582036C
:101423000C000A0904030001030102000921110150
:101433000001223400070584030F000A0403090492
:101443002403540065007800610073002000490004
:101453006E0073007400720075006D0065006E000D
:10146300740073001E035500530042002000430024
:1014730043003200350034003000200048004900AA
:101483004400080330003000310005010906A101C2
:1014930095087501050719E029E715002501810263
:1014A300950175088101950575010508190129053F
:1014B30091029501750391019506750805071900B9
:1014C3002965150025658100C0050C0901A10109E5
:1014D30002A10205091901290A1501250A750495B6
:1014E300018100C0050C098615FF250175029501D0
:1014F300814609E909EA150075019502810209E2AD
:1015030009300983098109CD094009B209B309B436
:1015130009B509B609B71501250C750495018100B4
:101523000980A10205091901290315012503750283
:101533008100C08103C005010902A1010901A100C5
:101543000509190129031500250175019503810278
:1015530075059501810105010930093109381581A6
:10156300257F750895038106C0C0220000008D14F5
:101573003F0022000001CC146D0022000003391546
:10158300340021000000FD1309002100000116149E
:101593000900210000032F140900F41300000D14A7
:1015A300000026140000E066701008A3E066700ACD
:1015B30008A3E066700408A3E06622C3E79608095F
:1015C300E7960809E7960809E79622C3E09608A379
:1015D300E09608A3E09608A3E09622C008C3E0962D
:1015E300F50808A3E096420808A3E096420808A37A
:1015F300E09645087001D3D00822BB0102E722C060
:1016030082C08389828A83BB0003E08002E493D093
:1016130083D08222BB000EC082C0838A838982F07A
:10162300D083D08222BB0101F722080808EAC0E078
:10163300EBC0E086F0E7A4FA180986F0E7A42AFADB
:10164300180986F0E7A42AFA180986F0E7A42AFA0B
:101653001986F0E7A4FBE5F02AFA190886F0E7A457
:101663002BFBE5F03AFA190886F0E7A42BFBE5F02B
:101673003AFA18180986F0E7A4C5F02BFBE43AFA06
:101683001908E7C5F0C6A426F6E5F03BFBE43AFAF1
:101693001886F0E7A4F6E5F00826F6E43B08F6E43E
:1016A3003A08F6D0E0FBD0E0FA22E4CFC0E0E4CE83
:1016B300C0E0E4CDC0E0E4CCC0E075F020C3E63385
:1016C300F608E633F608E633F608E633F618181894
:1016D300EC33FCED33FDEE33FEEF33FFC3EC970940
:1016E300ED9709EE9709EF97191919400FFFEC973A
:1016F300FC09ED97FD09EE97FE191906D5F0BEEC2E
:10170300F709EDF709EEF709EFF7191919D0E0FC1E
:10171300D0E0FDD0E0FED0E0FF226016080808C646
:10172300C313C618C613C618C613C618C613C6D520
:10173300E0EA227009080808226016181818C6C3C0
:1017430033C608C633C608C633C608C633C6D5E093
:10175300EA22E627F60809E637F60809E637F60827
:1017630009E637F622E026F608A3E036F608A3E0FA
:1017730036F608A3E036F622E026F008A3E036F0BA
:1017830008A3E036F008A3E036F022C3E697F60894
:1017930009E697F60809E697F60809E697F622C3DD
:1017A300E096F008A3E096F008A3E096F008A3E023
:1017B30096F022E657F60809E657F60809E657F6C3
:1017C3000809E657F622E056F608A3E056F608A302
:1017D300E056F608A3E056F622E056F008A3E056DA
:1017E300F008A3E056F008A3E056F022E066F608FE
:1017F300A3E066F608A3E066F608A3E066F622E037
:10180300F608A3E0F608A3E0F608A3E0F622E6F064
:1018130008A3E6F008A3E6F008A3E6F022E0FAA3A3
:10182300E0FBA3E0FCA3E0FD22EAF0A3EBF0A3ECD2
:10183300F0A3EDF022CAC0E0E6F0A308DAFAD0E0A4
:10184300FA22CAC0E0E0A3C582CCC582C583CDC558
:1018530083F0A3C582CCC582C583CDC583DAE6D028
:10186300E0CA22C3E498F8E499F91218A78026C3C2
:10187300E49AFAE49BFBE920E7E91218A7E498F855
:10188300E499F922C3E498F8E499F91218A7E498C3
:10189300F8E499F9C3E49AFAE49BFB22EB20E7CF3F
:1018A300E920E7E0B90010BB0008E88AF084F8AA51
:1018B300F022E4FBC8FA22EB70227B10C833C8C9BC
:1018C30033C9335007C39AC3DBF280069A50012A07
:1018D300DBEAC833F4C8C933F4C9FA2275F008E463
:1018E300C833C8C933C933C99AC99B5004C92AC963
:1018F3003BD5F0ECFBC833F4C8E4C9FA22600D0809
:10190300C6A2E713C618C613C6D5E0F322600C08B7
:10191300C6C313C618C613C6D5E0F42270042260EA
:101923000D18C6C333C608C633C6D5E0F41822253E
:101933001810AF08F518400215198008F518400271
:101943001519D2AF22C0D0251810AF08F5185002D0
:1019530005198008F51850020519D2AFD0D02225F9
:1019630018F58210AF08F518400215198008F5180C
:1019730040021519D2AF851983222518F582E43563
:1019830019F58322E4732518C582C0E0E51934FFF5
:10199300C583C0E0E518C3958224F810AF0885839A
:1019A300198582188008858319858218D2AFCEF0F5
:1019B300A3E520F0A37808E608F0A3DEFAEFF0A38E
:1019C300E58124FAF8E608F0A3E608F0A3E608F0B8
:1019D300A30808E608F0A3E608F0A315811581D053
:1019E300E0FED0E0F8158115811581E8C0E0EEC076
:1019F300E0222518C582C0E0E51934FFC583C0E0A5
:101A0300E518C3958224F910AF08858319858218D8
:101A13008008858319858218D2AFCEF0A3E520F024
:101A2300A37808E608F0A3DEFAEFF0A3E58124FB30
:101A3300F8E608F0A3E608F0A30808E608F0A3E632
:101A430008F0A315811581D0E0FED0E0F8158115CB
:101A530081E8C0E0EEC0E022851983851882E0A307
:101A6300FEE0A3F5207808E0A3F608DFFAE0A3FF81
:101A7300E0A3C0E0E0A3C0E0E0A3C0E0E0A3C0E0D7
:101A8300E0A3C0E010AF088582188583198008851C
:101A93008218858319D2AFD083D08202012285199F
:101AA30083851882E0A3FEE0A3F5207808E0A3F67F
:101AB30008DFFAE0A3FFE0A3C0E0E0A3C0E0E0A3F7
:101AC300C0E0E0A3C0E010AF0885821885831980C9
:101AD30008858218858319D2AFD083D08222C0D0E3
:101AE3002518C582C0E0E51934FFC583C0E0E518B9
:101AF300C3958224F310AF08858319858218800863
:101B0300858319858218D2AFC8F0A3E9F0A3EAF060
:101B1300A3EBF0A37908E709F0A3D8FAECF0A3ED5F
:101B2300F0A3EEF0A3EFF0A3D0E0F0A3D0E0F0A396
:101B3300D0E0F0A3E520F0A3E5F0F0A3228519831C
:101B4300851882E0C0E0A3E0F9A3E0FAA3E0FBA3D9
:101B53007808E0F608A3DFFAE0FCA3E0FDA3E0FECB
:101B6300A3E0FFA3E0C0E0A3E0C0E0A3E0F5D0A3BF
:101B7300E0F520A3E0A3F5F010AF08858319858273
:101B8300188008858319858218D2AFD082D083D07C
:101B9300E0F8D0E0327404800A7403800674028093
:101BA300027401C0E0F404121962D0E01218382262
:101BB300740480087403800474028000CCC0E0EDD8
:101BC300C0E0E518C39CCCAD1950011D10AF068CC5
:101BD300188D1980068C188D19D2AF121845D0E0D4
:101BE300FDD0E0FC22D083D082E9C0E0E493A3C31C
:101BF30086F0C5F095F0F908E493A386F0C5F09557
:101C0300F0700BE493A3C3994005E9048002A3E4B5
:101C130075F002A42582F582E5F03583F583D0E0E3
:101C2300F9E493A3C0E0E493C0E022D083D082EC34
:101C3300C0E0EDC0E0E493A3FCE493A3FDED4C60AE
:101C43000D121C7AEC24FFFCED34FFFD80EFE493CE
:101C5300A3FCE493A3FDED4C600D121CB9EC24FF2F
:101C6300FCED34FFFD80EFD0E0FDD0E0FCE493A376
:101C7300C0E0E493C0E022C0E0C3E493960874019B
:101C8300939618400FE493667008087401936618DE
:101C930070007019A3A3C3E4939608740193961874
:101CA300A3A3400DD0E0D0E0D0E0021C6AA3A3A31D
:101CB300A3A3A3D0E022C0E0C0F088F0E493667051
:101CC300080874019366187000A8F0A3A3700BD0E2
:101CD300F0D0E0D0E0D0E0021C6AA3A3D0F0D0E0C3
:101CE30022C2AF02000022C0E074F2121AE1A2AFD6
:101CF300E433FED2AFE58AA2E250079003C7E0D2F5
:101D0300E0F0E58AA2E350079003C7E0D2E1F07563
:101D13008A00C2EB7A107B009003C3E0F91202AB96
:101D2300EEA2E092AF7F01021B40C0E0C0D0E8C04A
:101D3300E0E9C0E0E5A8D2AFC2C7A2E7A2E792AF4D
:101D4300D0E0F9D0E0F8D0D0D0E032C0E074ED12AA
:101D53001AE1A2AFE433FCD2AF7480659E70FA90AF
:101D6300620F7403F0E0A2E750FB906206E0F50A0D
:101D73007406550A7006E58BA2E55045E50AA2E212
:101D830050339004CBE0F8A3E0E890620B121E21DD
:101D930074047808121910E508906207121E217462
:101DA300097808121910E508543E906209F0906210
:101DB30001E0D2E0F0E50AD2E1F50A9004CDE48037
:101DC30017E50AA2E0501290620FE0C2E1F0E0A230
:101DD300E740FB9004CD7401F0906202E0F50C90B3
:101DE3006204E0F508750D007404780C12191FE500
:101DF3000A450CFA7509007409780812191FEAF8E4
:101E0300E50D4509F99004C9E048F0A3E049F075F0
:101E13008B00C2E8ECA2E092AF7F06021B40F09079
:101E230004CBE0F508A3E0F5092274F51219F5EAED
:101E3300FEEBFFEE2434F8EF3400F988088909EE4D
:101E43002435121F59F8EE2437121F59F50AEC8571
:101E53000AF0A4FCAAF0850AF0EDA42AFDE82CF808
:101E6300E43DF97A257B001218A7EA8508828509E3
:101E730083F074075AF87401B800028004C333D89E
:101E8300FCFBEA131313541FF8EE28F8EF3400F9A0
:101E9300E8245DF582E9121F5C5B6003EA801CEEB7
:101EA3002436121F59F5F0EA84A8F0EE28F8EF342F
:101EB30000F9E82438F582E9121F5CF97F04021A5D
:101EC300A174F51219F5EAFEEBFFEE2434121F5943
:101ED300C0E0EE2435F582EF3400F583D0E0F08ED8
:101EE300828F83A3A3A3A3A3E0FAA3E0FB8E828F35
:101EF30083A3A3A3A3A3A3A3E0FCA3E0FDECC39A42
:101F0300F50AED9BF50BEE247FF508EF3400F50998
:101F1300850882F583E06401702BEE2480F582EF5F
:101F23003400F583121BBB121F627402121948E9B5
:101F330060137CD97D09EEFAEFFB120EB785088298
:101F4300850983E4F0AC0AAD0BEEFAEFFB121E2D0C
:101F530012278F021EBFF582EF3400F583E022C003
:101F630082C083851882851983E0F8A3E0F9C3EA68
:101F73009CEB9D5010C3EC98ED99401BC3EA98EB82
:101F8300995014800EC3EA98EB994007C3EC98ED7F
:101F9300994004790180027900D083D08222EAC378
:101FA3009CFAEB9DFB2274ED1219F5900693E06405
:101FB300086005E06407702C9061C8E06026900615
:101FC300C1E0F874FF68601CE875F005A4C8AAF0C6
:101FD3002AF974C328FE740639FF8E828F83A3A364
:101FE300A3E070057900022152EE2468F510EF3466
:101FF30000F511906060E0851082851183F075080B
:102003006C75090A750A00750B00E5D914F50EE520
:10201300D95403F50F601CEE2482F50CEF3400F560
:102023000D7403650F6058E50E6013EE2467121FED
:1020330059700B793DEEFAEFFB120EE180A6900A80
:1020430067E064016026850C82850D83E060047877
:102053000480027800850E0AE50AC398FA95E0FB2E
:10206300120CD18A0A8B0BEA450B70061211C302BC
:102073001FE7850C82850D83E070048A088B09783D
:10208300008016E5D9C0E08812E5082512F582E53F
:10209300093400F583D0E0F008E8C3950E40E485E9
:1020A3000C82850D83E0602874FC250EF50E7808FC
:1020B300121BA0AC0EA90FEEFAEFFB120F9B7402DA
:1020C300121948E9700AAA0AAB0B12054502203619
:1020D3007403650F6058850E0C750D00780C121B88
:1020E300A0AC08AD09AA0AAB0B120F5F7402121958
:1020F30048851082851183E0F87480687005750C3B
:102103007F8002880CE50CF5087808121BA4E50F04
:10211300F5087808121BA4A90EAC0AAD0B9006C1F2
:10212300E0FA7B00120B6F7402121948801C9006B0
:1021330093E06408AC08AD097009EEFAEFFB120FE7
:10214300CB8007EEFAEFFB12107F1211CF79017FDC
:102153000C021AA174F31219F574FC121932EAFE77
:10216300EBFF8908A2AFE433F509C2AFEE2463F5B0
:102173000AEF3400F50B8010AA0AAB0B120F1712EB
:1021830005459009E0E004F0850A82850B83E0F8B9
:10219300A3E0F9E849602FE82402FAE93400FBEAF6
:1021A3002402F50CEB3400F50D780C121BA08A8287
:1021B3008B83E0FCA3E0F9EEFAEFFB120F0B740242
:1021C300121948E960B29009E0E060579009E1E034
:1021D300F89009E0E0C398500C74026508704490CD
:1021E30009E2E0603E8E828F83A3A3A3A3E0851858
:1021F30082851983122236740212197DE81222365F
:102203009009DFE028F0740212197DAC82AD83855A
:102213001882851983AA82AB837901120B7B9009FB
:10222300E0E4F0E509A2E092AF74041219487F06D6
:10223300021AA1F0A3E4F09009E0E0F822852187D7
:102243008522C622C0E074EF121AE1A2AFE433FE86
:10225300C2AF759B00906182E0A2E05012E591A2AB
:10226300E0500C7591FE740165217003121FA9E003
:10227300A2E55051E591A2E5504B7591DF9006938D
:10228300E064076005E0640870237401652170351C
:1022930079019006C1E0FA75F005A4CAA8F028FBFD
:1022A30074C32AFA74063BFB1221578018E0640DAD
:1022B30070139006B5E004F064287002E4F07A002D
:1022C300E0F91211D5906182E0A2E6400302236E89
:1022D300E591A2E6400302236E7591BF900693E059
:1022E300640570081210C11210CD80031210C77557
:1022F3002100121145E9900694F07900121127127A
:102303000DD97A017B00900692E0F91202AB907826
:1023130003E064427055900A6BE014F0704DC2AF55
:1023230012232600782AD0E0F618D0E0F6E59F5471
:102333000770057509FF800375097FC4C0E078291C
:10234300E6F50808E65509F509740B780812191023
:10235300D0E02508F8906270E0A2E740F8E8C333C4
:10236300906272F0906270E0D2E0F0906181E0A23E
:10237300E35009E5E9A2E3500375E9F7A3E0A2E717
:102383005009E591A2E7500375917FEEA2E092AF69
:102393007F04021B40C0E0C0D0C082C08390618331
:1023A300E0A2E05009E5BFA2E0500375BFFEE0A242
:1023B300E15009E5BFA2E1500375BFFDE0A2E25081
:1023C30009E5BFA2E2500375BFFBE0A2E35009E5B4
:1023D300BFA2E3500375BFF7E0A2E45009E5BFA233
:1023E300E4500375BFEFE0A2E55009E5BFA2E55055
:1023F3000375BFDFE0A2E65009E5BFA2E65003750F
:10240300BFBFD083D082D0D0D0E032C0E074F2120C
:102413001AE1E5A7A2E4500FE5A1A2E4500953A7EE
:10242300EF75A1EF122462E5A7A2E5500CE5A1A286
:10243300E5500653A7DF75A1DFE5A7A2E15009E543
:10244300A1A2E1500375A1FDE5A7A2E2500CE5A10D
:10245300A2E2500653A7FB75A1FB7F01021B407448
:10246300F81219F5752101900693E0640670077A56
:10247300007B001210A9A2AFE433FED2AF900699FD
:10248300E0640170187A207B00900692E0F9120351
:102493002F7A207B00900692E0F91202B1906182BC
:1024A300E0D2E6F0900A68E0602185C622801690AB
:1024B3000698E064017008E5C654F84405F5C65370
:1024C300BEFC1222407401652160E4EEA2E092AFEB
:1024D3007F01021AA18E238F248582288583278575
:1024E3001882851983E0CEA3E0CF852882852783D0
:1024F300EBC9EAC8EDCBECCA75F010C3E833C8E901
:1025030033C9EA33CAEB33CBC3EA9EF526EB9FF517
:1025130025B35004AB25AA26EC33CCED33CDD5F04F
:10252300DAAE23AF242274F11219F58A088B098CD1
:102533000A8D0B908F1A78081217C9740F12197D20
:10254300780C121802908F1A780C1217C978087930
:102553000C1215BE908EFE50107808790C12178E4F
:1025630078081215DE4014800E780C790812178E45
:10257300780C1215DE50047901800279007F08027D
:102583001AA174ED1219F58A088B098C0A8D0B9028
:102593008F1A78081217C9741312197D780C121840
:1025A30002908F1A780C1217C9780C79081215BE8D
:1025B30040117808790C12178EAA08AB09AC0AAD42
:1025C3000B802275100075110075120075130178C8
:1025D30010790C12178E78107908121755AA10ABC0
:1025E30011AC12AD137F0C021AA1908F1A78081246
:1025F30018028A828B8378081217DC7F04021AA1DF
:1026030074F51219F58C828D8378081218028A8268
:102613008B8378081217A2122657C3E098F0A3E021
:1026230099122649401E908EFA78081218028A825F
:102633008B83780812177B8E828F83E02420F0A38C
:10264300E0344EF080A4F08E828F83C3E09420A305
:10265300E0944E22EA2404F8EB3400F9E8FEE9FFA3
:102663008C828D83A3A3A3A3E0F8A3E0F98E828FCA
:10267300832274F51219F5E9FE9009F4E0FAA3E058
:10268300FBEEC333F8E433F9749D28F582748E3975
:10269300F583E02AF508A3E03BF5097808121BA0AF
:1026A300908F0E1218201224D874021219488A0827
:1026B3008B098C0A8D0B7410780812171DAA08ABAE
:1026C300097F04021AA174F11219F58A0C8B0D8C7F
:1026D3000E8D0F740F12197DE0FAA3E0FB74111233
:1026E300197DE0F508A3E0F5097808121BA0EA2498
:1026F30001F508EB3400F509E4F50AF50B780C79DC
:102703000812162D908F127808121802780C790887
:1027130012162DAA0CAB0DAC0EAD0F1224D87402F9
:102723001219488B09EA450960047A0180027A008C
:10273300EC2AFCED3400FD741312197DE0F8A3E0DC
:10274300F9E8FEE9FFECF8EDF97A717B021218A7BC
:1027530088088909E4F50AF50B8E828F83780812BD
:102763001811ECF8EDF97A717B021218A78A088B1D
:10277300097405780812191F8E828F83A3A3A3A35C
:10278300E508F0A3E509F07F08021AA1C082C0831F
:10279300E9906000F0D083D08222020122FFFFFF84
:1027A300FFFFFFFFFFC082C0839061907404F0A31A
:1027B3007448F0A3E4F09061807440F09061BC74BD
:1027C30007F09061877469F09061B67416F0790030
:1027D300120DDF7902120DE59027A0E493F4600651
:1027E300E493F9120DBB79051211B7022BD8C082FD
:1027F300C083E9540FF9906185E0696012E5C6541E
:10280300804449F5C6E59E547F644970F8E9F05366
:10281300C680E59E547F70FA022BD874F71219898B
:10282300E5A8FE53A87E120DC7C2BA539AFEC28909
:10283300759B00C2C2120DCD75A91175B905120D94
:10284300D3D2BA439A0174805E42A8023727C0826A
:10285300C083906181E4F0A3F0A3F0022BD875E963
:102863000075910075BF00020122C082C083906190
:1028730081E4F0A374C0F0A3E480DFC082C083745A
:10288300F81219329006951243AB700302295D903A
:102893000695E0544060237908851882851983AA38
:1028A30082AB83120F35851882851983AA82AB8385
:1028B300120B57900695E054BFF0E05480601079F6
:1028C3000C7A8C7B0A120F35900695E0547FF0E06A
:1028D300A2E0500F7900120DDF120B5D900695E018
:1028E30054FEF0E05402600F7901120DDF120B5D0C
:1028F300900695E054FDF0E05404600F7900120D4A
:10290300E5120B63900695E054FBF0E05408600F6A
:102913007901120DE5120B63900695E054F7F0E090
:102923005410600F7902120DE5120B63900695E0C7
:1029330054EFF0E05420600F7903120DE5120B639E
:10294300900695E054DFF0A3E05401600D120DF101
:10295300120B69900696E054FEF0740812194802AF
:102963002BD8C082C083E9600514602A804F906130
:102973009A7433F0A37455F09061A0743AF0900AFE
:1029830066E064017009C2919006977467802D9088
:1029930006977461802690619A743FF0A3745AF08D
:1029A3009061A0747FF0900A66E064017009D2918F
:1029B30090069774718005900697746AF0022BD87D
:1029C300C082C083E9600B14600D14601714600C9F
:1029D30080209027A480159027A58010900A66E098
:1029E300640170059027A680039027A7E493906164
:1029F30086F0022BD874EE12198974F412193285F9
:102A03001882851983AC82AD8375838F75822E748A
:102A1300041218459027A493F46003022B229078A4
:102A230008E0C394025003022B02740412197DAC14
:102A330082AD8375838E7582B67408121845FC7E49
:102A4300FF7FFF8E0C7D008C8285820E800F7408C1
:102A53006D606D74096D6068740A6D60638D0875CF
:102A630009007402780812191F122B2C121802A9DC
:102A730009E50AC9F888107418780812171DE510BB
:102A83004508FAE9FBE50EC333F8E433F97404129D
:102A9300197DE58228F582E583391235DEC3E89A8C
:102AA300E99B4008E8C39AF8E99B8006EAC398F8D3
:102AB300EB99F9C3E89EE99F5006E8FEE9FF8D0C08
:102AC3000DEDC39413408774FF6E700374FF6F6042
:102AD30024850C087402780812191F122B2C121863
:102AE30002851882851983E582250EF582E5831216
:102AF3003AEFE508F00CECC394045003022A427544
:102B030008017509007808121BA0740212197DAC24
:102B130082AD837AE97B091204A374021219487403
:102B23000C1219487F0A021A5B74482508F582744F
:102B3300783509F583780822C082C083906186E0E6
:102B4300F89027A7E4936870099027A6E49390610F
:102B530086F09061AE7468F0A3746AF09062457475
:102B6300FBF0A304F053F4FD43FE02900A667401E4
:102B7300F09061A0E0643A70047900800279011258
:102B83000DDF022BD8F07F04021A5BC082C0839052
:102B93000A44E064017013900A4AE0F87401686023
:102BA30027E87006A3E06401601E900A5BE06401FD
:102BB3007008900A61E06401600E9009EEE0640120
:102BC300700A9009F3E06004790C800279008005B3
:102BD300E0F912278FD083D082020122C082C08302
:102BE30075E1F19009F1E0604B14600914604F1432
:102BF300604714704E120E039009E7E0F97AE87B00
:102C030009121109908F2A121820121157908F362A
:102C13001218201211159009F2E0F912112179010D
:102C23001211AB9009E5122EB57433F0A3740EF0B4
:102C3300790080A1120E0980BF120E0F80BA120E06
:102C43001580B5791280EB74F412198975D90D903A
:102C530009D2E0A2E0E4331313F8122D4C484401E7
:102C6300F5D97800122D5640FB7800880874D312EA
:102C730040317409122D6040F275E1959009D2E05C
:102C8300F97AD37B0912110F9010DF7491F0A374BA
:102C93000D122D66122FDB74AFF0A3740D122FEEFD
:102CA3009009F1E064019009E5700B122CE8121809
:102CB30002908F3A8009122CE8121802908F16782E
:102CC30008121768908F1A78081217C9122D9412D8
:102CD3003D8A1218119009E5122FC27413122E693E
:102CE3007402022B88123EC378082274F6121989E3
:102CF300122D42FA8AD97800122D5640FB780080B3
:102D030006122DDD123424E8C39940F5122E571212
:102D13002D5640FB7800800812402D740A1234248B
:102D2300E8C39940F375E1959010DF749DF0A374A7
:102D33000D122D66122D707412122E6902369790A1
:102D430009F7E0F9740729F5D99009E7E0C43333AB
:102D530054C022880874E82508F582740912368362
:102D630094062212314E7497F0A3740D22122FE1B0
:102D7300F0A374AFF0A3740D122FF2122D94123B33
:102D8300C274FFF0A3F0A3F0A3F09009E5122FC6DD
:102D9300229009E5122FBC240EF582E82274F61264
:102DA3001989122D424402F5D97800122D5640FBA1
:102DB30078008006122DDD123424E8C39940F5759E
:102DC300E1959010DF122DE8F0A3122DE8122D7378
:102DD3007414122E697404023699880874F825084D
:102DE300F58274092274A9122DF5122DF5F0A3743E
:102DF3000D22F0A3740DF0A374A92274F61219899D
:102E0300122D42FA74064AF5D97800122D5640FB6A
:102E130078008006122DDD123424E8C39940F512A0
:102E23002E57122D5640FB7800800812402D740A4D
:102E3300123424E8C39940F375E1959010DF74A32D
:102E4300F0A3740D123147122D707415122E69748C
:102E530003023699900A17E0F9740729F5D9740427
:102E63004AF5D9780022F090069322C082C083905D
:102E73000A4E7425F0900A4C7401F0A3E4F07A0131
:102E8300FB121133900A3A122EB5743FF0A3740E5D
:102E9300F0900A4BE064017016900A4AE0701079D2
:102EA3000112119312116312118D790012119F02F5
:102EB3002BD8122FBC2416F582E8123BC22274F6DB
:102EC30012198974FA121932900A43E064017008E6
:102ED300120E1B900A43E4F075E1F1900A3A122FA7
:102EE300BC2415F582E8123AEF7401F0900A45E02C
:102EF30064017053908EC4C082851882851983AC97
:102F030082AD8375838ED082740612184575D90DF0
:102F1300900A3C122D4F4403F5D978008808743D7C
:102F2300124031740A122D6040F278008808851827
:102F330082851983E582124031E583122D6040ECCE
:102F430075E1957901800279001211399010DF74CF
:102F5300D7F0A3740FF0A374DDF0A3740F122FD274
:102F6300122FD2122FDB122FE7F0A374E3F0A37416
:102F73000F122FEE900A3CE0F97A3D7B0A121109F9
:102F8300900A4EE0F912278F790112113F908F2A90
:102F9300121820121157908F36121820121115791A
:102FA300001211AB900A3A122FC27416122E6974D2
:102FB30005F00412194802369AE0F8A3E0C8221279
:102FC3002FC622122FBC2414F582E8123BC622F02E
:102FD300A374D7F0A3740F22122FE1F0A322122FB0
:102FE300E522F0A374A1F0A3740F22122FF222F0B2
:102FF3009010ED122FE7123152122FE7122FE5F046
:103003002274F41219898908A808123EA8900A5359
:10301300E0F97A547B0A121109900A61E0701A7977
:10302300001211759009D2E07004790080027901D1
:103033007AD37B0912110F8005790112117575E19D
:10304300F175D923900A53122D4F4405F5D9780011
:10305300880A7454250AF582740A122D6040F175AA
:10306300D90075D90075D90075D90075D90075D9FE
:10307300007A001242F724221234E840F67A001252
:1030830042F72426F582E912371B0AEAC394034068
:10309300EEEE242B1237187A001242F7242C123446
:1030A300EE40F67A001242F7242E1234EE40F67AFE
:1030B300001242F724301234EE40F67A001242F73F
:1030C30024321234EE40F67A008A0AEE250AF8EF2B
:1030D300123BB21234FA940540EFEE2437F582EF37
:1030E300123DF8541FF8EE242AF582EF123DF8C47E
:1030F3003354E048F5D975E1959010DF74A7F0A338
:10310300740FF0A374ADF0A3740F123147F0A374DE
:10311300B3F0A3740F122FEE900A60E0F912278F19
:10312300908F2A121820121157908F3612182012DE
:10313300111590600DE4F079011211AB90069374B0
:1031430006022B8812314E122FE72212315222121D
:10315300315F74A1F0A3740F12315F22F0A374A145
:10316300F0A3740FF0A32274EC121989900A511280
:103173003EBF7810121802900A62E0FAF875F00563
:10318300A4C8ACF02CF974F128F582740639F583E0
:10319300E0FEA3E0FFEEC333FEEF33FF8E0CF50D2D
:1031A300750E00750F0085100885110985120A85B3
:1031B300130B908F1678081217687808121B9885DE
:1031C300100885110985120A85130B7808790C12EA
:1031D30017557810790C1216ADE4F50EF50F780833
:1031E300790C12178E8A0C750D007403780C121962
:1031F3001F7808790C121755908F1A78081217C97F
:10320300AA08AB09AC0AAD0B122585740412194840
:103213008A088B09A808A909C3EE98EF995006E814
:103223002EF8E93FF9E890600EF0E9A3F0EEA3F081
:10323300EFA3F090600D74C1F07F0C021A5BC082A3
:10324300C0839009E51232B5123AEFE402285B74A9
:10325300F71219899006C1E0123FF239F9E8240503
:10326300FAE9124243A3A3A3A3A3A3A3A3A3ECF04A
:10327300A3ED123E3CA3E024FFF8A3E034FFF98A58
:10328300828B83E8F0A3E9F0023727C082C08390E2
:103293000A3A1232AE900A4E022BD3C082C08390F8
:1032A3000A511232AE900A60022BD31232B5123891
:1032B3003222122FBC2406F582E82202012274F284
:1032C30012198912342BF50AEF12391060047804AD
:1032D30080027800E8240EF8EAC39850030233888A
:1032E30075080C900A6CE4F0EE2476F582EF123D3B
:1032F300F8900A6DF07902EE2477FCEF3400FD7A42
:103303006E7B0A120F237902EE2479FCEF3400FD61
:10331300120F237902EE247BFCEF3400FD120F23FE
:103323007902EE247DFCEF3400FD120F23EE2474AA
:10333300123441120F23850A82850B83E0601E75C8
:10334300086C75090A7808121BA07C0C7903EEFA45
:10335300EFFB120F957402121948750810740125BA
:1033630008F5D975D90378008009880A746C250A91
:10337300123420E8C3950840F175E19579041211E0
:103383005D7901800279007F06021A5B74F21219DB
:103393008912342BF508EF3400F509850882F5838B
:1033A300E06004780480027800E8240AF8EAC3980D
:1033B3004060750A08900A6C7401F079057CD97D28
:1033C300097A6D7B0A120F23EE2480123441120F07
:1033D30023850882850983E0601E75086C75090AD8
:1033E3007808121BA07C087903EEFAEFFB120F9505
:1033F3007402121948750A0C12379C800312341A8E
:10340300E8C3950A40F775E195790412115D7901D6
:103413008002790002338A8808746C2508F5827467
:103423000A123DFCF5D9082212342F22EAFEEBFFE3
:103433009061D0E0F87480C398FAEE248222FCEF06
:103443003400FD8E828F83A3A3A3A3A31243BA8C5C
:10345300828D83E028F0A3E039F079022274F6121A
:103463001989EAFEEBFF9061D0E0707475D9187585
:10347300D90375D9037A008A08EE25081242FC2481
:103483009B12359140F17A008A08EE25081242FC1E
:1034930024A31234EE40F17A008A08EE2508124282
:1034A300FC249312359140F17A008A08EE25081224
:1034B30042FC24871234E840F175E1957908EE2443
:1034C30093FAEF3400FB120F297904EE2487FAEF05
:1034D3003400FB120F29790412115D12359A800210
:1034E300790002369A1234F49404221234F49402CA
:1034F30022F582E9123BC6E0F5D90AEAC32274F643
:10350300121989EAFEEBFF9061D0E0707C75D90E49
:1035130075D90375D9047A008A08EE25081242FC8E
:10352300248B12359140F17A008A08EE2508124265
:10353300FC24831234E840F175E1957908EE248B7D
:10354300FAEF3400FB120F297904EE2483FAEF34E7
:1035530000FB120F297C008C82AA82C3E49AF8959F
:10356300E0F9EE28F8EF39F9E8248A123DF5C0E0D6
:10357300EE2A1242FC24AA123AECD0E0F00CECC37F
:10358300940840D312359A8002790002369A123495
:10359300F494082275E195EE246FF582EF123BC295
:1035A3001243BAEE2471F582EF123BC2E8F0A3E9AD
:1035B300F0790122C082C08375D90275D90375D908
:1035C3000575E195EA246FF582EB1235DCEA247187
:1035D300F582EB1235AC022BD83400F5831243BAD3
:1035E3002274F6121989EAFEEBFF900A6C74061234
:1035F300368D121BA07C017903120F9574021219E8
:103603004875D90675D903780012367340FB75E106
:1036130095900693E064087017EE246FF582EF121D
:1036230035DCEE2471F582EF123AEFE8F0A3E9F00E
:103633007901806374F6121989EAFEEBFF9061D079
:10364300E07029900A6C740A12368D121BA07C015B
:103653007903120F95740212194875D90675D903A7
:10366300780012367340FB12359780027900802769
:103673008808746C2508F582740A1236839405222F
:10368300123BC6E0F5D908E8C322F075086C75094A
:103693000A7808227401F07F02021A5B74F6121989
:1036A30089EAFEEBFF9061D0E070417901900A6CEA
:1036B300740B122E69E06407701975086C75090A9A
:1036C3007808121BA07C010909120F9574021219C4
:1036D300487905740129F5D975D903780080031257
:1036E300341AE8C39940F81235978002790080A70D
:1036F30074F7121989EAFEEBFF75D90375D90375BF
:10370300D90DEE24DD12371875E195790412115D98
:1037130012359A800FF582EF123DFCF5D922A2E013
:1037230092AF79007F01021A5B74F512198912387E
:103733003A6004780480027800E8240BF8EAC3981E
:103743004052750A09900A6C7408F0F912381B127A
:103753000F23850882850983E0601E75086C75094F
:103763000A7808121BA07C097903EEFAEFFB120F0B
:10377300957402121948750A0D12379C800312348E
:103783001AE8C3950A40F775E195790412115D12A1
:10379300359A80027900023A907401250AF5D975A9
:1037A300D90378002274F512198912383A60047823
:1037B3000480027800E8240BF8EAC3984055750AA0
:1037C30009900A6C7409F0790812381B120F2385CB
:1037D3000882850983E0601E75086C75090A7808FC
:1037E300121BA07C097903EEFAEFFB120F9574020A
:1037F300121948750A0D12379C800312341AE8C354
:10380300950A40F775E195790412115D123828790C
:103813000180027900023A90EE24E4FCEF3400FDCB
:103823007A6D7B0A22EE241DF582EF1238322212C2
:103833003BC6E4F0A3F02212342FF8EF12384322F0
:103843003400F9880889098882F583E02274F31229
:1038530019898A088B091239A6FAE5082482F50A20
:10386300EB1239106004780480027800E82408F829
:10387300EAC3985003023909750C06900A6C740C5C
:10388300F09006B0E0900A6DF07402C0E0F97CB1EC
:103893007D067A6E7B0A120F23D0E0F97CB37D0696
:1038A300120F23850A82850B83E0601E750A6C75EF
:1038B3000B0A780A121BA07C067903AA08AB09122B
:1038C3000F957402121948750C0A7401250CF5D969
:1038D30075D90378008009880A746C250A1234208C
:1038E300E8C3950C40F175E195790412115DE50883
:1038F300246FF582E5091235DCE5082471F582E5CC
:10390300091235AC800279007F05021A5B3400F599
:103913000B850A82F583E02274F6121989EAFEEB1D
:10392300FF1239A6FCEE2482F8EF123A2960047ADA
:103933000480027A00EA2404FAECC39A40607A0213
:10394300900A6CEAF0EE24F6F582EF1239B0601BB0
:1039530075086C75090A7808121BA07C027903EEBE
:10396300FA120F9574021219487A0674012AF5D9CE
:1039730075D9037800800312341AE8C39A40F875A6
:10398300E195EE2473124036EE247F12403612384E
:1039930028790412115DEE240D12359D8002790001
:1039A30002369A9061D0E0F87480C39822123DFCED
:1039B300900A6DF088828983E02274F612198912C5
:1039C30039A6FEEA2482F8EB123A2960047C0480CB
:1039D300027C00EC2404FCEEC39C40457C02900A6C
:1039E3006C7407F0EA24F7F582EB1239B0601775AF
:1039F300086C75090A7808121BA07903120F9574D5
:103A0300021219487C0674012CF5D975D903780084
:103A1300800312341AE8C39C40F875E1957901805C
:103A230002790002369A3400F988828983E022748D
:103A3300F5121989E9FEA2AFE433F50AC2AF7F009C
:103A4300EA246EF8EB3400F980010F88828983E061
:103A5300F508EFC3950850188F08EA2508FCEB34E6
:103A630000FDEC246AF582ED123DF86E70DC8017E0
:103A7300EA2508FAEB3400FBEA246AF582EB123AF2
:103A8300EFEE1239B604F0E50AA2E092AF7F03022B
:103A93001A5B74F6121989A2AFE433FFC2AFEA24AA
:103AA3006EF8EB1240E5E014F07E0080198E08EA10
:103AB3002508F8EB1242FE246B123DF5C0E0E81234
:103AC3003AEAD0E0F00E8C828D83E0F8EEC39840A2
:103AD300DCEA246DF582EB123AEF74FF123B13EF2D
:103AE300A2E092AF02369A246AF582E9123BC2221F
:103AF300C082C083E5A8F8C2AFEA246AF582EB125C
:103B03003AEFE9123B13E8A2E7A2E792AF022BD800
:103B1300F0EA2469123B1B22F582EB123BC6E4F068
:103B23002274F21219898C828D83A3A3A3A3E05478
:103B33001FF0EA24361240DB8E828F83E4F0F50C0B
:103B4300850C8285820AEC250AF8ED123843C0E021
:103B5300EA250AF8EB123BB2D0E0F0750D008508B8
:103B630082850983E0F50A750B00E50D780A1219C1
:103B730000E50AA2E05023E50C33333354F8250D56
:103B8300C0E08E828F83E0F8123D952438123AEC20
:103B9300D0E0F08E828F83E004F0050DE50DC39431
:103BA3000840BB050CE50CC39405409402338A34EA
:103BB30000F9E8245DF582E9123BC222F582EB129B
:103BC3003BC6223400F5832274F41219899006BF90
:103BD300E064037003023D787E00EEF875F005A4FF
:103BE300C8AAF02AF974C528F582740639F583E06A
:103BF3006003023D6E74C328FA740639FB8A828B14
:103C030083A3A37401124351A3A3A3E4F0EA2404FE
:103C1300F8EB1242FEFCE9FDEE8C828D83F0EA2480
:103C230062123D7F2467F582EB123AEF7401123D75
:103C3300A7E4F0A3123DA7A3A3123DA2240F123DB4
:103C43007F2435F582EB124039F508F509F50AF5BD
:103C53000BEA2418123D87121811EA241C123D9016
:103C6300241D123D9E247F123D902473123D902407
:103C730068F582EB123AEF7480123B13EA246E125A
:103C83003D9024EC123D9024ED123D9024EE123D24
:103C93009024EF123D9024F0123D9E24F2123D9E9B
:103CA30024F5123D902482123D9024D2123D90249B
:103CB300D3123D9024D4123D87121811EA24D8124E
:103CC3003D87121811EA24DE123D9024E0123D9044
:103CD30024DC123D9024E1123D9024E2123D902415
:103CE300F8123D9E24FA123D9E24FC123D9E24FEB2
:103CF300F582EB12382EFE8E08EA2508F8EB124205
:103D0300FE123AEA74FFF00EEEC3940440E97E001B
:103D13008E82A88274D928F5827409123DF8C0E016
:103D2300123D95245D123AECD0E0F00EEEC39405FB
:103D330040DE7E008E82A88274A728F58274061264
:103D43003DF8C0E0123D9524E4123AECD0E0F00EC9
:103D5300EEC3940840DE9006BFE004F064017019DE
:103D63008C828D83E09006C1F0800E0EEEC3940327
:103D73005003023BDD7A007B00022B89123BBF74A8
:103D830001F0EA22F582EB123BC2780822123B1BB8
:103D9300EA22EA28F8EB3400F9E822123BBFE4F008
:103DA300A3F0EA22F08A828B83A3A3A3A3A322C056
:103DB30082C083EA2403F582EB123DF86008E4F045
:103DC3009006C0E014F09006BFE014F07006900671
:103DD300C174FFF08A828B83A3A3E4F09009DEE031
:103DE300700D9006C0E0640170057900121127027E
:103DF3002BD8F582E9123DFC22123BC6E022C08299
:103E0300C0837B00EBF875F005A4C8AAF02AF97407
:103E1300BF28F87406124003A3A3A3A3E4123E3CF5
:103E2300F00BEBC3940340DC9006BFE4F0A3F0A3D4
:103E330074FFF075E1F1022BD8F088828983A3A384
:103E4300A3A3A3A32274F5121989750800750900A9
:103E5300750A00A80A123EA88E828F83A3A3A3E04B
:103E6300602BE5084509601D850882850983123E9C
:103E7300BF121BB3123EBB12182012252974041261
:103E83001948E97008EEF8EFF988088909050AE589
:103E93000AC3940340BD850882850983A3A3A3A312
:103EA300E0F9023A90E875F005A4C8AAF02AF9747B
:103EB300C328FE740639FF228E828F83123EC322EB
:103EC300E0F8A3E0F5838882A3A32274F71219898B
:103ED30078FF79FF7F00EFFC75F005A4CCAEF02EE0
:103EE300FD74C32CFC74063DFD8C828D83A3A3A3B8
:103EF300E0603EEC2473F582ED123DF8FE74FF683A
:103F0300700374FF69700774016E701C800D740177
:103F13006E700DEC2479123F495016EC2479800B16
:103F2300EC242E123F495009EC242EF582ED123574
:103F3300DC0FEFC39403409EC3EA98EB994004E877
:103F4300FAE9FB023727F582ED123BC2C3E098A3DF
:103F5300E0992274F6121989EAFEEBFFEE2463F569
:103F630008EF3400F5098016AA08AB09120F1712DF
:103F730005459009DFE004F09009E0E004F08508CE
:103F8300828509831243AB70DFEEFAEFFB120EC397
:103F9300EEFAEFFB12101F02369A74F7121989EA30
:103FA300FEEBFF8E828F83A3A3A3A3E0FA7B001211
:103FB3000BB1EEFAEFFB120EDB121001023727C032
:103FC30082C0837B00EB123FF2124003E06014E8EF
:103FD300246E123DF5600CE8246A123DF5700479F5
:103FE3000180090BEBC3940340DB7900022BD8F863
:103FF30075F005A4C8AAF02AF974C328F874062238
:1040030039F988828983A3A3A32274F612198978C4
:1040130000880874A7124031740612403908E8C3B7
:10402300940840ED9006A70236978808741825086F
:10403300F58222F582EF123B1E2274F7121989745E
:10404300FC121932851882851983E4F0A3F0A3F0DA
:10405300A3F0120F2FE9851882851983F0120F2F11
:10406300740112197DE9F0120F2F740212197DE900
:10407300F0851882851983121820740412194802D6
:10408300372774F6121989EA240D1240DBEC240356
:10409300F8ED3400F988088909EC2407F8ED12409B
:1040A300E51235E0850882850983E0FAA3E0FB1277
:1040B30018A78E828F83E8F0A3E91243B1850882A3
:1040C300850983E0FAA3E0FB1218A78B09EA4509E7
:1040D30060031240F102369AF8EB3400F9E8FEE986
:1040E300FF223400F9E8FCE9FD8C828D83228E8265
:1040F3008F83E02401F0A3E03400F02274F6121958
:1041030089EA242EF582EB123DF8FCA3E0FDEA24B4
:104113006F1240DB780079FAECFAEDFB1218A78EE8
:10412300828F83E8F0A3E9F0780079FAECFAEDFBEB
:104133001218A78B09EA450960031240F102369A67
:1041430074F0121989EAFEEBFF741012197D7808D6
:104153001218021210D98A0C8B0D8C0E8D0F908FB2
:104163003E780C121768908F1A780C1217C9780CC6
:10417300121B98123EBB121820122529740412191F
:1041830048E9600302422B8E828F83E02402F8A366
:10419300E01242FEFAE9FB8A828B83780812177BCE
:1041A300908F1A78081218028A828B837808121764
:1041B300DCEE240BF582EF123AEFC082C0838E82CD
:1041C3008F83A3A3A3A3A3E02401F8A3E03400F9FE
:1041D300D083D082E0687003A3E069700479018022
:1041E30049EE2407F8EF3400F9888289831240F5F9
:1041F300EE24731242327014EE247412423B7003A5
:10420300A3E06D70078A828B831240F5EE247F1240
:1042130042327014EE248012423B7003A3E06D70AF
:10422300078A828B831240F579007F08021A5BF5B7
:1042330082EF123DFC640122FAEF124243E06C224A
:104243003400FB8A828B83E0FCA3E0FD88828983B0
:104253002274F3121989E9FEECFFEA2462F582EB7A
:1042630012423560030242F29061D0E0F508EA247D
:1042730082F582EB123DF8F50C6004780480027835
:10428300007480C39508FC95E0FDEF28F8E4124222
:10429300FE2402F8E93400F9EC98ED99A2D265D036
:1042A300334048740D12197DE0F50AA3E0F50BE5E0
:1042B3000C6015780A121BA0EFFCEEF9120F95742F
:1042C3000212194874042FFF74012FF5D98ED9787F
:1042D30000800C8808E50A124031E50B123424E80B
:1042E300C39F40EF75E195790080067907800279D5
:1042F300FF02390B8A0AEE250AF8EF3400F9E822A7
:1043030074F7121989A2AFE433F508C2AFEA2402A5
:10431300F8EB3400F98A828B83E0FEA3E0FFEE4FD3
:10432300600E88828983E0FAA3E0F5838A828004A1
:104333008A828B83ECF0A3EDF08882898312435742
:10434300F0E5080237218C828D83E8F0A3E9F08A37
:10435300828B8322ECF0A3EDF08C828D83E4F0A3B7
:104363002274F7121989EAFCEBFD7A007B00A2AFF5
:10437300E433FEC2AF8C828D831243AB6022E8FA32
:10438300E9FB8A828B831235E0124349E4F0A312DE
:1043930043B1E849700A8C828D83A3A3E4F0A3F0B0
:1043A300EEA2E092AF0237271243BAE84922F08C1B
:1043B300828D831243BA22E0F8A3E0F922C082C0BF
:1043C3008380031243EEE9F874FF28190470F4ECB8
:1043D300FAEDFB022BD8C082C08380031243EEE9BF
:1043E300F874FF28190470F4022BD88C828D83E0B3
:1043F3008A828B83F08C828D83A3AC82AD838A8285
:104403008B83A3AA82AB832274F4121989E99006E1
:1044130092F01210EB907800E0C4540F5407640339
:104423007004793F8002797F750806750900780862
:10443300121BA07C807D067AEA7B0712049D74021E
:10444300121948900680E0F47049A3E0F47044A385
:10445300E0F4703FA3E0F4703AA3E0F47035A3E016
:10446300F4703090780EE0900680F090780FE09032
:104473000681F0907810E0900682F0907811E09039
:104483000683F0907812E0900684F0907813E09021
:104493000685F09006861245F1125CEF9006B07423
:1044A30006F0A3740D124F277440F0A37401F0902B
:1044B30009E81245F19009E7E4F09009EEF0A374DE
:1044C300A0124F277403F0A37407124F2774281206
:1044D3004F2704F0A3E4F0900A17F0900A3D124529
:1044E300F1900A3CE4F0900A4304124F271245DF8F
:1044F300E4F0A304F0A3124F27124F25F0900A54BF
:104503001245F1900A53E4F0900A5A04F0A3E4121E
:1045130045DF124F25F0A37405F0900A6474FFF091
:10452300A3E4F0900A66F0900A6804F0900A6974B4
:1045330090F0A37401F0120DEB120CD712109179C5
:10454300017A6B7B0A120F35900A6BE075F01484C5
:10455300E5F004F0790C7A8C7B0A120F35120F53B5
:104563007A00900692E0F9120305907803E0644222
:104573007055900A6BE014F0704DC2AF1245820083
:10458300782AD0E0F618D0E0F6E59F540770057559
:1045930009FF800375097FC4C0E07829E6F50808A0
:1045A300E65509F509740B7808121910D0E02508AF
:1045B300F8906270E0A2E740F8E8C333906272F0CB
:1045C300906270E0D2E0F09006BDE4F0A3F07A8050
:1045D300FB900692E0F91202AB024B991245E812E6
:1045E30045E8F0A322F0A37480F0A374022274FFC1
:1045F300124A0AF0A3F02274F4121989EAFEEBFFBF
:10460300EEA2E05040900694E0C39480E0500FC3C4
:1046130033F8E433F974DF28F5827410800EF4C3A1
:1046230033F8E433F974ED28F582741039F5831205
:1046330051FA1219877A00900692E0F9120305EEF7
:10464300640102486354086059900A621248A575D0
:1046530008007808121BA412487B1219107808125C
:104663001BA0EA2430F582EB125725121BBB12481C
:104673008C121BA07508D37509097808121BA0902A
:1046830009D2E0FD7C008A828B83A3A3A3A3E0FA73
:104693007B007900120BAB7409121948EE6408020F
:1046A3004863EE541060407508007808121BA4E4B8
:1046B300F5097808121BA07808121BA07808121BB2
:1046C300A07508D37509097808121BA09009D2E0D8
:1046D300FD7C007A007B007902120BAB740912197E
:1046E30048EE6410024863EE54026038750800789F
:1046F30008121BA4E4F5097808121BA07808121B02
:10470300A07808121BA07508D37509097808121B35
:10471300A012486F793C120BAB7409121948EE646E
:1047230002024863EE540460619006C11248A5EA90
:10473300242AF582EB125A09F5087808121BA412F1
:10474300487B1219107808121BA0EA2420F582EB8B
:10475300125725121BBB12488C121BA07508D37568
:1047630009097808121BA09009D2E0FD7C018A8216
:104773008B83A3A3A3A3E0FA7B007900120BAB7492
:1047830009121948EE6404024863EE544060387518
:1047930008007808121BA4E4F5097808121BA07816
:1047A30008121BA07808121BA07508D37509097895
:1047B30008121BA012486F793B120BAB7409121934
:1047C30048EE6440024863EE5480602F900A6912F9
:1047D3004F1F49602179001202FF900A691251E5C7
:1047E3007808121B987A007B01900692E0F9120375
:1047F300237404121948EE64808065EF5401600C41
:1048030079011202FFEEFAEF64018056EF54026061
:104813000AC2AF75C9AB75C95B80FEEF5404600A69
:10482300121CE4EEFAEF64048038900699E0640108
:104833007033EE5420602E900693E024F960031445
:10484300701B793F9006C1E0FA75F005A4CAA8F081
:1048530028FB74C32AFA74063BFB120EE1EE6420B4
:10486300FAEFFB80047A007B00024B999009D2E0B7
:10487300FD7C017A007B0022EA2432F582EB125799
:104883004012571A7404780822EA242EF582EB1298
:104893005BC0F508A3E0C313F509E50813F5087831
:1048A3000822E0F875F005A4C8AAF01248B2222A3B
:1048B300F974C328FA740639FB2274F6121989C3F2
:1048C300EA9411EB940050047A1080027A20EA24CF
:1048D30008FAE43400FB12053F8A088B09A808A9EB
:1048E30009E849600AE82404FAE93400FB80047A01
:1048F300007B00024F3374F6121989EA2405FAEBA0
:104903003400FB12053F8A088B09A808A909E84966
:10491300600AE82405FAE93400FB80047A007B008E
:10492300024F33C082C083C2AF1210C7E5E170FCEF
:1049330075E101120DC175E1F1121103120DB57983
:10494300071211A579011211AB790212112D12115F
:104953006312118D790012119F790112119F908FAB
:10496300361218201211159009D2E41245F3A3F060
:104973009009EEF0A3F0A3F09009F27407F0900908
:10498300F17403F09009F7E4F09009F6F0900A1738
:10499300F0900A44F0900A5BF0120EC9120FFB125A
:1049A3000EED79001211B19009D974FF124A0A74FD
:1049B3001FF0906012E4F0A3F0906063F0752100A3
:1049C300900693F09009DEF09009DF740CF09009E3
:1049D300E0E4F09009E104F09009E2E4F09009E3E7
:1049E30004F09009E4E4F0900695F0A3F0900698A3
:1049F300F090069904F09006AF7403F0900A67E410
:104A0300F0D2AFF9025BEFF0A3F0A3F0A3F0A3227F
:104A1300C082C083900680E08A828B831250258AED
:104A2300828B83A312501F8A828B83A3A3125019F4
:104A33008A828B83A3A3A31250138A828B83A3A39B
:104A4300A3A3F0900685E08A828B83A3A3A3A3A3E9
:104A5300025BECC082C0838A828B83E0900686125D
:104A63004A8CE0900687124A8CA3E0900688124A8B
:104A73008CA3A3E0900689124A93E090068A124A17
:104A830093A3E090068B025BECF08A828B83A322D4
:104A9300F08A828B83A3A3A3A322C082C083120DB7
:104AA300F7E970051211637900025BEF74F71219CD
:104AB30089EAFEEBFF8908120DF7E9702CE508601F
:104AC3000A74016508600A7912801E7C00790080EF
:104AD300047C007901EEFAEFFB121169E9F8740323
:104AE30068700479078002790002502B74F612195A
:104AF30089EA4B600EEC4D600A740A12197D125B51
:104B0300F670047912800F7808121BA0120F4D74EF
:104B1300021219487900024F3374F4121989EAFE1C
:104B2300EBFF8908900693E064096014E0640A606F
:104B33000FE0640B600AE0640C6005E0640D700430
:104B4300790C801E1210258B0BEA450B700BA908FC
:104B5300EEFAEFFB120F358009900695E04440F022
:104B6300790D803274F4121989EAFEEBFF890BEE9A
:104B73004F6003E970047912801C750A00120F2F2D
:104B8300850A08EE2508125722E9F0050AE50AC34B
:104B9300950B40E979007F04021A5BC082C083E968
:104BA300F8740168700B900A677401F07900025B76
:104BB300EFE87006900A67E480F1791280F0F582DD
:104BC300EB125BC064012274F6121989EAFEEBFF53
:104BD3008C088D09900693E0640C700590618E80BB
:104BE30013120D3DE9702F125D33742B2EF5827471
:104BF300073FF583E0F9748069700A8508828509A7
:104C030083747F800E900697E0F8E9C39885088245
:104C1300850983F07900024F3374F7121989EAFE8C
:104C2300EBFF890874056508602874136508602222
:104C330074146508601C741565086016741A650899
:104C4300601074296508600A743B65086004791272
:104C53008041120D3DE9703B125261241DF8EB3483
:104C630000F9EA24F6FCEB3400FDEA2469124BC197
:104C73007019EA246AF582EB125A09640270047906
:104C83003A8010124C99120EB18006124C99120EF2
:104C9300A5790002502B8C828D83E508124F2DE4F9
:104CA300F0A3F079022274E81219898A088B098C1F
:104CB3000A8D0B8917EC450B6016E9C3941C501041
:104CC300741812197DE0F50C600B7401650C600516
:104CD3007912024F1A120D3DE96003024F1AA80818
:104CE300E875F005A4C8AAF02AFA75F005E509A449
:104CF3002AF974C328FE740639FF9009DFE07005B2
:104D03007907024F1AE50A24FEF50AE50B34FFF58D
:104D13000B850A82F583E517F0E50C7004740280B5
:104D2300027401A3F0E50A24FEFCE50B34FFFDEE5B
:104D33002463FAEF3400FB120F119009DFE0141221
:104D4300521064086008E064076003024F1890067D
:104D5300C1E065087002E5096003024F187900EEAF
:104D6300FAEFFB1221579061D0E07003024F1890C5
:104D730009E3E064016003024F18EE241D12572279
:104D8300124F1F497003024F18A2AFE433F516C246
:104D9300AF1210DF8A088B091210DFEA650870036F
:104DA300EB65097003024F121210258A088B091252
:104DB30010D98A0C8B0D8C0E8D0FE5082402F51487
:104DC300E5093400F5158A108B118C128D13908F21
:104DD3000678101217687810121B988514828515AF
:104DE300831218201225297404121948E9640160FA
:104DF30003024F12EE242EF50AEF3400F50B850A59
:104E030082F583E0240612575D780C79101217554A
:104E1300780C121B9885148285158312182012258D
:104E2300297404121948E964016003024F12E5086A
:104E33002408F510E5093400F511851082F5831275
:104E43001BB3AA0CAB0DAC0EAD0F12258574041267
:104E53001948850A82850B83121BBB1224D874025E
:104E63001219488A0C8B0D8C0E8D0F7410780C124E
:104E7300171DA80CA90D8E828F83A3A3A3A3A3A39D
:104E8300A3A3A31251EE8E828F8312578CEA28FAC2
:104E9300EB39FB8E828F83A3A312578C85108285F7
:104EA3001183C082C083850A82850B83E0F510A33A
:104EB300E0F511780C791012162DD083D082780C7E
:104EC300121768908F1A780C1217C98514828515EA
:104ED30083E50CF0A3E50DF0A3E50EF0A3E50FF0D9
:104EE300850882850983A3A3A3A3A3A3E4F0A3F066
:104EF300EE2435125A06C0E0EE2434125722D0E0D5
:104F0300F0EEFAEFFB121EC4AA08AB09121007E574
:104F130016A2E092AF79007F10021A5B12572EF9A6
:104F2300E8227425F0A3E4F0A322F0888289832287
:104F33007F02021A5B74F7121989E9FE6005740196
:104F43006E7032740912197DE0FF600574016F7091
:104F5300241251DC501FEC24FCF8ED1251E15015E2
:104F6300C3EA9CEB9D400E740A12197DE0F8600AB7
:104F730074016860057912025011900A44E06401DB
:104F83007005790C025011EEA3F0E8900A4AF0EF95
:104F9300900A3C7027E4F0900680E0900A3D12509E
:104FA30025900A3E12501F900A3F125019900A4052
:104FB300125013900A41F0900685802E7401F090F0
:104FC3000686E0900A3DF0900687E0900A3EF09056
:104FD3000688E0900A3FF0900689E0900A40F0903E
:104FE300068AE0900A41F090068BE0900A42F09026
:104FF3000A46125791A3ECF0A3EDF0E87004790090
:1050030080077401687005790112116F79008018A7
:10501300F0900684E022F0900683E022F09006826E
:10502300E022F0900681E0227F01021A5B74F01205
:105033001989E9FEEAFF900693E0640970030251BF
:1050430040E0640A7003025140E0640B70030251B4
:1050530040E0640C7003025140E0640D70030251A0
:1050630040900A45E0F8600874016860030251D774
:10507300900A3CE0F8600874016860030251D7901D
:105083000A461251EE1251DC40030251D7A3124FCC
:105093001F24FCFCE934FFFDC3EC94FDED943F4079
:1050A300030251D7C3EA98EB9950030251D7EF603B
:1050B3000874016F60030251D7EE607B1460030232
:1050C30051D7900A44E06401607379021210199079
:1050D3000A3A125791900A447401F0900A43F0EF90
:1050E300900A4B125210704A120E211210D98A0CD8
:1050F3008B0D8C0E8D0F908F22780C121768908F6A
:105103001A780C1217C9900A3A1251F4780C121833
:1051130011900A3A125202900A481251E5780C791A
:1051230008121755900A3A125733780C12181112B5
:1051330010017900025BE7900A44E0700479218052
:10514300F3A2AFE433F508C2AF7A3A7B0A12101F19
:10515300900A44E4F0121037E970461210C79061C8
:1051630082E0C2E6F0E5E170FC75E1017591BF797B
:10517300011211AB75E1F1900699E0640170187AA0
:10518300207B00900692E0F912032F7A207B009097
:105193000692E0F91202B17A00900692E0F9120346
:1051A30005E508A2E092AF900A4AE0F8740168703E
:1051B3000612118D025135A3E064016003025135DB
:1051C300E8600302513512116312118D7901121136
:1051D300990251357912025137EA24FCF8EB125740
:1051E3004F2212571AE4F50AF50B22E0FAA3E0FB6B
:1051F300221251FAA3A32212572EF5838882221278
:10520300572EC8240612573DE4F0A3F022F090066F
:1052130093E02274F7121989EAFEEBFF900693E0FC
:1052230064076004790C8033120D3DE9702D12522E
:105233006124DC124BC17010EA24F6F582EB12579D
:10524300257406F07902800EEA24DDF582EB12570D
:10525300257406F0790D120EA5790002502B125B0E
:10526300DBEA2274E812198974FB121932740312EF
:10527300197D125791740112197DECF0A3EDF0E939
:10528300851882851983F0742912197DE0FEA3E045
:10529300FF742B12197D12571A900A5BE064017098
:1052A30003025414790412102BE9640170030254AD
:1052B30014900693E064097003025414E0640A70C6
:1052C30003025414E0640B7003025414E0640C7082
:1052D30003025414E0640D7003025414740312198E
:1052E3007D12574540030254AB740112197D1257C6
:1052F3004540030254AB740312197DC082C083740A
:105303000112197D125729D083D082C3E098A3E0FC
:105313009950030254AB741E12197DE0F516A3E0F5
:10532300F517851882851983E0600964016003021B
:1053330054AB8009E516451770030254AB741D1274
:10534300197DE06007640160030254AB74201219F5
:105353007DE06007640160030254ABC3E5089EE58A
:10536300099F50030254AB742112197D1251EEEAC6
:1053730024FAF8EB1259FD40030254AB74231219BB
:105383007D125729742312197D125A2C7423121972
:105393007DE024FAF8A3E01259FD40030254AB74F4
:1053A3002312197DC3E09AA3E09B50030254AB740C
:1053B3002512197D125729742512197D125A2C743E
:1053C3002512197DC3E094F4A3E094014003025431
:1053D300AB742712197DE0F514A3E0F515E5142449
:1053E300F6F8E5151259F440030254AB7901121093
:1053F3002BE9640170119009F1E0F86014740168FD
:10540300600F740468600A794012102BE96401701C
:10541300057921025712742312197DE0FEA3E0FFE0
:10542300EEC333FEEF33FF85140C85150D7403783B
:105433000C12191FF50EF50F742512197D12575A08
:105443008E088F09F50AF50B7810790812162D7856
:105453000C79101215BE5050120EE7E96401700565
:10546300793A0257129006C0E0602E7AFF7BFF1252
:105473000ED58A0A8B0B7403780A121910125A0D6F
:10548300403DC3EA9508EB95095022A808A90912E3
:1054930018A78B09EA45097026851882851983E0C8
:1054A3007022E5164517701C7912025712EAF8EBC1
:1054B300F9AA08AB091218A78B09EA450960DA793A
:1054C3003B025712120EBD8A088B09AE08AF09EED4
:1054D3004F70057909025712EE2404F508EF3400E2
:1054E300F509850882F583E0900A62F074031219C6
:1054F3007D125729900A5C125A2C740112197D12DD
:105503005729900A5E125A2C851882851983E090D8
:105513000A61F07A008A82A882125A32E0C0E0124D
:105523005BC6245DF582E9125725D0E0F00AEAC391
:10553300940540E1EE245DFCEF3400FDEEFA120E1B
:10554300B7EE2436125A06C39402500AEEFAEFFB62
:10555300120EC30254AB851682851783E09009D3DC
:1055630012577DE09009D4125774E09009D5125771
:1055730074A3E09009D6125786E09009D712578694
:10558300A3E09009D8F0742012197DE0900A53F03B
:10559300742012197DE07025900680E0900A541261
:1055A3005025900A5512501F900A56125019900A0E
:1055B30057125013900A58F0900685802B90068658
:1055C300E0900A54F0900687E0900A55F090068820
:1055D300E0900A56F0900689E0900A57F090068A08
:1055E300E0900A58F090068BE0900A59F0741D126F
:1055F300197DE09009D2F0120EF3EE242612572201
:1056030012182C120D61EE242212572212182C7438
:105613002312197D125729EE242EF582EF125A29EF
:10562300EE2432125722E514F0A3E515F074251287
:10563300197D125729EE2430F582EF125A29900A68
:1056430063E0C0E0EE242A125722D0E0F0EE242BD0
:105653001257227402F0120F2FE975F00C84E5F053
:105663002405C0E0EE2437125722D0E0F0900A6000
:105673007425F09006C0E0C394024005790112112D
:10568300277904121019900A51125791900A5B74EA
:105693000112576B2416F582E81257257445F0A3BF
:1056A300740E12576B2414F582E8125725741712DF
:1056B300521070591210D98A108B118C128D1390BD
:1056C3008F267810121768908F1A78101217C990C6
:1056D3000A511251F47810121811900A5112520201
:1056E300900A5EE0F50CA3E0F50D7810790C121723
:1056F30055900A5112573378101218118508828574
:105703000983E0F9120E27120E2D1210017900748D
:1057130005121948024F1AE0F508A3E0F50922F52E
:1057230082EF1257402212572EF922E0F8A3E0220B
:1057330012572EC8240E12573D22F582E83400F585
:105743008322E024FCF8A3E012574F2234FFF9C36D
:10575300E894FDE9943F22E02401F510A3E034002E
:10576300F511E4F512F51322F0900A5112572EC8E1
:10577300221257782212577DA322F08516828517AD
:1057830083A322125778A3A322A3A3A3A3A3EAF07C
:10579300A3EBF022C082C083900A5BE06008790427
:1057A30012102BE97004790C8037900A5BE4F01235
:1057B3001037E9702A900699E0640170187A207B0B
:1057C30000900692E0F912032F7A207B0090069254
:1057D300E0F91202B17A00900692E0F9120305791A
:1057E30000025BEFC082C083C3EB940F5009C3EA8E
:1057F3009403EB9400400479128024EA75F005A425
:10580300CAA8F028F875F005EBA428FB74C62AF59E
:105813008274063BF583E07004790280027900020A
:105823005BEF74E81219898A088B09900693E06488
:10583300086005790C0259DBEC24FAF8ED1259FDE6
:105843004003025936741812197DE0F516A3E0F5EA
:1058530017E51624FAF8E5171259FD4003025936E5
:10586300C3E5169CE5179D5003025936741A1219A5
:105873007D125729741A12197D125A2C741A12198F
:105883007DC3E094F4A3E094014003025936741CF1
:1058930012197DE0FEA3E0FFEE24F6F8EF1259F4AF
:1058A3004003025936120D3DE960030259DBE50856
:1058B30075F005A4C508A8F028F875F005E509A456
:1058C30028F50974C32508F51474063509F515E59B
:1058D30014246EF582E515125A09600DE514246A45
:1058E300F582E515125A09600DE5142473F582E576
:1058F30015124BC47005793A0259DBE516C333FA26
:10590300E51733FB8E0C8F0D7403780C12191FF5FA
:105913000EF50F741A12197D12575A8A088B09F55E
:105923000AF50B7810790812162D780C79101215D8
:10593300BE400579120259DB9006C0E0C3940240D1
:10594300317AFF7BFF120ED58A0A8B0B7403780A18
:10595300121910125A0D50030259F0C3EA9508EBBD
:1059630095095077A808A9091218A78B09EA4509D0
:10597300707BE5142476F582E5151257257402F041
:10598300E5142477F582E515125725E4F0A3F0E535
:10599300142430F582E515125A3DE5142474125A85
:1059A30025E5142479F582E515125725E516F0A3AC
:1059B300E517F0741A12197D125729E514247B1286
:1059C3005A25E514247DF582E5153400125A1BAAE5
:1059D30014AB15120EA57900024F1AEAF8EBF9AAD7
:1059E30008AB091218A78B09EA45096085793B8042
:1059F300E7125D209477E9940C22125D20947BE9F1
:105A0300940C22F582EF125BC0229006C0E0F8C32B
:105A1300E50A98E50B940022F583EEF0A3EFF07905
:105A23000022F582E515125740E8F0A3E9F022744D
:105A3300D928F582740912574022125BC02407F853
:105A4300A3E03400F92274F2121989EAFEEBFF8C09
:105A5300088D09900693E064086005790C025BA643
:105A6300EC45096024740E12197DE0F50CA3E0F5F2
:105A73000DE50C450D6012741012197DE0F50AA3B3
:105A8300E0F50BE50A450B70057912025BA6120DD2
:105A93003DE96003025BA6125D2CFE74063FFFEE38
:105AA30024E3125A0670207A008A82A882125BB518
:105AB300C0E0125BC624E4F582E9125725D0E0F07A
:105AC3000AEAC3940840E2EE24E4125A06A2E04034
:105AD300057911025BA67A008A82A882E50828F577
:105AE30082E509125A09C0E0125BC6249BF582E9DC
:105AF300125725D0E0F00AEAC3940840DB850C82F4
:105B0300850D83E0C0E0EE24A3125722D0E0F08598
:105B13000C82850D83A3E0C0E0EE24A4125722D0AB
:105B2300E0F07A008A82AC82E50A2CF582E50B125A
:105B33005A09C0E0C3E49CF895E0F9EE28F8EF12A7
