:020000040000FA
:0600000002011A02216C4E
:03002B0002281791
:030053000221E2A5
:03006B000227E584
:1000830002201BE5C754F84401F5C779012200009B
:100093000080FB120086B90003020104E479217891
:1000A30008B800028004F709D8FCE479297802B87B
:1000B30000028004F709D8FCE490028178B3790840
:1000C3008002F0A3D8FCD9FA781A90014A7A01BACF
:1000D30000028007E493A3F608DAF97A337B0A90E7
:1000E300014B786A79048015E493A3AD82AE838AC9
:1000F300828B83F0A3AA82AB838D828E83D8E9D9C6
:10010300E775829F7583A9740312012C758291751B
:100113008300740012012C75D00075813F7518811E
:10012300751902759F00020096C09FF59FE473D076
:100133009F22D083D082C09FE493C0E0740193C018
:10014300E0740293F59F2201FF0000B40000280031
:100153002800283075A000A000A000A0000008001F
:1001630008E001F000100010001000100010001053
:100173000050005000500010001000D00700000095
:100183000000000F0001000500307507001000019A
:100193000081FF00000000FFB206D006B806FF0290
:1001A300020208025000A0000000E8030298900138
:1001B3000000579002A4900100008A0A02768F0182
:1001C3000000B30202A4900100008B0A025A9001BE
:1001D3000000C90202A4900100008C0A025C900195
:1001E3000000CB0202A4900100008D0A025E900879
:1001F3000000CC0202A4900100008E0A026090016C
:1002030000008F0AFF0100FF2002989001000048C0
:100213009002A490010000F30A0262900000000023
:10022300000268900300001903CA0CCA0CCA0CCA66
:100233000CCA0CCA0CCA0CCA0CCA0CCA0CCA0CCA0B
:100243000CCA0CA60FBE0FA00FFFFF110199010FDF
:10025300126404010298900100004E9002A49001E0
:1002630000003B0B0294900100003C0B02689003DA
:10027300000066070266900100003D0B02020202C5
:100283000202020202010D00000010010298900117
:100293000000549002A490010000670B027C9001BF
:1002A30000006C0702A490010000680B027A900121
:1002B3000000698F02A490010000690B027890018D
:1002C30000004D8F02A4900100006A0B027690019A
:1002D30000000B8F02A4900100006B0B029A9001A7
:1002E3000000E78E02A4900100006C0B02729001E3
:1002F3000000F98E02A4900100006D0B02709001C2
:100303000000D58E02A4900100006E0B026E9001D6
:1003130000005B8F02A4900100006F0B026C900140
:100323000000700B01E803053F100A01841300006D
:100333000D09484944204B657962616F726402017B
:10034300050319C103050212180F1860EA00000122
:10035300E413EA1300003F0202192A040601120003
:10036300010E0002120E120A00030298900100000F
:100373004B900274900100005C0902A490010000FC
:10038300420C028A90400000E48F02A49001000016
:10039300460C028E908000005E0902A490010000CA
:1003A300470C029290C00000480C02A49001000088
:1003B300430C028C90400000FE8D0264900100000B
:1003C300440C02A490010000490C029090400000EC
:1003D3005F090268908100006009026690010000D5
:1003E3004A0C02A4900100004C0C029090C0000043
:1003F30066090266900100004D0C02A49001000002
:100403004F0C02849040000067090268908100004D
:10041300680902A490010000500C028890C00000FB
:100423006E0902A490010000510C02869040000066
:100433006F09026890810000700902A49001000016
:10044300520C029090C000007609026690010000F1
:10045300530CFF0001307503020106000000000089
:100463000000000000000000000000000000000089
:1004730000000000000000FFFF0600800CE80304FA
:1004830010029890010000519002A4900100006AAC
:100493000D02A090800000280A02A4900100006BC6
:1004A3000D02A2900000002C0A0268908100002D2A
:1004B3000A1201355D980312013574980312013550
:1004C300A59803120135E098031201350A99031226
:1004D30001353499031201354B99031201356299A1
:1004E30003120135799903120135A29903120135DB
:1004F300B59903120135CB9903120135DE99031225
:100503000135059A0312013530A30212013534A4D3
:10051300021201356CA4021201358FA402120135B7
:100523009AA402120135BDA402120135CCA5021210
:100533000135A1A6021201351CA702120135A4A799
:1005430002120135DFA70212013516A80212013586
:10055300A4A8021201357DA902120135DDA90212F8
:100563000135E8A90212013567AA021201356AAA08
:10057300021201356DAA02120135FCAA02120135DD
:10058300FFAA021201352FAB0212013559AB021239
:10059300013547AC02120135F9AC021201359FE671
:1005A30002120135C7E602120135F5E602120135E2
:1005B3002CE7021201358AE702120135D5E7021250
:1005C300013520E80212013560E802120135A6E880
:1005D30002120135D4E80212013591E90212013504
:1005E3009BE902120135A8E902120135DBE9021287
:1005F3000135A7EA02120135B3EA02120135CBEA4B
:1006030002120135D5EA0212013560A60312013543
:100613006EA60312013586A6031201359EA60312A8
:10062300013573B0011201351FB1011201359AB1C1
:1006330001120135BBB201120135F7B201120135C6
:10064300A0B30112013587B401120135EBB50112D4
:10065300013542B601120135C3B601120135B3B7F4
:100663000112013500B80112013586B801120135B6
:10067300B8B801120135CCBA011201350EBB011213
:1006830001352CBB01120135AFBB0112013583BC0F
:10069300011201354BBD011201351DD00212013586
:1006A300F0D00212013599D102120135ECD10212B8
:1006B30001359CD20212013528D30212013514D41C
:1006C3000212013543D40212013556D50212013507
:1006D3009ED50212013573D602120135AFD602122E
:1006E3000135CBD6021201356EFF01120135CE83DF
:1006F30003120135E483031201350A840312013521
:1007030026850312013530850312013565860312F0
:1007130001355D8703120135B5DC02120135E5DDD4
:100723000212013518DE0212013562DE02120135B2
:1007330029E002120135A79001120135119101122E
:100743000135709201120135809201120135AD928B
:1007530001120135049301120135AD9301120135E4
:10076300B494011201357E9501120135DE96011212
:100773000135219701120135C697011201351398EE
:1007830001120135399801120135479A01120135D9
:100793004C9A01120135519C011201359E9C0112A4
:1007A3000135119D01120135449D01120135E69D6C
:1007B300011201358F9E01120135C79E01120135C9
:1007C300CA9E01120135129F01120135529F011277
:1007D3000135A99F01120135608A03120135788A18
:1007E30003120135C08A03120135D68A031201357B
:1007F3001D8B03120135318C03120135BE8C03129C
:100803000135098D031201354428001201355028A2
:10081300001201358B2800120135D0280012013552
:10082300902900120135162A00120135422A0012BE
:1008330001357B2A00120135B92C001201359D2E9A
:1008430000120135833000120135C6310012013523
:1008530014340012013526350012013571360012A9
:1008630001358137001201359E3700120135D93722
:1008730000120135FB37001201355E3800120135D5
:100883001F3D00120135B43D00120135053E001233
:1008930001352C3E001201357E3E001201359C3E8F
:1008A30000120135F63E00120135F53F0012013505
:1008B3007940001201355CEB0212013566EB02123E
:1008C3000135A9EB02120135C4EB0212013554ECD8
:1008D300021201357CEC02120135B9EC021201352A
:1008E300F0EC0212013519ED021201358EED021200
:1008F3000135A3ED02120135B8ED02120135E9ED20
:1009030002120135FDED0212013522EE021201350C
:100913005CEE0212013588EE021201350BEF021272
:10092300013554EF021201357EEF02120135A9EFB2
:10093300021201357CA10312013500800212013538
:100943002E80021201357C81021201355C82021273
:1009530001357B8202120135F882021201353B8395
:1009630002120135918402120135528502120135BA
:10097300D987021201357A88021201357089021271
:1009830001356D8A02120135C78B02120135528C73
:1009930002120135F89E03120135619F03120135DE
:1009A300B59F03120135DC9F031201350DA003121D
:1009B3000135D1EF021201353EF00212013585F007
:1009C300021201359DF10212013599F2021201352D
:1009D3007CF30212013505F70112013547F70112C5
:1009E300013519F801120135F2F801120135ECF95C
:1009F30001120135CEFA0112013537FB011201351F
:100A0300EDFB0112013561FC01120135CDFC011230
:100A13000135F6FC0112013570FD0112013509FEA5
:100A2300011201356EFE0112013583FE01120135FB
:100A3300C9FE01120135E2FE0112013547FF011221
:100A430001354AFF011201356787031201358F878C
:100A530003120135CD87031201358B88031201354B
:100A6300F288031201350E89031201353689031208
:100A73000135668903120135758903120135F2893F
:100A830003120135188A0312013596A001120135AC
:100A930034A2011201354FA4011201358BA40112B6
:100AA3000135B8A4011201359DA501120135E4A554
:100AB3000112013528A6011201353AA601120135AA
:100AC3007AA601120135A7A601120135F2A6011279
:100AD300013532A70112013560A701120135B2A712
:100AE3000112013542A801120135E0AA01120135B4
:100AF300F6AC0112013534AD01120135C5AE011258
:100B030001350AAF0112013581AF01120135CBAFB7
:100B13000112013534B702120135B3B702120135A0
:100B230075BD0212013584BE02120135ECBF0212FB
:100B3300013583C0021201352256001201356B566E
:100B430000120135985600120135CB5600120135BB
:100B5300D85600120135E45600120135F65600123C
:100B63000135DD57001201353B580012013570582D
:100B730000120135B35900120135005A0012013534
:100B8300245A00120135915A001201354F5B0012AD
:100B93000135085C00120135755C00120135275DD3
:100BA30000120135375D00120135BE5D00120135BB
:100BB3007D5E00120135AA5E00120135235F00122B
:100BC3000135805F00120135CA5F00120135606094
:100BD300001201352B6100120135E061001201356D
:100BE300556200120135B66200120135206300120E
:100BF3000135596300120135FB63001201350B65A2
:100C0300001201354B65001201356865001201358C
:100C1300876500120135CE6500120135F3650012B8
:100C230001352066001201359A6600120135DB6634
:100C330000120135FF6700120135AF68001201355C
:100C430006690012013570690012013589690012C5
:100C530001356AAD02120135BDAD02120135C9ADD0
:100C6300021201359EAE02120135C5AE02120135E4
:100C730000AF021201356CAF02120135A8AF0212A8
:100C83000135E1AF02120135F9AF021201354EB061
:100C93000212013567B002120135B0B002120135FC
:100CA300C3B002120135DDB002120135F3B00212F6
:100CB300013526B2021201356DB3021201356FB44C
:100CC3000212013569B502120135F27F00120135B6
:100CD300CEE901120135FEE901120135C6ED01121B
:100CE30001351DEF01120135E6EF0112013566F101
:100CF3000112013537F20112013574F20112013587
:100D030097F201120135D5F201120135DEF201121B
:100D1300013528F30112013532F301120135DCF3F9
:100D230001120135B5F40112013509F5011201353E
:100D33006BF501120135BEF501120135EDF5011216
:100D430001352AF601120135BB6900120135226D06
:100D530000120135286D00120135AA720012013507
:100D6300237700120135F97A001201354CFC021287
:100D73000135C2FC02120135D8FC0212013519FDFE
:100D83000212013553FD02120135CCFD0212013569
:100D930007FE021201357AFE02120135B8FE021275
:100DA3000135C1FE02120135CDFE02120135E9FE05
:100DB3000212013514FF021201352AFF0212013516
:100DC30053FF02120135B6FF02120135DCE10212B4
:100DD3000135EFE10212013509E20212013532E277
:100DE3000212013575E202120135B4E20212013535
:100DF300F2E20212013557E3021201356CE30212EB
:100E0300013577E30212013584E3021201359BE3D6
:100E130002120135A9E302120135B4E302120135CE
:100E2300C0E302120135D3E302120135DEE30212FD
:100E3300013501E402120135A8E402120135B8E4D8
:100E430002120135D2E402120135EFE40212013538
:100E53000BE50212013530E5021201353BE50212C2
:100E6300013550E50212013564E502120135C5E58D
:100E730002120135CBE502120135D1E5021201352B
:100E8300D7E502120135EFE50212013522E602121F
:100E93000135D5CD0112013559CE0112013508CFE7
:100EA3000112013567D00112013588D201120135D3
:100EB30074D301120135A9D301120135CBD3011229
:100EC30001357AD40112013572D6011201359BD650
:100ED300011201352DD7011201355FD701120135FA
:100EE3006CD701120135C3D701120135E9D70112BD
:100EF300013556DA0112013559DB01120135B1DB37
:100F03000112013564BF011201356EC001120135B2
:100F130055C1011201355FC10112013581C10112B1
:100F230001358DC10112013526C30112013555C3A7
:100F33000112013571C401120135CAC40112013510
:100F430030C6011201350FC7011201356BC70112FB
:100F53000135D8C70112013513C80112013552C832
:100F6300011201350BCB0112013525CB01120135DD
:100F7300B1CB01120135BFCB0112013518CC0112DF
:100F8300013526CC0112013599CC01120135FDCC76
:100F93000112013547CD01120135029802120135C4
:100FA3002498021201354A9A021201355F9D0212FA
:100FB3000135779E021201352A9F021201350CA0DA
:100FC30002120135179A031201353C9A03120135B7
:100FD300AE9A03120135A3C802120135ACC802123E
:100FE3000135B5C8021201358CC9021201353DCB5A
:100FF3000212013573CB02120135ADCB021201355A
:10100300E3CB021201351DCC0212013551CC021281
:1010130001357DCC02120135C6CC0212013500CD5B
:101023000212013549CD02120135A1CD021201355B
:10103300D6CD0212013531CE021201356BCE02122A
:101043000135BCCE02120135F2CE021201352CCF8E
:10105300021201355ACF021201357DCF021201353A
:10106300F8A70312013524A8031201357FA8031240
:10107300013589A80312013599A80312013540D718
:10108300021201354AD70212013588D702120135FF
:10109300D1D7021201350BD80212013561D80212E1
:1010A300013582D8021201358BD802120135D6D808
:1010B30002120135FFD80212013509D90212013596
:1010C30075D9021201350BDA0212013555DA021213
:1010D300013585DA021201350EDB021201354EDBD2
:1010E3000212013586DB0212013598DB021201354B
:1010F300B7DB02120135C0DB021201358BDC0212B1
:10110300013599A3031201356E9603120135A49696
:1011130003120135DA9603120135239803120135C0
:10112300A3A803120135B9A803120135C3A80312FA
:1011330001350DA903120135487B001201355D7B92
:10114300001201350D7C001201354D7C0012013572
:10115300667C001201359A7C00120135E77C00128F
:1011630001351B7D001201355D7D00120135617F64
:1011730000120135C77F001201353BA90312013567
:1011830090A403120135B9A403120135E2A403129A
:101193000135FAA4031201353CA503120135008081
:1011A30003120135308003120135438003120135E8
:1011B300728003120135F080031201350F8103128F
:1011C3000135BA81031201354C8203120135D182F4
:1011D30003120135978303120135338D0312013551
:1011E300588D0312013540AA03120135E040001265
:1011F30001353A4300120135134400120135C1454C
:1012030000120135C346001201354C470012013567
:10121300D04700120135F547001201354548001249
:1012230001357E4B00120135F24B00120135E34CC0
:10123300001201351D4D001201355D4D00120135BF
:10124300104F00120135634F00120135AC4F0012ED
:1012530001351A50001201354C500012013564500B
:101263000012013575510012013585510012013507
:10127300A05200120135C25200120135F852001279
:1012830001359C5400120135DB5400120135FD5524
:101293000012013537A70312013548A703120135A0
:1012A300EDA703120135F7A90312013536AA03127C
:1012B3000135E6FF0212013581A50312013591A51F
:1012C30003120135A6A5031201355AA603120135EF
:1012D30095A2031201351AA30312013580A3031249
:1012E300013553A0031201357AA003120135D0A0B2
:1012F30003120135E2A00312013532A103120135B5
:1013030070A10312013573A10312013548F80212CB
:1013130001355CF802120135D5F802120135AAF93C
:10132300021201357CFB02120135E1FB0212013589
:1013330038FC02120135F87F0012013512920312B4
:1013430001359D9303120135FE9303120135449435
:1013530003120135D38C02120135338D021201358C
:10136300358E02120135578E021201356A8E021232
:101373000135FF8E02120135CA9002120135039323
:10138300021201350D9402120135729402120135D5
:10139300CD94021201352B95021201356C95021280
:1013A30001356F9502120135B99502120135BC96CC
:1013B300021201355E9702120135AA970212013516
:1013C300CF97021201353EF402120135F4F50212F1
:1013D30001354EF602120135D1F60212013524F71A
:1013E3000212013569F70212013545F8021201357F
:1013F3004794031201359A9503120135029603129D
:1014030001355B9D03120135AB9D03120135349EFB
:10141300031201359A9E03120135D58F031201354C
:10142300FF8F03120135C59003120135A0910312FA
:101433000135ADC0021201356AC102120135A5C1E1
:1014430002120135CDC1021201352FC2021201353C
:101453007BC202120135DBC2021201356EC30212D6
:1014630001356DC402120135FCC5021201357FC678
:1014730002120135E6C602120135FDC6021201351C
:1014830007C80212013545C802120135FFDB0112FC
:1014930001355FDF01120135E7E0011201353EE15D
:1014A300011201355DE101120135DBE10112013564
:1014B3006BE3011201354FE4011201355BE80112C0
:1014C30001352BE901120135BC9B03120135EC9B5D
:1014D30003120135049C03120135539C0312013599
:1014E300589C03120135249D0312013587AA031268
:1014F3000135D47F00E066701008A3E066700A0827
:10150300A3E066700408A3E06622C3E7960809E730
:10151300960809E7960809E79622C3E09608A3E030
:101523009608A3E09608A3E09622C008C3E096F5C8
:101533000808A3E096420808A3E096420808A3E03F
:101543009645087001D3D00822080808EAC0E0EBEA
:10155300C0E086F0E7A4FA180986F0E7A42AFA188F
:101563000986F0E7A42AFA180986F0E7A42AFA19EB
:1015730086F0E7A4FBE5F02AFA190886F0E7A42B26
:10158300FBE5F03AFA190886F0E7A42BFBE5F03AFD
:10159300FA18180986F0E7A4C5F02BFBE43AFA1908
:1015A30008E7C5F0C6A426F6E5F03BFBE43AFA18D3
:1015B30086F0E7A4F6E5F00826F6E43B08F6E43AFD
:1015C30008F6D0E0FBD0E0FA22E4CFC0E0E4CEC0DE
:1015D300E0E4CDC0E0E4CCC0E075F020E626F608F8
:1015E300E633F608E633F608E633F6181818EC3354
:1015F300FCED33FDEE33FEEF33FFC3EC9709ED97BC
:1016030009EE9709EF97191919400FFFEC97FC0999
:10161300ED97FD09EE97FE191906D5F0BFECF70912
:10162300EDF709EEF709EFF7191919D0E0FCD0E04F
:10163300FDD0E0FED0E0FF226016080808C6C31301
:10164300C618C613C618C613C618C613C6D5E0EA0D
:10165300227009080808226016181818C6C333C672
:1016630008C633C608C633C608C633C6D5E0EA2261
:10167300E627F60809E637F60809E637F60809E625
:1016830037F622E026F608A3E036F608A3E036F69E
:1016930008A3E036F622E026F008A3E036F008A31C
:1016A300E036F008A3E036F022C3E697F60809E631
:1016B30097F60809E697F60809E697F622C3E09637
:1016C300F008A3E096F008A3E096F008A3E096F0F4
:1016D30022E056F608A3E056F608A3E056F608A360
:1016E300E056F622E056F008A3E056F008A3E056D1
:1016F300F008A3E056F022E0F608A3E0F608A3E022
:10170300F608A3E0F622E6F008A3E6F008A3E6F065
:1017130008A3E6F022E0FAA3E0FBA3E0FCA3E0FDCC
:1017230022EAF0A3EBF0A3ECF0A3EDF022E0F8A3A0
:10173300E0F9A3E0FAA3E0FB22E8F0A3E9F0A3EACF
:10174300F0A3EBF022CAC0E0E6F0A308DAFAD0E097
:10175300FA22CAC0E0E0A3C582CCC582C583CDC549
:1017630083F0A3C582CCC582C583CDC583DAE6D019
:10177300E0CA22C3E498F8E499F91217B78026C3A4
:10178300E49AFAE49BFBE920E7E91217B7E498F837
:10179300E499F922C3E498F8E499F91217B7E498A5
:1017A300F8E499F9C3E49AFAE49BFB22EB20E7CF30
:1017B300E920E7E0B90010BB0008E88AF084F8AA42
:1017C300F022E4FBC8FA22EB70227B10C833C8C9AD
:1017D30033C9335007C39AC3DBF280069A50012AF8
:1017E300DBEAC833F4C8C933F4C9FA2275F008E454
:1017F300C833C8C933C933C99AC99B5004C92AC954
:101803003BD5F0ECFBC833F4C8E4C9FA22600D08F9
:10181300C6A2E713C618C613C6D5E0F322600C08A8
:10182300C6C313C618C613C6D5E0F42270042260DB
:101833000D18C6C333C608C633C6D5E0F41822252F
:101843001810AF08F518400C15198008F518400258
:101853001519D2AF2200C0D0251810AF08F51850C3
:101863000C05198008F51850020519D2AFD0D02203
:101873002518F58210AF08F518400C15198008F5E6
:101883001840021519D2AF851983222518F582E471
:101893003519F583222518F8E43519F9222518FAA4
:1018A300E43519FB222518FCE43519FD22E47325E0
:1018B30018C582C0E0E51934FFC583C0E0E518C34D
:1018C300958224F810AF08858319858218800885CE
:1018D3008319858218D2AFCEF0A3E520F0A3780850
:1018E300E608F0A3DEFAEFF0A3E58124FAF8E608B0
:1018F300F0A3E608F0A3E608F0A30808E608F0A3BF
:10190300E608F0A315811581D0E0FED0E0F815813B
:1019130015811581E8C0E0EEC0E0222518C582C01C
:10192300E0E51934FFC583C0E0E518C3958224F9C7
:1019330010AF0885831985821880088583198582ED
:1019430018D2AFCEF0A3E520F0A37808E608F0A301
:10195300DEFAEFF0A3E58124FBF8E608F0A3E6083E
:10196300F0A30808E608F0A3E608F0A315811581A3
:10197300D0E0FED0E0F815811581E8C0E0EEC0E0CC
:1019830022851983851882E0A3FEE0A3F520780859
:10199300E0A3F608DFFAE0A3FFE0A3C0E0E0A3C002
:1019A300E0E0A3C0E0E0A3C0E0E0A3C0E010AF0824
:1019B3008582188583198008858218858319D2AF9B
:1019C300D083D082020132851983851882E0A3FE79
:1019D300E0A3F5207808E0A3F608DFFAE0A3FFE030
:1019E300A3C0E0E0A3C0E0E0A3C0E0E0A3C0E01038
:1019F300AF08858218858319800885821885831925
:101A0300D2AFD083D08222C0D02518C582C0E0E5F2
:101A13001934FFC583C0E0E518C3958224F310AFE2
:101A2300088583198582188008858319858218D2D1
:101A3300AFC8F0A3E9F0A3EAF0A3EBF0A37908E7BA
:101A430009F0A3D8FAECF0A3EDF0A3EEF0A3EFF0C6
:101A5300A3D0E0F0A3D0E0F0A3D0E0F0A3E520F022
:101A6300A3E5F0F0A322851983851882E0C0E0A3E3
:101A7300E0F9A3E0FAA3E0FBA37808E0F608A3DF0C
:101A8300FAE0FCA3E0FDA3E0FEA3E0FFA3E0C0E0D7
:101A9300A3E0C0E0A3E0F5D0A3E0F520A3E0A3F525
:101AA300F010AF088583198582188008858319850E
:101AB3008218D2AFD082D083D0E0F8D0E032740461
:101AC3008006740280027401C0E0F404121873D01B
:101AD300E0121748227404800474028000CCC0E032
:101AE300EDC0E0E518C39CCCAD1950011D10AF0645
:101AF3008C188D1980068C188D19D2AF121755D0FA
:101B0300E0FDD0E0FC22D083D082E9C0E0E493A3DF
:101B1300C386F0C5F095F0F908E493A386F0C5F009
:101B230095F0700BE493A3C3994005E9048002A3E5
:101B3300E475F002A42582F582E5F03583F583D0C0
:101B4300E0F9E493A3C0E0E493C0E022D083D08221
:101B5300ECC0E0EDC0E0E493A3FCE493A3FDED4C03
:101B6300600D121B9BEC24FFFCED34FFFD80EFE4C2
:101B730093A3FCE493A3FDED4C600D121BDAEC245C
:101B8300FFFCED34FFFD80EFD0E0FDD0E0FCE493FB
:101B9300A3C0E0E493C0E022C0E0C3E493960874DA
:101BA30001939618400FE4936670080874019366D6
:101BB3001870007019A3A3C3E49396087401939655
:101BC30018A3A3400DD0E0D0E0D0E0021B8BA3A369
:101BD300A3A3A3A3D0E022C0E0C0F088F0E49366FF
:101BE30070080874019366187000A8F0A3A3700B23
:101BF300D0F0D0E0D0E0D0E0021B8BA3A3D0F0D094
:021C0300E022DD
:101C080074F512191EEAFEEBFFEE2434F8EF3400E7
:101C1800F988088909EE2435121D34F8EE243712A4
:101C28001D34F50AEC850AF0A4FCAAF0850AF0ED4B
:101C3800A42AFDE82CF8E43DF97A257B001217B7B1
:101C4800EA850882850983F074075AF87401B80098
:101C5800028004C333D8FCFBEA131313541FF8EEB5
:101C680028F8EF3400F9E8245DF582E9121D375BA6
:101C78006003EA801CEE2436121D34F5F0EA84A8CD
:101C8800F0EE28F8EF3400F9E82438F582E9121D5F
:101C980037F97F040219CA74F512191EEAFEEBFF20
:101CA800EE2434121D34C0E0EE2435F582EF340002
:101CB800F583D0E0F08E828F83A3A3A3A3A3E0FAD9
:101CC800A3E0FB8E828F83A3A3A3A3A3A3A3E0FC1B
:101CD800A3E0FDECC39AF50AED9BF50BEE247FF526
:101CE80008EF3400F509850882F583E06401702B5C
:101CF800EE2480F582EF3400F583121ADC121D3DC4
:101D08007402121858E960137CDC7D04EEFAEFFBCC
:101D1800120BF2850882850983E4F0AC0AAD0BEE5C
:101D2800FAEFFB121C081227D1021C9AF582EF3435
:101D380000F583E022C082C083851882851983E07C
:101D4800F8A3E0F9C3EA9CEB9D5010C3EC98ED9919
:101D5800401BC3EA98EB995014800EC3EA98EB999C
:101D68004007C3EC98ED994004790180027900D0CE
:101D780083D08222EAC39CFAEB9DFB2274ED1219F0
:101D88001E9003A2E064086005E06407702C90616F
:101D9800C8E060269003D0E0F874FF68601CE8751E
:101DA800F003A4C8AAF02AF974D228FE740339FFF4
:101DB8008E828F83A3A3A3E070057900021F24EE0F
:101DC8002468F510EF3400F511906060E08510820A
:101DD800851183F0750A45750B05750800750900AE
:101DE800E5D914F50EE5D95403F50F601CEE2482ED
:101DF800F50CEF3400F50D7403650F6058E50E60BF
:101E080013EE2467121D34700B793DEEFAEFFB12C6
:101E18000C1680A6900540E064016026850C82853A
:101E28000D83E06004780480027800850E08E508D8
:101E3800C398FA95E0FB120A9C8A088B09EA4509BF
:101E48007006120E74021DC2850C82850D83E07027
:101E5800048A0A8B0B78008016E5D9C0E08812E561
:101E68000A2512F582E50B3400F583D0E0F008E886
:101E7800C3950E40E4850C82850D83E0602874FCD0
:101E8800250EF50E780A121AC5AC0EA90FEEFAEF58
:101E9800FB120CC47402121858E9700AAA08AB099C
:101EA800121408021E117403650F6058850E0C7514
:101EB8000D00780C121AC5AC0AAD0BAA08AB0912B2
:101EC8000C887402121858851082851183E0F87402
:101ED80080687005750C7F8002880CE50CF50A781F
:101EE8000A121AC9E50FF50A780A121AC9A90EAC1E
:101EF80008AD099003D0E0FA7B001209347402128D
:101F0800185880139003A2E06408600BAC0AAD0B6C
:101F1800EEFAEFFB120D5A120E8079017F0C0219AE
:101F2800CA74F312191E74FC121842EAFEEBFF89F8
:101F380008A2AFE433F509C2AFEE2463F50AEF3423
:101F480000F50B8010AA0AAB0B120C401214089073
:101F580004E3E004F0850A82850B83E0F8A3E0F946
:101F6800E849602FE82402FAE93400FBEA2402F584
:101F78000CEB3400F50D780C121AC58A828B83E0BD
:101F8800FCA3E0F9EEFAEFFB120C347402121858B5
:101F9800E960B29004E3E060579004E4E0F890044C
:101FA800E3E0C398500C7402650870449004E5E0BF
:101FB800603E8E828F83A3A3A3A3E0851882851930
:101FC80083122008740212188EE81220089004E286
:101FD800E028F0740212188EAC82AD8385188285D1
:101FE8001983AA82AB8379011209409004E3E4F0D3
:101FF800E509A2E092AF74041218587F060219CAC4
:10200800F0A3E4F09004E3E0F8220000852187853E
:1020180022C622C0E074EF121A0AA2AFE433FEC24D
:10202800AF759B00906182E0A2E05012E591A2E0BA
:10203800500C7591FE740165217003121D84E0A295
:10204800E55051E591A2E5504B7591DF9003A2E070
:1020580064076005E06408702374016521703579B0
:10206800019003D0E0FA75F003A4CAA8F028FB7425
:10207800D22AFA74033BFB121F298018E0640D7002
:10208800139003C4E004F064287002E4F07A00E0DE
:10209800F9120E86906182E0A2E64003022142E531
:1020A80091A2E640030221427591BF9003A2E06429
:1020B800057008120D9C120DA88003120DA275213F
:1020C80000120E14E99003A3F07900120E08120B07
:1020D8005C7A017B009003A1E0F91210D890780394
:1020E800E064427055900544E014F0704DC2AF12A0
:1020F80020FA00782AD0E0F618D0E0F6E59F5407D9
:1021080070057509FF800375097FC4C0E07829E66A
:10211800F50808E65509F509740B7808121820D057
:10212800E02508F8906270E0A2E740F8E8C3339031
:102138006272F0906270E0D2E0F0906181E0A2E318
:102148005009E5E9A2E3500375E9F7A3E0A2E750D7
:1021580009E591A2E7500375917FEEA2E092AF7F67
:1021680004021A69C0E0C0D0C082C083906183E0D5
:10217800A2E05009E5BFA2E0500375BFFEE0A2E16E
:102188005009E5BFA2E1500375BFFDE0A2E2500986
:10219800E5BFA2E2500375BFFBE0A2E35009E5BF2B
:1021A800A2E3500375BFF7E0A2E45009E5BFA2E43B
:1021B800500375BFEFE0A2E55009E5BFA2E5500363
:1021C80075BFDFE0A2E65009E5BFA2E6500375BF80
:1021D800BFD083D082D0D0D0E032C0E074F2121ADF
:1021E8000AE5A7A2E4500FE5A1A2E4500953A7EF1E
:1021F80075A1EF122236E5A7A2E5500CE5A1A2E5EC
:10220800500653A7DF75A1DFE5A7A2E15009E5A1B4
:10221800A2E1500375A1FDE5A7A2E2500CE5A1A239
:10222800E2500653A7FB75A1FB7F01021A6974F8F7
:1022380012191E7521019003A2E0640670077A0046
:102248007B00120D84A2AFE433FED2AF9003A8E066
:10225800640170187A207B009003A1E0F912115CE8
:102268007A207B009003A1E0F91210DE906182E0F1
:10227800D2E6F0900541E0602185C62280169003E1
:10228800A7E064017008E5C654F84405F5C653BED6
:10229800FC1220147401652160E4EEA2E092AF7F85
:1022A800010219CA8E238F248582288583278518E1
:1022B80082851983E0CEA3E0CF852882852783EB2A
:1022C800C9EAC8EDCBECCA75F010C3E833C8E933E6
:1022D800C9EA33CAEB33CBC3EA9EF526EB9FF52553
:1022E800B35004AB25AA26EC33CCED33CDD5F0DAC8
:1022F800AE23AF242274E912191E74FA121842EAA6
:10230800FEEBFF8C088D099003A2E024F7C3940527
:102318005006751001022428120CFA8A0A8B0BEA5F
:10232800450B7003022425120DBA8A0C8B0D120D71
:10233800BAEA650C7003EB650D60ECEEFCEFFD8509
:102348001882851983AA82AB83120DC0850A8285FB
:102358000B83A3A3780C1216FA908FCC780C121664
:10236800D485188285198378141216FA908FCC7840
:10237800141216D4780C791412150D501F780C7994
:10238800141216AC908FB4780C12152D4047850C9A
:1023980010850D11850E12850F138045908FB48519
:1023A80014108515118516128517137810790C12DB
:1023B80016AC781012152D501C751000751100758B
:1023C8001200751301781079141216AC7810790C74
:1023D800121673800C7510017511007512007513B3
:1023E8000074097810121654909018780C1216FA86
:1023F8007810790C1215CC9003A2E06408600AE00A
:1024080064066005E064057020908FB87810121596
:102418002D5016908FBC7810121686800C751000FF
:102428007511007512007513008508828509837877
:102438001012170974061218587F100219CA74F777
:1024480012191E120DD290053FE0640170109062BF
:1024580045E4F0A3F053F4F343FE0C5390F3120D4C
:1024680072E5C654804449F5C6E59E547F644970B8
:10247800F8906185740FF090053DE0F47002A3E0D8
:10248800602C75080175090090053DE07808121860
:102498002FE508F4FAA3E0600814600A14600C80C1
:1024A8000DEA52808008EA52908003EA52A079002F
:1024B8007F020219CA74F712191EE9FEEAFF7401B5
:1024C8006E700C7A807B009003A1E0F91210D8900E
:1024D800283CE493F46008E493F9120B3E80095316
:1024E800C680E59E547F70FA120D7890053FE0642F
:1024F800017003120B7490053DE0F47002A3E060D4
:102508002A75080175090090053DE0780812182F12
:10251800AA08A3E0600814600A14600C800DEA425F
:10252800808008EA42908003EA42A0120CFA8A08E6
:102538008B09A808A909E8496017E5E170FCE824B7
:1025480014F582E93400F583E0F874FF68600288C6
:10255800E174016F700A7A019003A1E0F912112C5D
:102568000224B874F112191E8A088B098C0A8D0B83
:10257800908FCC78081216D4740F12188E780C121B
:1025880016FA908FCC780C1216D47808790C12159C
:102598000D908FB450107808790C1216AC78081288
:1025A800152D4014800E780C79081216AC780C1290
:1025B800152D50047901800279007F080219CA7428
:1025C800ED12191E8A088B098C0A8D0B908FCC7816
:1025D800081216D4741312188E780C1216FA908FEB
:1025E800CC780C1216D4780C790812150D40117895
:1025F80008790C1216ACAA08AB09AC0AAD0B8022FC
:102608007510007511007512007513017810790C9A
:102618001216AC78107908121673AA10AB11AC1206
:10262800AD137F0C0219CA908FCC78081216FA8A5B
:10263800828B8378081216E77F040219CA74F51290
:10264800191E8C828D8378081216FA8A828B8378F9
:10265800081216C0122699C3E098F0A3E099122632
:102668008B401E908FF878081216FA8A828B83782E
:10267800081216998E828F83E02420F0A3E0344E4E
:10268800F080A4F08E828F83C3E09420A3E0944E60
:1026980022EA2404F8EB3400F9E8FEE9FF8C828D85
:1026A80083A3A3A3A3E0F8A3E0F98E828F83227407
:1026B800F512191EE9FE9004F7E0FAA3E0FBEEC359
:1026C80033F8E433F9741D28F582748F39F583E003
:1026D8002AF508A3E03BF5097808121AC59090443A
:1026E8001217181222AC74021218588A088B098C17
:1026F8000A8D0B7410780812163BAA08AB097F04E0
:102708000219CA74F112191E8A0C8B0D8C0E8D0FCA
:10271800740F12188EE0FAA3E0FB741112188EE001
:10272800F508A3E0F5097808121AC5EA2401F508A6
:10273800EB3400F509E4F50AF50B780C7908121565
:102748004C908FC878081216FA780C790812154C34
:10275800AA0CAB0DAC0EAD0F1222AC7402121858B5
:102768008B09EA450960047A0180027A00EC2AFCA8
:10277800ED3400FD741312188EE0F8A3E0F9E8FEBA
:10278800E9FFECF8EDF97A717B021217B78808892E
:1027980009E4F50AF50B8E828F837808121709EC85
:1027A800F8EDF97A717B021217B78A088B0974055C
:1027B800780812182F8E828F83A3A3A3A3E508F0AD
:1027C800A3E509F07F080219CAC082C083E99060B6
:1027D80000F0D083D08222C2AF02000022C0E07491
:1027E800F2121A0AA2AFE433FED2AFE589A2E040A2
:1027F80006E589A2E150031212FA7589007589006D
:10280800C2C5751A00EEA2E092AF7F01021A69C034
:10281800E0C0D0E8C0E0E9C0E0E5A8D2AFC2C77523
:102828001A00A2E7A2E792AFD0E0F9D0E0F8D0D042
:03283800D0E032BB
:10283C00FFFFFFFFFFFFFFFFC082C083E9900AF29A
:10284C00F0022A6E74F71218B2E99002E1F07C19CA
:10285C007D037AFF7BFF1208929002E274FFF0A3D3
:10286C00F0A3E4F0A3F079051208209002E1E0F95E
:10287C001207427AAA7B08120A4E7F01021984744D
:10288C00F41218B28A088B09EB548060309002E184
:10289C00E0F91210C08A0A8B0BAE0AAF0BEE4F6038
:1028AC00138E828F83E064B07003120832EEFAEF5D
:1028BC00FB1210AEAA08E5096480FB80047A007B49
:1028CC0000022A3D74F21218B274FC121842EAFE8D
:1028DC00EBFFEE4F6038740212188EEEF0A3EF127D
:1028EC002CA2ECF0A3ED122CA2AA82AB8312073C13
:1028FC00E9F5087073741212188E123856E50A45F1
:10290C000B60658E828F8312297EEE4F70057508E1
:10291C000280557A067B001211148A0C8B0DA80CC0
:10292C00A90DE8497005750813803D88828983E4F8
:10293C00122988A3A3EEF0A3EF123CEFE50AF0A353
:10294C00E50BF09002E7122A109002E76017E0FC0A
:10295C00A3E08003EAFCEBFD8C828D83122A1070BD
:10296C00F38C828D8312377BA908740412185802D9
:10297C003EF1A3A3A3A3E0FEA3E0FF22F0A3F08803
:10298C008289832274F21218B2890AE975F017A4AD
:10299C00FEAFF09002E6E4F09002E4122A10600A16
:1029AC0012111A9002E4E4F0A3F0EEFAEFFB12110C
:1029BC00148A088B09EA4509602FEEFCEFFD7900BB
:1029CC0012109C9002E4E508F0A3E509F07B00806E
:1029DC00081229FAE4F0A3F00BEBC3950A40F2E5D8
:1029EC000A9002E6F0790080027913023EF1EB7551
:1029FC00F017A4F8A9F09002E4E028FAA3E0398AD1
:102A0C0082F58322123511EA4B2274F41218B27932
:102A1C0000EAA2E0501B75089E75098F7808121AFF
:102A2C00C57C047D007AF47B0A12081A7402121811
:102A3C00587F04021984C082C0839002E7122A7561
:102A4C00601C88828983A3A3E06A7003A3E06B886F
:102A5C0082898370E8A3A3A3A312350D80047A00A6
:102A6C007B00D083D082020132123FC4E849227429
:102A7C00EE1218B274FC121842EAFEEBFF851882B3
:102A8C00851983E4F0A3F0EE240212375FEE2405DF
:102A9C00122C90EE2404F50EEF123075E024FE603B
:102AAC003924FC604624FE605224FE605E24FE70D5
:102ABC0003022B9524FE7003022C0D24FE700302DE
:102ACC002C1C24FE7003022C2B24FC7003022C3AC9
:102ADC0024FE7003022C49022C869003007417F01C
:102AEC00A3E4122CAA1204BA022C8685188285192A
:102AFC0083AC82AD83120838022C56851882851956
:102B0C0083AC82AD8312083E022C56850C08850DD1
:102B1C0009740212188EAC82AD83850882850983F4
:102B2C0012350D1207608A0C8B0DAC0CAD0DEC4DF3
:102B3C006042E4F50CF50D780C121AC5750C007595
:102B4C000D03780C121AC5750C01750D03780C1257
:102B5C001AC5740812188E121ADC7916123507125F
:102B6C00087A7408121858E9F50C700B1235031218
:102B7C0004D2800F750C01850882850983122C986C
:102B8C0012377B850C08022C59740212188EAC82F9
:102B9C00AD83850C82850D8312350D1207608A106A
:102BAC008B11AC10AD11EC4D6043850C82850D83FF
:102BBC00A3A3121ADC7510007511037810121AC534
:102BCC007510017511037810121AC5740812188E3D
:102BDC00121ADC791612350712087A740812185872
:102BEC00E9F509700B1235031204D8800F75090131
:102BFC00850C82850D83122C9812377B85090880F1
:102C0C004C851882851983AC82AD83120844803AB6
:102C1C00851882851983AC82AD8312084A802B8576
:102C2C001882851983AC82AD83120850801C8518DC
:102C3C0082851983AC82AD83120856800D8518826B
:102C4C00851983AC82AD8312085CE9F508E5086050
:102C5C00298E828F83A3E06414601F850E82850FFA
:102C6C0083E0900300122CA2123FC0900301123794
:102C7C007BE508A3122CAA1204B4EEFAEFFB1207A0
:102C8C00DE023667F50CEF3400F50D22123FC485D9
:102C9C00188285198322F085188285198322F07C8D
:102CAC00007D03850A82850B831235112274EE1286
:102CBC0018B274FC1218428A0A8B0B8C0E8D0FEA18
:102CCC002405F508EB3400F5097C157D0079007AB4
:102CDC00007B0312109CE5082402F50CE509122C6C
:102CEC00938518828519838582108583117810123B
:102CFC001AC5850882850983A3A3A3A31231BD122B
:102D0C001AC5E5082405F510E5093400F51178100D
:102D1C00121AC5850C82850D8312351712075A7449
:102D2C00061218588A108B11AE10AF11E50A240246
:102D3C00F50AE50B123762EE4F7003022E7F8017F7
:102D4C00740212188E12350D88828983EAF0A3EB77
:102D5C00F0900300E004F0900300E0C394054003FE
:102D6C00022E7FE4F510F5117810121AC57510E9D2
:102D7C007511027810121AC57510EA7511027810C7
:102D8C00121AC5740612188E121ADC7910EEFCEFAA
:102D9C00FD12350712087A7408121858E9705E850E
:102DAC000882850983A3A3A3A3A3A3A3E0F890029D
:102DBC00E9E06870481231BD121AC57CEA7D02E563
:102DCC00082408FAE5093400FB1210967402121854
:102DDC0058E960298E828F83A3A3A3A312350D908B
:102DEC000300E0F5107402781012182F74012510EE
:102DFC00F58274033511F583EAF0A3EBF07402123B
:102E0C00188E8582108583117810121AC5740212DF
:102E1C00188E121ADC850C82850D83123FD5120791
:102E2C006674041218588A108B11AE10AF119003EF
:102E3C0000E0F5107511007402781012182F740050
:102E4C002510F874033511F988828983A3122A108E
:102E5C007003022D43E82403F8E93400F9EE4F60C7
:102E6C0003022D4C8882898374FFF0A3F090030039
:102E7C00E004F0900300E0600A1235031204C679F6
:102E8C0000800B850882850983123772790A023615
:102E9C006774EA1218B274FE1218428C128D13EA7F
:102EAC002405F50CEB123FDF122982750800750919
:102EBC0000EA2402F510EB3400F51185188285190F
:102ECC008385820A85830B780A121AC5850C828544
:102EDC000D83A3A3A3A312307F121AC5E50C2405FE
:102EEC00F50AE50D123762780A121AC5850C82852F
:102EFC000D83123FD312075A74061218588A0A8B84
:102F0C000BEA450B7003023030EA2404F50EEB1289
:102F1C0030751229828A828B83A3A3A3E0F98510D2
:102F2C008285118312350D120748E9F509600302F9
:102F3C003030E4F514F5157814121AC57514E975CA
:102F4C0015027814121AC57514EA75150278141244
:102F5C001AC5740612188E121ADC7913AC0AAD0B52
:102F6C0085108285118312350D12087A7408121897
:102F7C0058E9F50960030230309002E9E0F8E50801
:102F8C007009E02402900301F08017900301E0FC2B
:102F9C00E82402FAE43400FBEA6C7001EB600302F3
:102FAC003034850882AA821231B494141231AC5098
:102FBC0073850E82850F83E0C0E074022A12306C98
:102FCC00D0E0F00508850E82850F83A3E0C0E08574
:102FDC00080A7402250A12306CD0E0F00508900241
:102FEC00E912307F121AC57CEA7D0285080A740248
:102FFC00250AFA74033400FB121084740212185858
:10300C009002E9E02508F50874FF6E700374FF6FF9
:10301C006012EE24010EEF3400FFE508C394145047
:10302C0003022EC7E50860131233F8851082851150
:10303C008312350D1204CC79008014E509700375E8
:10304C00090A851282851383EEF0A3EFF0A90974A7
:10305C00021218587F0E02198485080C7402250C74
:10306C00F58274033400F583223400F50F850E824B
:10307C00F58322123D022274EE1218B274FE12185D
:10308C00428C0E8D0FEA2405F50CEB122C93750B6C
:10309C0000900300E4F0F50AEA2402F508EB340092
:1030AC00F5098049900300E0FA9002E9E0F812314A
:1030BC00B494171231AC400D900300E0F87416C3B1
:1030CC00989002E9F01231BD121AC57CEA7D0274A7
:1030DC00012AFA74033400FB12108474021218587B
:1030EC009002E9E0F8900300E028F0050AE50C24D2
:1030FC0016F582E50D123070E0F8E50AC39840032E
:10310C00023195900300E0C39416507DE50AC33359
:10311C00F8E433F9E50C28FEE50D39FF85188285B6
:10312C001983AC82AD838E828F8312350D120760AA
:10313C008A108B11AC10AD11EC4D7005750B018024
:10314C0043E4F510F5117810121AC57510E97511D4
:10315C00027810121AC57510EA7511027810121A3D
:10316C00C5740612188E121ADC7916850882850928
:10317C008312350D12087A7408121858E9F50B7081
:10318C00030230B012376E80107C007D03850882FC
:10319C0085098312350D1204DEA90B7402023669FF
:1031AC00E99400C365D03322EA28F8E43400F9E846
:1031BC0022E0F51075110078102274EA1218B2741E
:1031CC00FC1218428A0C8B0D8C128D13EA2405F517
:1031DC000AEB123762750800750900E50A2402F53E
:1031EC0010E50B3400F511740212188E85820E85D1
:1031FC00830F780E121AC5850A82850B83A3A3A3AD
:10320C00A3123CAE121AC5E50A2405F50EE50B34E3
:10321C0000F50F780E121AC58510828511831237AE
:10322C006812350712075A74061218588A0E8B0F3B
:10323C00AE0EAF0FE50C2402F50EE50D3400F50FC4
:10324C0080408882898374FFF0050812306574FF12
:10325C00F005089002E9E0F50C750D00780C121AD7
:10326C00C57CEA7D0285080C7402250CFA740334C3
:10327C0000FB12108474021218589002E9E0250821
:10328C00F508EE4F60718E828F83A3A3A3E0F985BE
:10329C000E82850F8312350D120748E9F509EE24CD
:1032AC0004122C90E97044E4F514F5157814121AF4
:1032BC00C57514E97515027814121AC57514EA75DA
:1032CC0015027814121AC5740812188E121ADC79A9
:1032DC0011EEFCEFFD850E82850F8312350D120861
:1032EC007A7408121858E9F5096027850C82850D47
:1032FC00831233EE12377BE50870030233D412339A
:10330C00F8850E82850F8312350D1204E4790002C4
:10331C0033E9850882AA82EA9002E97009E0240464
:10332C00900301F08022E0F8900301E0F514E8240A
:10333C0004FCE43400FDEC65147001ED70C0123136
:10334C00B494121231AC50B6850C82850D83E0C05A
:10335C00E074022A12306CD0E0F00508850C8285EE
:10336C000D83A3E0C0E0123065D0E012340A8582F0
:10337C000C85830D780C121AC5740412188E121A4F
:10338C00DC851082851183123FD5120766740412F6
:10339C0018588A0C8B0DAE0CAF0D85080C740225D9
:1033AC000CF874033400F9EE4F700302324E85189A
:1033BC0082851983E08882898312340AA3E0C0E0F5
:1033CC00123065D0E002325CE509700375090A859C
:1033DC000A82850B831233EE12377BA9097404021F
:1033EC00305D123FC485128285138322900301E065
:1033FC00F5F0E50884900300F07C007D0322F005D5
:10340C00088518828519832274EC1218B274FE1286
:10341C0018428A088B098C0E8D0FEA2405FEEB34BA
:10342C0000FF851882851983AC82AD838E828F83D1
:10343C0012350D1207608A0A8B0BEE2418122C9091
:10344C00EA450B70030234DE123650503285188276
:10345C0085198312350D12086E8A108B11EA4511ED
:10346C00606B7912AC0AAD0B850882850983123525
:10347C000D8510828511831218B0E9F50A7058E495
:10348C00F50AF50B780A121AC58E828F83A3A3E076
:10349C00F50A780A121AC5EE240312375F780A125D
:1034AC001AC58E828F831235171208807406121873
:1034BC0058E9F50A7021850C82850D83E0701F8513
:1034CC00088285098312350D1204EA8011750A0EE3
:1034DC008009750A018004E50A600312376E850CB9
:1034EC0082850D83E0600479008002A90A740212BF
:1034FC0018587F0C0219847C007D03850A82850B89
:10350C008312351122E0FAA3E0FB22E0FCA3E0FDDC
:10351C008508828509831235112274EE1218B27453
:10352C00FE1218428A088B098C0C8D0DEA2405FEBC
:10353C00EB3400FF750E00851882851983AC82ADC3
:10354C00838E828F8312350D1207608A0A8B0BEAE9
:10355C00450B700302363C12365050358518828567
:10356C00198312350D12086E8A0E8B0FEA450F6007
:10357C005E7912AC0AAD0B85088285098312350D74
:10358C00850E82850F831218B0E9F50E60030236A2
:10359C003F850882850983123856AA0AFB120862F5
:1035AC008A108B11A810A911E849701E7AFF7BFFB5
:1035BC001208628A108B11A810A911E849606C8856
:1035CC00828983E50AF0A3E50BF0750A0080077584
:1035DC000E0E805F050A9002E6E0FAE50AC39A50E7
:1035EC004AE50A75F017A4FAABF088828983A3A385
:1035FC00E02AFAA3E03BFB8A828B83123768EC4DFE
:10360C0070D2750A17750B00780A121AC5EEFCEF0A
:10361C00FD1210847402121858EEFCEFFD8508821E
:10362C0085098312350D1204F08014750E09800380
:10363C00750E01123FBC850C82850D8312377BA958
:10364C000E0231A7E5082402F508E5093400F50956
:10365C008A828B83A3A3A3E0A2E5227404121858D8
:10366C007F0A02198474EC1218B28C108D11EA24A2
:10367C0005F50CEB122C93750F00EA2402F50AEBFE
:10368C00123762850A82F58312350D1208628A0898
:10369C008B09EA45097003023754750E0080718559
:1036AC000C82850D83E06401704F8E828F83A3A3FF
:1036BC00121ADC8E828F83A3A3A3A3E0F5127513D9
:1036CC00007812121AC5EE2405F512EF3400F5132A
:1036DC007812121AC512350712088074061218587F
:1036EC00E9F50F6014850C82850D83E4F0123FBC64
:1036FC0085108285118312377B7C177D007900EE53
:10370C00FAEFFB12109C8E828F83E4F0A3F0050E6F
:10371C009002E6E0F8E50EC398501EE50E75F01722
:10372C00A4F8A9F0850882850983A3A3123FE912A6
:10373C003768EC4D60030236AB85088285098374CB
:10374C00FFF0A3F0E50F70061235071204F6A90F6F
:10375C000234FEF50AEF3400F50B22A3E0FCA3E0E3
:10376C00FD228E828F83123FC4850E82850F83E8E3
:10377C00F0A3E9F022C082C0839002E2E06A7003F9
:10378C00A3E06B70067AE27B0280047A007B000275
:10379C002A6EC082C08378008C828D83E06A7003AD
:1037AC00A3E06B7010E875F003A4F8A9F0EC28FA0C
:1037BC00ED39FB8015088C828D83A3A3A3E06A707E
:1037CC0003A3E06B60DF7A007B00022A6E74F612B2
:1037DC0018B212082C8A828B83E582458370067A94
:1037EC00007B008007A3A3A3A312350D023E6D74CA
:1037FC00F21218B2E9FE740E12188E1238567410AA
:10380C0012188E123CCE8C828D83E064027036A32B
:10381C00123FCAF50CA3E0F9A80C7402687003748B
:10382C0029697021750C02750D00780C121AC57877
:10383C0008121AC5780A121AC5EEF91208A47406F1
:10384C0012185880027901023EF1E0F50AA3E0F566
:10385C000B2274E81218B274FB121842E985188214
:10386C00851983F08A168B17ECFEEDFF751000742A
:10387C001D12188E123FC0741D12188E12377B8EBB
:10388C00828F83A3A3A3E0A2E4502D741D12188E83
:10389C0012350D12086E8A828B83E5824583700384
:1038AC00023C9F790AEEFCEFFDAA16AB171218B07A
:1038BC00E9F5106003023CA2741F12188E123CCE64
:1038CC00742112188E123856742312188EE0F50ECD
:1038DC00A3E0F50F8E828F83E064026003023C4DFF
:1038EC00A3123FC0850882850983A3858212858334
:1038FC0013EE2406122C9088828983E0FAA3E0F957
:10390C00EA2400F514E439F5157814121B4F010064
:10391C0000280128423907000228073A0328743985
:10392C0000293E3B0129693B02290A3B03293E3B06
:10393C000429E83B4D3CE50E450F6003023C4885ED
:10394C000C82850D83123CC3FAE9FB8A828B83E0DF
:10395C00850A82850B83123CF9121AC58A828B83E5
:10396C00A3E0FCA3E0023BD2E50E450F6003023C52
:10397C0048850A82850B837401F0123CD685088237
:10398C00850983F07C007D008E828F83A3A3A3A383
:10399C00E02401FAA3E03400FB120760EA4B60411B
:1039AC008A828B83E02402F8850A82850B83E028C7
:1039BC00F0EA2404F8EB3400F988828983E085125C
:1039CC0082851383123D0B123CF9121AC58A828B25
:1039DC0083123767E5082403FAE5093400FB023B40
:1039EC00D7850A82850B83E02404F07C047D007962
:1039FC0000AA12AB1312109C023CA2E50E450F60FC
:103A0C0003023C48123CD6FEA3E0FF850A82850BDC
:103A1C00837404F0EE850882850983F0EF851282A9
:103A2C00851383F0740312188EAC82AD83EEFAEF1B
:103A3C00FB1207608A0C8B0DEA450D7003023AEB02
:103A4C008A828B83A3A312297E740112188E85821D
:103A5C000E85830F780E121AC5740512188E121A61
:103A6C00DC7CFF7DFF12076674041218588B0FEA7A
:103A7C00450F7033850C82850D83123CAE121AC52E
:103A8C00850C82850D83A3121ADC7C027D007A8062
:103A9C007B901205927404121858E9700A74011282
:103AAC00188E74FFF0A3F08E828F83E0640270395D
:103ABC00750C02750D00780C121AC58E828F83124C
:103ACC003767E5082404FAE5093400FB1210847406
:103ADC0002121858850A82850B83E024028009742F
:103AEC000112188EEEF0A3EFF0740112188E123C36
:103AFC00BFF0740112188EA3123CB7023C42E50EC3
:103B0C00450F6003023C48850C82850D8312376893
:103B1C00AA16AB17120898850A82850B837402F0DB
:103B2C00EA850882850983F0851282851383EB026E
:103B3C003C45E50E450F6003023C48123CD6F8A309
:103B4C00E0F9850A82850B837402F0E8850882858A
:103B5C000983F0E9851282851383023C45850C822A
:103B6C00850D8312350D12107EEAFC8C82A882C35F
:103B7C00950EE4950F405FE8650E7002E50F70043A
:103B8C007C008022851882851983E0FAE50E2AFADA
:103B9C00E50F3400FBC3EA98EB94005003E080057A
:103BAC00E50ECCC39CFCEC850A82850B83F08C0A59
:103BBC00750B00780A121AC5850C82850D83E025D9
:103BCC000EFCA3E0350FFDAA08AB09121084740299
:103BDC00121858023CA2751007023CA2E50E450FC4
:103BEC00705A850C82850D83123FC0850A82850B25
:103BFC0083740712298A123CB712298AA3E0851212
:103C0C0082851383F0E82402FAE93400FB8A828B64
:103C1C0083123CB7123CE6123CBFA3123CEF123CA1
:103C2C00C8F0E82405F8E93400F988828983123C4D
:103C3C00C8A3123D0BA3A3A3A3F0805A75100B804D
:103C4C0055741D12188E12350D12082C8A828B8316
:103C5C00E5824583603D123FC0880C890DE8450D17
:103C6C006031780E121AC5780A121AC57808121A21
:103C7C00C5740612188EE0F9EEFCEFFDAA16AB1710
:103C8C00850C82850D831218B07406121858E9F54C
:103C9C0010800375100EA91074051218587F1002AD
:103CAC001984E0F50E750F00780E22E085088285E8
:103CBC00098322123D1522123FC4E822123D15A39E
:103CCC00A322E0F508A3E0F50922850C82850D837B
:103CDC00E0F8A3E0F5838882E022A3A3F08A828B2C
:103CEC0083A322F088828983A3A3A3A322F08A82D0
:103CFC008B83123D0222E0F50A750B00780A22F044
:103D0C0088828983A3123D1522E085088285098368
:103D1C00A3A32274EE1218B274FE1218428A0A8BF4
:103D2C000BECFAEDFB741412188EE0F510A3E0F511
:103D3C0011741612188EE0FE741812188EE0F50E1F
:103D4C00A3E0F50F851882851983AC82AD83120729
:103D5C00608A0C8B0DEA450D6049851882851983A4
:103D6C0012350D12082C8A828B83E5824583602FD5
:103D7C00A3A3123CCEE50845096024780E121AC59F
:103D8C007810121AC5EEF9AC0CAD0DAA0AAB0B8566
:103D9C0008828509831218B07404121858800679A9
:103DAC000E800279010231A774F61218B274FE1259
:103DBC001842740C12188E123CC385188285198314
:103DCC00F0740112188EE9F0E4F508F50978081280
:103DDC001AC57508027808121AC5740412188E8553
:103DEC0082088583097808121AC512088074061295
:103DFC0018587402121858806874F71218B2EAFE38
:103E0C00EBFF89087C197D03120898EA5402600BB9
:103E1C00A908EEFAEFFB12075480027901022886FA
:103E2C0074F61218B274FF6A700374FF6B70168C00
:103E3C00828D83123E72E4F08C828D83A3A3A31235
:103E4C003E72A380181208688A088B09A808A90971
:103E5C00E849600D8882898374FF122988A3A3E442
:103E6C00F07F0202198474FFF0A3F08C828D83A37F
:103E7C00A32274F61218B21208688A828B83E58228
:103E8C0045836006A3A3E0FA80027A007B0080D110
:103E9C0074F21218B28A088B09ECFEEDFF740E1244
:103EAC00188EE0F50A1208688A0C8B0DA80CA90D67
:103EBC00E8497026EEFCEFFD7AFF7BFF1208688A5A
:103ECC000C8B0DA80CA90DE849700479118016888B
:103EDC00828983E508F0A3E509F088828983A3A38E
:103EEC00E50AF079007F0602198474EE1218B2EA22
:103EFC00FEEBFF8C088D09890C741412188E123F7E
:103F0C00C0741612188E12350D750D00E849600339
:103F1C00023FB47402650C6003023FAF74121218B6
:103F2C008E123FCAFCA3E0F9EC2400F50EE439F53F
:103F3C000FEAF4F8EBF4F9EC58F8E50F59F9E84905
:103F4C00705CE5082406F8ED3400F9880A890B88C2
:103F5C0082F583123FD51208988A108B11E50E65F5
:103F6C00107004E50F65116042780E121AC5850AAF
:103F7C0082850B83123FD512089E7402121858E9E1
:103F8C00F50D7027780E121AC5850882850983A352
:103F9C00A3123FD31208B07402121858800D750D7D
:103FAC00808008750D0D8003750D0BA90D02366C04
:103FBC008E828F83123FC422E0F8A3E0F922123FD5
:103FCC00C488828983E022A3A3E0FCA3E0FDEEFA7F
:103FDC00EFFB223400F50D850C82F58322E028FEE0
:103FEC00A3E039FF8E828F832274F21218B2EAFE9C
:103FFC00EBFF890B7401650B600E7402650B706A24
:10400C007901120A6CE97062EEFAEFFB1208628A0F
:10401C00088B09EA45096047750A00800B7C177DFF
:10402C0000790012109C050A9002E6E0F8E50AC33C
:10403C00985021E50A75F017A4F8A9F08508828537
:10404C000983A3A3E028FAA3E039FB8A828B8312AD
:10405C002A7570C985088285098374FFF0A3F07CEA
:10406C00197D03EEFAEFFB120892023EF174F21284
:10407C0018B28A088B09ECFEEDFF740E12188E1222
:10408C003856900AF2E0F4603D7A097B001210A8D1
:10409C00EA4B60328A828B8374B1F0A3E4123CE861
:1040AC00A3123CE6A3E508F0A3E5091240D5EEF017
:1040BC00A3EF1240D5A3A3E50AF0A3E50BF0900AF9
:1040CC00F2E0F91210B4023EF1F08A828B83A3A3C2
:1040DC00A3A3A32274F01218B274FA121842890B1B
:1040EC00ECFEEDFF750A008A088B097808121B0993
:1040FC000004100843234141415B4173419141A9A4
:10410C0041CC41E441F84122429F42B042C742E2D5
:10411C00420843084338427401650B6003024303B1
:10412C008E828F83E0F8C394034003024303E8902C
:10413C000C0F0242DF7402650B60030243038E8294
:10414C008F83124B61900C10E8F0A3E90242DF74EC
:10415C0001650B6003024303124330400302430327
:10416C00E89007750242DF7401650B60030243039C
:10417C008E828F83E0F8C394054003024303E890DA
:10418C0007760242DF7401650B600302430312439E
:10419C00304003024303E89007770242DF74106556
:1041AC000B60030243037508107509007808121A96
:1041BC00C57A787B071210847402121858024329AE
:1041CC007401650B60030243031243304003024346
:1041DC0003E89007880242DF7401650B6003024319
:1041EC00038E828F83E0900C130242DF7404650B04
:1041FC0060030243038E828F83780C1216FA909020
:10420C0044780C12152D500302430390078A780C46
:10421C00121709024329E96003024303120700E95C
:10422C007005121258805690081D80637407650B38
:10423C0060030243037508067509007808121AC555
:10424C008E828F83A3AC82AD8374021218A01210DD
:10425C008A74021218587C007D00AA18AB198E8241
:10426C008F83E0F91211FEE9F508C3940A400302AA
:10427C004326120700E9700CA90812125E7950123D
:10428C001486806E741E2508F582E43408F5837458
:10429C000180407401650B705E1243305059E890F8
:1042AC000789802F7401650B704D8E828F83E0F827
:1042BC00C3940A5042E8900C1280187401650B707C
:1042CC00368E828F83E0F874F928C3940A5028E85C
:1042DC00900C14F080477401650B701B90081CE067
:1042EC00F88E828F83E090081CF0E87030E0640157
:1042FC00702B12124C8026750A188021C3EA942761
:10430C00EB940050157402650B700F8E828F831224
:10431C004F0A12059EE9F50A8003750A02A90A7470
:10432C00060246BB8E828F83E0F8C394022274F49B
:10433C001218B2ECFEEDFF7508008A0A8B0B780A96
:10434C00121B0900040EEB437243774387438C43E3
:10435C0091439643B343B843BD43EB43CC43D14362
:10436C00D643DB43E143900C0F8067900C10124B4B
:10437C00618E828F83E8F0A3E98078900775805274
:10438C00900776804D9007778048750A10750B0062
:10439C00780A121AC57C787D07EEFAEFFB121084AE
:1043AC00740212185880529007888026900C138043
:1043BC002190078A1217308E828F8312173C803916
:1043CC00900789800D900C128008900C148003903B
:1043DC00081CE08004121252E98E828F838014C371
:1043EC00EA9427EB9400500E1205A48E828F83EA78
:1043FC00F0A3EBF08003750802A9088005740E1277
:10440C0018587F0402198474F01218B274AB121885
:10441C00428C0C8D0D908F8674141218A874061291
:10442C00175574141218A81211FEE9FE74651218AF
:10443C008EE0F50AEEC3940A400302458D75F00632
:10444C00EEA4F50874471218A87A0E74202508F902
:10445C00121480E97009745312188EE0FF80027FE9
:10446C0000900C0FE064027005750E018003750E50
:10447C00007408650A70047422800274212508F502
:10448C000F7C1B7D007900741A1218A012109CEF7F
:10449C00A2E0E433F509741A1218A87A1BA90F12BA
:1044AC001480E97025743412188EE024F9C3940A30
:1044BC005018780E121AC9741B1218A8A909AA0C44
:1044CC00AB0D12064074011218587C147D00790053
:1044DC00AA18AB1912109CAC18AD197A10742425BB
:1044EC0008F9121480E9702E7C1079FFAA18AB1908
:1044FC001210FCE97020741012188EAC82AD837A05
:10450C000474252508F9121480AC18AD19A909AA50
:10451C000CAB0D12062874351218A87A1274702E72
:10452C00F9121480E9704974351218A01212347EF5
:10453C0000EE75F003A4F8A9F0743512188EE5821C
:10454C0028F8E583124D16124F04601D888289836A
:10455C00A3A3E0F5087509007808121AC5AA0CABDC
:10456C000D12088674021218580EEEC3940640C140
:10457C00EFA2E1500C900774E0F9AA0CAB0D1208F5
:10458C008C7404650A7027900C0FE06402701F7A1B
:10459C0000900788E060010A900775E060047804D9
:1045AC0080027800E84AF9AA0CAB0D1206E87900F3
:1045BC0074550246BB74F01218B274F0121842EA29
:1045CC00FEEBFF8C088D09750A0AE9600C14600972
:1045DC0014603B14607D0246B7121246E9F50AC31B
:1045EC00940A40030246B7E508450970030246B732
:1045FC00750C06750D00780C121AC5EEFCEFFDAAB1
:10460C0008AB0912108474021218580246B7750CC4
:10461C0000750E06750F00780E121AC5EEFCEFFD34
:10462C00E50C75F00EA4F8A9F0749628FA74073905
:10463C00FB1210967402121858E9700B050CE50C5D
:10464C00C3940A506680CA850C0AE50AC3940A50C2
:10465C005A8049750C00AC18AD197A1075F006E546
:10466C000CA42423F9121480E9701C7C1079FFAA85
:10467C0018AB191210FCE9700EEEFCEFFDAA18AB8A
:10468C001912060AE9600B050CE50CC3940A501BC1
:10469C0080C4850C0AE50AC3940A500FE508450945
:1046AC006009AA08AB09A90A121240A90A741012CF
:1046BC0018587F0802198474F41218B28908750905
:1046CC001574FF6A700374FF6B70277E00AC087A58
:1046DC00027B00EEF9121222E960037509000EEE5E
:1046EC00C3940A40E8E50860527A707B12120A7E85
:1046FC008049120A608A0A8B0BAE0AAF0BEE4F6030
:10470C00377C007D00EE2405FAE43FFB8E828F831C
:10471C00A3A3A3A3E0F91211FEE9C3940A500CACB5
:10472C00087A027B00121222750900E508600CEE73
:10473C00FAEFFB1212708003750914A90902440EDA
:10474C0074F21218B2ECFEEDFF750815740E121807
:10475C008EE0F50AA3E0F50B74FF6A700374FF6B2F
:10476C007021750900AC0AAD0BEEFAEFFBA909122A
:10477C001228E960037508000509E509C3940A507D
:10478C003E80E2120A608A828B83E5824583602C2C
:10479C007C007D00E5822405FAE43583FBA3A3A30A
:1047AC00A3E0F91211FEE9C3940A5013AC0AAD0B45
:1047BC00EEFAEFFB1212287508008003750814A995
:1047CC0008024CDEC082C08390078EEAF0A3EBF0A7
:1047DC00900774E0FC7D007A267B0012059E900702
:1047EC0074E0F91208080252F174EC1218B28A083B
:1047FC008B09E97F0070387808121AC574161218E4
:10480C008E780C1216FA90904478101216FA780CD6
:10481C0079101215CCAA10AB11AC12AD1312063ACA
:10482C007402121858E9FF60097901AA08AB091241
:10483C000634EFF97F0C02198474F01218B274EC80
:10484C00121842EAFEEBFFEE240CF50CE43FF50DDA
:10485C00EE2405F50EE43FF50FEE2409F50AE43FCE
:10486C00F50BEE2403F508E43FF5098E828F83A344
:10487C00A3E024FA7003024B0024FD7003024A1ECD
:10488C0014700302491B14601024FD70030249F5D7
:10489C00147003024A55024B571255F26049E0F569
:1048AC00838882124B61880E890FE8450F6038852A
:1048BC000C82850D83E0F50C780C121AC9EE240BD2
:1048CC00F582E43FF583E0F9850A82850B83124F6C
:1048DC000A0A0A0AAB09850E82850F831218B07476
:1048EC0001121858024B57850A82850B83121ADC69
:1048FC0090078A12171812063A7402121858E970A7
:10490C0003024B577901850A82850B83024ACB8EB1
:10491C00828F83A385820A85830BE060030249D8CA
:10492C00850E82850F83E0A2E040030249D89008EF
:10493C00281255F560030249D87C0E7D007900AA37
:10494C0018AB1912109C850C82850D831252BCEA8F
:10495C004B6010750C06750D00780C121AC5EA2404
:10496C0010801B1252B6120A60EA4B7003024B57AE
:10497C00750C06750D00780C121AC5EA2405FCE4BA
:10498C003BFD74021218A012108474021218588580
:10499C000E82850F83E0A2E25004D2F08002C2F0B6
:1049AC00A2F0E433F8740C12188EE048F0EEFCEF31
:1049BC00FDAA18AB1912123AE970117A027B009019
:1049CC000774E0F91210D87900024B591255F270A5
:1049DC0003024B57124B677003024B57850A8285B3
:1049EC000B83E0FC7901024AF41255F27003024B7E
:1049FC0057124B5E890BE8450B7003024B578E82A6
:104A0C008F83A3E0FC79021252B68882850B830255
:104A1C004AFB7C007D00EE2404FAE43FFB8508820F
:104A2C00850983E0F91211FEE9F8C3940A400302E8
:104A3C004B57EE240AFCE43FFD7A0475F006E8A41B
:104A4C002425F912147A024B571252B6900789E0BA
:104A5C006007900C12E0F98069900C0FE0700479FB
:104A6C0005805F120A608A0C8B0DA80CA90DE82436
:104A7C0004F50CE439F50D8E828F83A3A3A3A3A3B5
:104A8C00A3A3E0A2E05041E8497003024B57850C08
:104A9C0082850D83E0FE6030850A82850B83E054AD
:104AAC00107025740E1218A8E82405FAE439FBEEF0
:104ABC00F91211FEE97011790385088285098312B8
:104ACC0052BC120634024B57AC0EAD0F850C8285CE
:104ADC000D83E0F91252B612127C1255F2606C1270
:104AEC004B6760677C0079001252B68E828F8312FE
:104AFC0018B08057120700E9705190081DE064014E
:104B0C00701512125890081DE4F07C0AFDF97A1EFB
:104B1C007B0812109C802C750A00850A08741E25CF
:104B2C0008FEE43408FF8E828F83E06401700BA9C9
:104B3C000A12125E8E828F83E4F0050AE50AC39492
:104B4C000A40D7795012148612124C79017414024F
:104B5C0046BB124B76E0F8A3E0F922124B76E0F854
:104B6C00A3E0F9E8FEE9FFEE4F22E0F5838882A38B
:104B7C00A32274F41218B274F2121842EAFE8C0BCF
:104B8C0075F006E9A42420F508AC18AD197A0EF9D5
:104B9C00121480E9704B7C0679FFAA18AB1912101D
:104BAC00FCE9703D740C12188E124B61E8F509E5A6
:104BBC000B6005EE42098004EEF45209850982AAC5
:104BCC0082E86A7001E96015740C12188EEAF0A381
:104BDC00E4F0AC18AD197A0EA90812147A79018098
:104BEC0002790002440974F21218B274E0121842ED
:104BFC00890A8A088B09ECFEEDFF74121218A87A48
:104C0C000E75F006E9A42420F9121480E960030261
:104C1C004CD77C0679FF74121218A01210FCE960B4
:104C2C0003024CD77470250AF50BAC18AD197A1227
:104C3C00F9121480E96003024CD3AA18AB191212B2
:104C4C0034E5084509701D7C127900AA18AB1912BD
:104C5C0010FCE970727C127D007900AA18AB191255
:104C6C00109C8051AC18AD19AA08AB0912122E8AEF
:104C7C000C8B0DA80CA90DE8497022EE4F604CACC2
:104C8C0018AD197A007B0012122EEAF8EBF9EA4BF8
:104C9C00603988828983E508F0A3E509F0124D524A
:104CAC00FAEE6A7001EF601FEEF04F70088882898F
:104CBC0083E4F0A3F0AA18AB19121234AC18AD1996
:104CCC007A12A90B12147A790180027900742012DD
:104CDC0018587F0602198474F71218B27F00EF750A
:104CEC00F003A4F8A9F0EC28F8ED124D16E06A7068
:104CFC0003A3E06B7006E8FAE9FB800B0FEFC3949B
:104D0C000640DB7A007B0002504739F988828983A0
:104D1C002274F71218B27E00EE75F003A4F8A9F015
:104D2C00EA28F8EB124D16E0F4FCA3E0F4FD8882BF
:104D3C008983ECF0A3EDF0124D52F4F00EEEC39417
:104D4C000640D5025047E82402F582E439F583E0A9
:104D5C002274F41218B274EE121842EAFEEBFF8CB5
:104D6C00088D099008281255F5704FEE4F7003020C
:104D7C004EE3EC45097003024EE3121246E9900C27
:104D8C0015F0C3940A4033750B007C0679FFE50BD4
:104D9C0075F00EA4FAABF074902AFA74073BFB1270
:104DAC0010FCE96003024E43050BE50BC3940A406B
:104DBC00D9750A0AE50A900C15F0900C15E0C3940D
:104DCC000A4003024EE375F006E0A4FB900828129B
:104DDC0055F57069EEFCEFFD7A0E74202BF9121468
:104DEC007A7C127D0079FFAA18AB1912109CAC18B2
:104DFC00AD197A12900C15E02470F912147A750A18
:104E0C000E750B00780A121AC5EEFCEFFD900C150E
:104E1C00E075F00EA4F8A9F0749028FA740739FB29
:104E2C001210847402121858900828E508F0A3E5B3
:104E3C0009F07900024EE5850B0A024DC0E0C8244A
:104E4C0006124EFE60197A1B74212BF912147A1279
:104E5C004EEA2406F582E438F583E4F0A380D212FE
:104E6C004EEA240A124EFE60107A1B74222BF912A1
:104E7C00147A124EEA240A80DB124EEA240C124EEB
:104E8C00FE60107A1074232BF912147A124EEA2455
:104E9C000C80C1124EF3124EFE60307A1074242B2B
:104EAC00F912147A124EF3F582E438F583E02410EB
:104EBC00FCA3E03400FD7A0475F006900C15E0A418
:104ECC002425F912147A124EF3808990081CE060A4
:104EDC00031212821212767901741202440B90089A
:104EEC0028E0F8A3E0C822900828E0F8A3E0C82442
:104EFC000822F582E438F583124F0AEC4D22E0FCCF
:104F0C00A3E0FD2274F41218B274F2121842EAFEF5
:104F1C00EBFFE9C3940A5004EE4F7004790280341D
:104F2C00AC18AD197A0E75F006E9A42420F9121408
:104F3C0080E9F508701C750A06750B00780A121AC0
:104F4C00C574021218A8EEFAEFFB12108474021248
:104F5C001858A90802440974F41218B2EAFEEBFFBF
:104F6C00750800750A06750B00780A121AC5EEFC56
:104F7C00EFFDE50875F00EA4F8A9F0749028FA740A
:104F8C000739FB1210967402121858E96004A9082C
:104F9C00800B0508E508C3940A40C8790A02440E40
:104FAC0074F71218B2750800E50875F00EA4F8A98C
:104FBC00F0749028FE740739FFEEFCEFFD7A0E7545
:104FCC00F006E508A42420F9121480E960297C0677
:104FDC007D0079FFEEFAEFFB12109C7C067D0079C8
:104FEC00FFEE2CFAE43FFB12109CEE240CF582E44D
:104FFC003FF583E4F0A3F00508E508C3940A40A844
:10500C0090081CE06003121282121276802D74F745
:10501C001218B27E007F007C0679FFEF75F00EA4AB
:10502C00FAABF074902AFA74073BFB1210FCE9708F
:10503C00010E0FEFC3940A40DEEEF97F01021984D2
:10504C0074F71218B27E00EEF912125E0EEEC394D3
:10505C000A5003E960F180E374F31218B274C512BC
:10506C001842E9FE900C15E06E701B7A017B0090E3
:10507C000774E0F91210DE7A027B00900774E0F9F5
:10508C001210DE12128E75F006EEA4FF74202FF5AE
:10509C0008741B1218A87A0EA908121480E9600370
:1050AC000251667C0679FF741B1218A01210FCE9E1
:1050BC0060030251667C0E7D0079FF741B1218A0F0
:1050CC0012109C7C1B7D0079FFAA18AB1912109C46
:1050DC007C127D0079FF74291218A012109C741B8D
:1050EC001218A87A0EA90812147AE9F508AC18ADB2
:1050FC00197A1B74212FF912147AE9F509AC18AD41
:10510C00197A1B74222FF912147AE9F50AAC18AD2E
:10511C00197A1074232FF912147AE9F50BAC18AD27
:10512C00197A1074242FF912147AE9F50CAC18AD15
:10513C00197A0474252FF912147AE9FF74291218BC
:10514C00A87A1274702EF912147AE9F8E509450A56
:10515C00450B450C4F4842088003750800A908749C
:10516C003B1218587F0502198474F71218B2E99093
:10517C000774F012124C02504774F41218B2EAFE83
:10518C00EBFF5480700302521D900774E0F912106B
:10519C00C08A088B09EA4509607078018A828B8382
:1051AC00E02450603D14600624E1604F8052A3A3BC
:1051BC00A3A3E0704E8A828B83A3A3A3A3A3A3A370
:1051CC00121ADC8A828B83A3A3A3A3A3124F0A8A8D
:1051DC00828B83A3A31252BC12120A7402121858A7
:1051EC008021A3A3A3A3E0641E701879008A828B8C
:1051FC0083A3A31252BC121204800812121CE9F8E9
:10520C00E86007AA08AB091210AEEEFAEF648080D2
:10521C0065EE540260237C007D007A007B00121244
:10522C003AE960117A017B00900774E0F91210D80A
:10523C00EE6402803F7A028046EEA2E0503F1252AA
:10524C00901252BC121288E9602F1255F2601F1294
:10525C004B5E88088909E8450960137C00790112C6
:10526C0052901252BC8508828509831218B0121212
:10527C008EEE6401FAEFFB80087A0180027A007BE3
:10528C000002440E900828E0F8A3124B76A3227F6C
:10529C0002021984C082C083900774E0F98A828B61
:1052AC0083A31252BC12088C803B8508828509832B
:1052BC00E0FAA3E0FB22C082C08374FF12184212F2
:1052CC001252E9C394028518828519834004740232
:1052DC008002740AF0AC18AD197A0179051207181E
:1052EC007401121858D083D08202013274F2121851
:1052FC00B274E8121842EAFEEBFF890A8C088D0999
:10530C007C187D007900AA18AB1912109C851882A4
:10531C00851983EEF0A3EFF0900776E0C0E07402FD
:10532C0012188ED0E0F0900777E0C0E074031218EA
:10533C008ED0E0F0900C14E0C0E0741712188ED0F0
:10534C00E0F0741512188EE054FEF8A3E0F9900CFE
:10535C0013E0A2E0E433FAE84AF8741512188E123E
:10536C005492A2E15004D2F08002C2F0E854FDFA4B
:10537C00A2F0E43325E0F8EA48F8741512188E12FE
:10538C005492A2E35004D2F08002C2F0E854F7FA2F
:10539C00A2F0E433F50C750D007403780C12182F81
:1053AC0012548B12188E125492A2E45004D2F08034
:1053BC0002C2F0E854EFFAA2F0E433F50C7404786E
:1053CC000C12182F12548B12188E125492A2E550F4
:1053DC0004D2F08002C2F0E854DFFAA2F0E433F514
:1053EC000C7405780C12182F12548B12188E125440
:1053FC0092A2E25004D2F08002C2F0E854FBFAA26E
:10540C00F0E433F50C7402780C12182F12548B1232
:10541C00188EE8F0A3E9F0900777E0601D750C108A
:10542C00780C121AC57C787D07740612188EAA8225
:10543C00AB831210847402121858900788E0601124
:10544C00E50A6009741512188EE04402F0780180A8
:10545C00027800741412188EE048F0900775E06022
:10546C0004780480027800741412188EE048F0ACB2
:10547C0008AD09AA18AB1912062E7418024CDBEAF7
:10548C00450CF8741522E8F0A3E9F0900C13E02217
:10549C0074F71218B21208FE750800E50875F00EC4
:1054AC00A4F8A9F0749028FE740739FF7C0679FFE4
:1054BC00EEFAEFFB1210FCE97009EEFAEFFB790043
:1054CC001209040508E508C3940A40CF025047743A
:1054DC00F61218B274FD121842EAFEEBFF90082A7D
:1054EC001255F5703975082C7509087808121AC50B
:1054FC007508027509007808121AC57508687509CF
:10550C00907808121AC57CFF7DFF7A017B00120788
:10551C005A740612185890082AEAF0A3EBF0900877
:10552C002A1255F570030255DCE4F508F5097808E4
:10553C00121AC57404121898880889097808121A66
:10554C00C57404121898880889097808121AC5902D
:10555C00082C121ADC790290082A1255EA12087AE1
:10556C007408121858E97036851882851983E0FA88
:10557C00740112188EE0F8E4C8F9EA28F508E43949
:10558C00F509EA450960177808121AC590082A121D
:10559C005293A31255EA12120A7402121858E4F527
:1055AC0008F5097808121AC590082C121ADC7CFF31
:1055BC007DFF90082A1252BC120766740412185808
:1055CC0090082AEAF0A3EBF090082A1255F5700423
:1055DC00790180027900740312185802529B124F01
:1055EC000AEEFAEFFB2290078EE0F8A3E0F9E84907
:1055FC0022C082C0839008281255F56010900828AC
:10560C001252BC1210AE900828E4F0A3F0900C15C6
:10561C00740AF00252F1C082C0839061907404F05D
:10562C00A37448F0A3E4F09061807440F09061BCE6
:10563C007407F09061877469F09061B67416F07914
:10564C0000120B627902120B6890283CE493F46010
:10565C0006E493F9120B3E7905120E68025A1DC02E
:10566C0082C083E9540FF9906185E0696012E5C648
:10567C0054804449F5C6E59E547F644970F8E9F0BE
:10568C0053C680E59E547F70FA025A1D74F71218A7
:10569C00B2E5A8FE53A87E120B4AC2BA539AFEC2B8
:1056AC0089759B00C2C2120B5075A91175B90512F0
:1056BC000B56D2BA439A0174805E42A8025FB4C002
:1056CC0082C083906181E4F0A3025A1A75E90075D7
:1056DC00910075BF00020132C082C083906181E4E9
:1056EC00F0A374C0F0A3E4025A1CC082C08374F807
:1056FC001218429003A412694D70030257D59003FF
:10570C00A4E0544060237908851882851983AA8205
:10571C00AB83120C5E851882851983AA82AB831227
:10572C00091C9003A4E054BFF0E054806010790C85
:10573C007A657B05120C5E9003A4E0547FF0E0A226
:10574C00E0500F7900120B621209229003A4E0546E
:10575C00FEF0E05402600F7901120B6212092290E4
:10576C0003A4E054FDF0E05404600F7900120B68C0
:10577C001209289003A4E054FBF0E05408600F7960
:10578C0001120B681209289003A4E054F7F0E054BE
:10579C0010600F7902120B681209289003A4E054D0
:1057AC00EFF0E05420600F7903120B681209289077
:1057BC0003A4E054DFF0A3E05401600D120B74124B
:1057CC00092E9003A5E054FEF07408121858025AE2
:1057DC001DC082C083E9600514602A804F90619AD5
:1057EC007433F0A37455F09061A0743AF090053FB7
:1057FC00E064017009C2919003A67467802D900338
:10580C00A67461802690619A743FF0A3745AF0904C
:10581C0061A0747FF090053FE064017009D2919013
:10582C0003A6747180059003A6746AF0025A1DC019
:10583C0082C083E9600B14600D14601714600C8037
:10584C00209028408015902841801090053FE064FE
:10585C000170059028428003902843E49390618660
:10586C00F0025A1D74EE1218B274F4121842851814
:10587C0082851983AC82AD837583907582347404F0
:10588C0012175590284093F4600302599A907808A7
:10589C00E0C39402500302597A740412188EAC823D
:1058AC00AD8375838F75827E7408121755FC7EFF4D
:1058BC007FFF8E0C7D008C8285820E800F74086DAC
:1058CC00606D74096D6068740A6D60638D0875098C
:1058DC00007402780812182F1259A41216FAA9098A
:1058EC00E50AC9F888107418780812163BE51045BB
:1058FC0008FAE9FBE50EC333F8E433F97404121823
:10590C008EE58228F582E58339125EA4C3E89AE914
:10591C009B4008E8C39AF8E99B8006EAC398F8EB29
:10592C0099F9C3E89EE99F5006E8FEE9FF8D0C0D3E
:10593C00EDC39413408774FF6E700374FF6F602483
:10594C00850C087402780812182F1259A41216FA32
:10595C00851882851983E582250EF582E58312630D
:10596C0043E508F00CECC3940450030258BA7508D4
:10597C00017509007808121AC5740212188EAC82CF
:10598C00AD837A107B0A1212D67402121858740C5A
:10599C001218587F0A02198474482508F582747805
:1059AC003509F583780822C082C083906186E0F8BF
:1059BC00902843E493687009902842E493906186A0
:1059CC00F09061AE7468F0A3746AF090624574FB59
:1059DC00F0A304F053F4FD43FE0290053F7401F074
:1059EC009061A0E0643A7004790080027901120B96
:1059FC0062025A1DC082C0839004F1E06401700AF7
:105A0C009004F6E06004790C800279008003F0A326
:105A1C00F0D083D082020132C082C08375E1F19054
:105A2C0004F4E0604D146009146051146049147062
:105A3C0050120B869004EAE0F97AEB7B04120DEA23
:105A4C00908FDC121718120E20908FD0121718128C
:105A5C000DF69004F5E0F9120E027901120E5C12AB
:105A6C005B402416126340749EF0A3740BF0790013
:105A7C00809F120B8C80BD120B9280B8120B9880F9
:105A8C00B3791280EB74F41218B275D90D9004D559
:105A9C00E0A2E0E4331313F8125B36484401F5D965
:105AAC007800125BA340FB7800880874D61268A3B8
:105ABC007404125BAD40F275E1959004D5E0F97A6F
:105ACC00D67B04120DF0900B147414F0A3740B120B
:105ADC005BB3125BF7125BEE125D0B9004F4E064A7
:105AEC00019004E8700B125B491216FA90904080FA
:105AFC0009125B491216FA90903C7808121686909F
:105B0C008FCC78081216D4125B40240E12634078A6
:105B1C0008121709125B4024141263407413F0909E
:105B2C0003A27402F07F040219849004EAE0C433E7
